{"contracts/UDex.sol":{"UDex":{"abi":[{"inputs":[{"internalType":"contract IERC20","name":"_xdc","type":"address"}],"stateMutability":"nonpayable","type":"constructor"},{"inputs":[{"internalType":"address","name":"target","type":"address"}],"name":"AddressEmptyCode","type":"error"},{"inputs":[{"internalType":"address","name":"account","type":"address"}],"name":"AddressInsufficientBalance","type":"error"},{"inputs":[{"internalType":"address","name":"spender","type":"address"},{"internalType":"uint256","name":"allowance","type":"uint256"},{"internalType":"uint256","name":"needed","type":"uint256"}],"name":"ERC20InsufficientAllowance","type":"error"},{"inputs":[{"internalType":"address","name":"sender","type":"address"},{"internalType":"uint256","name":"balance","type":"uint256"},{"internalType":"uint256","name":"needed","type":"uint256"}],"name":"ERC20InsufficientBalance","type":"error"},{"inputs":[{"internalType":"address","name":"approver","type":"address"}],"name":"ERC20InvalidApprover","type":"error"},{"inputs":[{"internalType":"address","name":"receiver","type":"address"}],"name":"ERC20InvalidReceiver","type":"error"},{"inputs":[{"internalType":"address","name":"sender","type":"address"}],"name":"ERC20InvalidSender","type":"error"},{"inputs":[{"internalType":"address","name":"spender","type":"address"}],"name":"ERC20InvalidSpender","type":"error"},{"inputs":[{"internalType":"address","name":"receiver","type":"address"},{"internalType":"uint256","name":"assets","type":"uint256"},{"internalType":"uint256","name":"max","type":"uint256"}],"name":"ERC4626ExceededMaxDeposit","type":"error"},{"inputs":[{"internalType":"address","name":"receiver","type":"address"},{"internalType":"uint256","name":"shares","type":"uint256"},{"internalType":"uint256","name":"max","type":"uint256"}],"name":"ERC4626ExceededMaxMint","type":"error"},{"inputs":[{"internalType":"address","name":"owner","type":"address"},{"internalType":"uint256","name":"shares","type":"uint256"},{"internalType":"uint256","name":"max","type":"uint256"}],"name":"ERC4626ExceededMaxRedeem","type":"error"},{"inputs":[{"internalType":"address","name":"owner","type":"address"},{"internalType":"uint256","name":"assets","type":"uint256"},{"internalType":"uint256","name":"max","type":"uint256"}],"name":"ERC4626ExceededMaxWithdraw","type":"error"},{"inputs":[],"name":"FailedInnerCall","type":"error"},{"inputs":[],"name":"MathOverflowedMulDiv","type":"error"},{"inputs":[{"internalType":"address","name":"owner","type":"address"}],"name":"OwnableInvalidOwner","type":"error"},{"inputs":[{"internalType":"address","name":"account","type":"address"}],"name":"OwnableUnauthorizedAccount","type":"error"},{"inputs":[],"name":"ReentrancyGuardReentrantCall","type":"error"},{"inputs":[{"internalType":"int256","name":"value","type":"int256"}],"name":"SafeCastOverflowedIntToUint","type":"error"},{"inputs":[{"internalType":"uint256","name":"value","type":"uint256"}],"name":"SafeCastOverflowedUintToInt","type":"error"},{"inputs":[{"internalType":"address","name":"token","type":"address"}],"name":"SafeERC20FailedOperation","type":"error"},{"inputs":[],"name":"UDex__BreaksHealthFactor","type":"error"},{"inputs":[],"name":"UDex__ErrorInsufficientCollateral","type":"error"},{"inputs":[],"name":"UDex__ErrorSize","type":"error"},{"inputs":[],"name":"UDex__InsufficientPositionCollateral","type":"error"},{"inputs":[],"name":"UDex__PositionAlreadyExist","type":"error"},{"inputs":[],"name":"UDex__PositionDoesNotExist","type":"error"},{"anonymous":false,"inputs":[{"indexed":true,"internalType":"address","name":"owner","type":"address"},{"indexed":true,"internalType":"address","name":"spender","type":"address"},{"indexed":false,"internalType":"uint256","name":"value","type":"uint256"}],"name":"Approval","type":"event"},{"anonymous":false,"inputs":[{"indexed":true,"internalType":"address","name":"sender","type":"address"},{"indexed":true,"internalType":"address","name":"owner","type":"address"},{"indexed":false,"internalType":"uint256","name":"assets","type":"uint256"},{"indexed":false,"internalType":"uint256","name":"shares","type":"uint256"}],"name":"Deposit","type":"event"},{"anonymous":false,"inputs":[{"indexed":true,"internalType":"address","name":"previousOwner","type":"address"},{"indexed":true,"internalType":"address","name":"newOwner","type":"address"}],"name":"OwnershipTransferred","type":"event"},{"anonymous":false,"inputs":[{"indexed":true,"internalType":"address","name":"user","type":"address"},{"indexed":false,"internalType":"uint256","name":"collateralDecreased","type":"uint256"},{"indexed":false,"internalType":"uint256","name":"sizeDecreased","type":"uint256"}],"name":"PositionDecreased","type":"event"},{"anonymous":false,"inputs":[{"indexed":true,"internalType":"address","name":"user","type":"address"},{"indexed":false,"internalType":"bool","name":"isLong","type":"bool"},{"indexed":false,"internalType":"uint256","name":"collateral","type":"uint256"},{"indexed":false,"internalType":"uint256","name":"size","type":"uint256"},{"indexed":false,"internalType":"uint256","name":"xdcAmount","type":"uint256"},{"indexed":false,"internalType":"uint256","name":"avgXdcPrice","type":"uint256"}],"name":"PositionOpened","type":"event"},{"anonymous":false,"inputs":[{"indexed":true,"internalType":"address","name":"from","type":"address"},{"indexed":true,"internalType":"address","name":"to","type":"address"},{"indexed":false,"internalType":"uint256","name":"value","type":"uint256"}],"name":"Transfer","type":"event"},{"anonymous":false,"inputs":[{"indexed":true,"internalType":"address","name":"sender","type":"address"},{"indexed":true,"internalType":"address","name":"receiver","type":"address"},{"indexed":true,"internalType":"address","name":"owner","type":"address"},{"indexed":false,"internalType":"uint256","name":"assets","type":"uint256"},{"indexed":false,"internalType":"uint256","name":"shares","type":"uint256"}],"name":"Withdraw","type":"event"},{"inputs":[],"name":"MAX_LEVARAGE","outputs":[{"internalType":"uint256","name":"","type":"uint256"}],"stateMutability":"view","type":"function"},{"inputs":[{"internalType":"address","name":"owner","type":"address"},{"internalType":"address","name":"spender","type":"address"}],"name":"allowance","outputs":[{"internalType":"uint256","name":"","type":"uint256"}],"stateMutability":"view","type":"function"},{"inputs":[{"internalType":"address","name":"spender","type":"address"},{"internalType":"uint256","name":"value","type":"uint256"}],"name":"approve","outputs":[{"internalType":"bool","name":"","type":"bool"}],"stateMutability":"nonpayable","type":"function"},{"inputs":[],"name":"asset","outputs":[{"internalType":"address","name":"","type":"address"}],"stateMutability":"view","type":"function"},{"inputs":[{"internalType":"address","name":"account","type":"address"}],"name":"balanceOf","outputs":[{"internalType":"uint256","name":"","type":"uint256"}],"stateMutability":"view","type":"function"},{"inputs":[{"internalType":"uint256","name":"shares","type":"uint256"}],"name":"convertToAssets","outputs":[{"internalType":"uint256","name":"","type":"uint256"}],"stateMutability":"view","type":"function"},{"inputs":[{"internalType":"uint256","name":"assets","type":"uint256"}],"name":"convertToShares","outputs":[{"internalType":"uint256","name":"","type":"uint256"}],"stateMutability":"view","type":"function"},{"inputs":[],"name":"decimals","outputs":[{"internalType":"uint8","name":"","type":"uint8"}],"stateMutability":"view","type":"function"},{"inputs":[{"internalType":"uint256","name":"assets","type":"uint256"},{"internalType":"address","name":"receiver","type":"address"}],"name":"deposit","outputs":[{"internalType":"uint256","name":"shares","type":"uint256"}],"stateMutability":"nonpayable","type":"function"},{"inputs":[{"internalType":"address","name":"owner","type":"address"}],"name":"getPosition","outputs":[{"components":[{"internalType":"uint256","name":"collateral","type":"uint256"},{"internalType":"uint256","name":"avgXdcPrice","type":"uint256"},{"internalType":"uint256","name":"xdcAmount","type":"uint256"},{"internalType":"bool","name":"isLong","type":"bool"},{"internalType":"uint256","name":"lastChangeTimestamp","type":"uint256"}],"internalType":"struct UDex.Position","name":"position","type":"tuple"}],"stateMutability":"view","type":"function"},{"inputs":[{"internalType":"uint256","name":"currentXDCPrice","type":"uint256"}],"name":"getPrice","outputs":[{"internalType":"uint256","name":"","type":"uint256"}],"stateMutability":"view","type":"function"},{"inputs":[],"name":"getTradersPnL","outputs":[{"internalType":"int256","name":"","type":"int256"}],"stateMutability":"view","type":"function"},{"inputs":[{"internalType":"uint256","name":"amount","type":"uint256"},{"internalType":"uint256","name":"currentXDCPrice","type":"uint256"}],"name":"getUsdtValue","outputs":[{"internalType":"uint256","name":"","type":"uint256"}],"stateMutability":"view","type":"function"},{"inputs":[],"name":"i_xdc","outputs":[{"internalType":"contract IERC20","name":"","type":"address"}],"stateMutability":"view","type":"function"},{"inputs":[{"internalType":"address","name":"","type":"address"}],"name":"maxDeposit","outputs":[{"internalType":"uint256","name":"","type":"uint256"}],"stateMutability":"view","type":"function"},{"inputs":[{"internalType":"address","name":"","type":"address"}],"name":"maxMint","outputs":[{"internalType":"uint256","name":"","type":"uint256"}],"stateMutability":"view","type":"function"},{"inputs":[{"internalType":"address","name":"owner","type":"address"}],"name":"maxRedeem","outputs":[{"internalType":"uint256","name":"","type":"uint256"}],"stateMutability":"view","type":"function"},{"inputs":[{"internalType":"address","name":"owner","type":"address"}],"name":"maxWithdraw","outputs":[{"internalType":"uint256","name":"","type":"uint256"}],"stateMutability":"view","type":"function"},{"inputs":[{"internalType":"uint256","name":"shares","type":"uint256"},{"internalType":"address","name":"receiver","type":"address"}],"name":"mint","outputs":[{"internalType":"uint256","name":"assets","type":"uint256"}],"stateMutability":"nonpayable","type":"function"},{"inputs":[],"name":"name","outputs":[{"internalType":"string","name":"","type":"string"}],"stateMutability":"view","type":"function"},{"inputs":[{"internalType":"uint256","name":"size","type":"uint256"},{"internalType":"uint256","name":"collateral","type":"uint256"},{"internalType":"uint256","name":"currentXDCPrice","type":"uint256"},{"internalType":"bool","name":"isLong","type":"bool"}],"name":"openPosition","outputs":[],"stateMutability":"nonpayable","type":"function"},{"inputs":[],"name":"owner","outputs":[{"internalType":"address","name":"","type":"address"}],"stateMutability":"view","type":"function"},{"inputs":[{"internalType":"uint256","name":"assets","type":"uint256"}],"name":"previewDeposit","outputs":[{"internalType":"uint256","name":"","type":"uint256"}],"stateMutability":"view","type":"function"},{"inputs":[{"internalType":"uint256","name":"shares","type":"uint256"}],"name":"previewMint","outputs":[{"internalType":"uint256","name":"","type":"uint256"}],"stateMutability":"view","type":"function"},{"inputs":[{"internalType":"uint256","name":"shares","type":"uint256"}],"name":"previewRedeem","outputs":[{"internalType":"uint256","name":"","type":"uint256"}],"stateMutability":"view","type":"function"},{"inputs":[{"internalType":"uint256","name":"assets","type":"uint256"}],"name":"previewWithdraw","outputs":[{"internalType":"uint256","name":"","type":"uint256"}],"stateMutability":"view","type":"function"},{"inputs":[{"internalType":"uint256","name":"shares","type":"uint256"},{"internalType":"address","name":"receiver","type":"address"},{"internalType":"address","name":"owner","type":"address"}],"name":"redeem","outputs":[{"internalType":"uint256","name":"assets","type":"uint256"}],"stateMutability":"nonpayable","type":"function"},{"inputs":[],"name":"renounceOwnership","outputs":[],"stateMutability":"nonpayable","type":"function"},{"inputs":[],"name":"s_totalLiquidityDeposited","outputs":[{"internalType":"uint256","name":"","type":"uint256"}],"stateMutability":"view","type":"function"},{"inputs":[],"name":"symbol","outputs":[{"internalType":"string","name":"","type":"string"}],"stateMutability":"view","type":"function"},{"inputs":[],"name":"totalAssets","outputs":[{"internalType":"uint256","name":"","type":"uint256"}],"stateMutability":"view","type":"function"},{"inputs":[],"name":"totalSupply","outputs":[{"internalType":"uint256","name":"","type":"uint256"}],"stateMutability":"view","type":"function"},{"inputs":[],"name":"tradersCollateral","outputs":[{"internalType":"uint256","name":"","type":"uint256"}],"stateMutability":"view","type":"function"},{"inputs":[{"internalType":"address","name":"to","type":"address"},{"internalType":"uint256","name":"value","type":"uint256"}],"name":"transfer","outputs":[{"internalType":"bool","name":"","type":"bool"}],"stateMutability":"nonpayable","type":"function"},{"inputs":[{"internalType":"address","name":"from","type":"address"},{"internalType":"address","name":"to","type":"address"},{"internalType":"uint256","name":"value","type":"uint256"}],"name":"transferFrom","outputs":[{"internalType":"bool","name":"","type":"bool"}],"stateMutability":"nonpayable","type":"function"},{"inputs":[{"internalType":"address","name":"newOwner","type":"address"}],"name":"transferOwnership","outputs":[],"stateMutability":"nonpayable","type":"function"},{"inputs":[],"name":"tryfunction","outputs":[{"internalType":"uint256","name":"","type":"uint256"}],"stateMutability":"nonpayable","type":"function"},{"inputs":[{"internalType":"uint256","name":"assets","type":"uint256"},{"internalType":"address","name":"receiver","type":"address"},{"internalType":"address","name":"owner","type":"address"}],"name":"withdraw","outputs":[{"internalType":"uint256","name":"shares","type":"uint256"}],"stateMutability":"nonpayable","type":"function"}],"evm":{"bytecode":{"linkReferences":{},"object":"60e06040523480156200001157600080fd5b50604051620021e5380380620021e5833981016040819052620000349162000251565b3381604051806040016040528060048152602001630aa88caf60e31b815250604051806040016040528060038152602001620aa88b60eb1b815250816003908162000080919062000328565b5060046200008f828262000328565b505050600080620000a6836200011a60201b60201c565b9150915081620000b8576012620000ba565b805b60ff1660a05250506001600160a01b039081166080528116620000f757604051631e4fbdf760e01b81526000600482015260240160405180910390fd5b6200010281620001ff565b5060016006556001600160a01b031660c0526200043f565b60408051600481526024810182526020810180516001600160e01b031663313ce56760e01b17905290516000918291829182916001600160a01b038716916200016391620003f4565b600060405180830381855afa9150503d8060008114620001a0576040519150601f19603f3d011682016040523d82523d6000602084013e620001a5565b606091505b5091509150818015620001ba57506020815110155b15620001f257600081806020019051810190620001d8919062000425565b905060ff8111620001f0576001969095509350505050565b505b5060009485945092505050565b600580546001600160a01b038381166001600160a01b0319831681179093556040519116919082907f8be0079c531659141344cd1fd0a4f28419497f9722a3daafe3b4186f6b6457e090600090a35050565b6000602082840312156200026457600080fd5b81516001600160a01b03811681146200027c57600080fd5b9392505050565b634e487b7160e01b600052604160045260246000fd5b600181811c90821680620002ae57607f821691505b602082108103620002cf57634e487b7160e01b600052602260045260246000fd5b50919050565b601f8211156200032357600081815260208120601f850160051c81016020861015620002fe5750805b601f850160051c820191505b818110156200031f578281556001016200030a565b5050505b505050565b81516001600160401b0381111562000344576200034462000283565b6200035c8162000355845462000299565b84620002d5565b602080601f8311600181146200039457600084156200037b5750858301515b600019600386901b1c1916600185901b1785556200031f565b600085815260208120601f198616915b82811015620003c557888601518255948401946001909101908401620003a4565b5085821015620003e45787850151600019600388901b60f8161c191681555b5050505050600190811b01905550565b6000825160005b81811015620004175760208186018101518583015201620003fb565b506000920191825250919050565b6000602082840312156200043857600080fd5b5051919050565b60805160a05160c051611d5a6200048b600039600081816104030152610a99015260006107dc01526000818161036201528181610c410152818161138701526114390152611d5a6000f3fe608060405234801561001057600080fd5b50600436106102325760003560e01c8063798cd94c11610130578063c63d75b6116100b8578063dd5b2f521161007c578063dd5b2f52146104f1578063dd62ed3e146104fa578063e757223014610533578063ef8b30f7146104a5578063f2fde38b1461054457600080fd5b8063c63d75b61461039a578063c6e6f592146104a5578063ce96cb77146104b8578063d4d5c230146104cb578063d905777e146104de57600080fd5b80639f006651116100ff5780639f00665114610451578063a9059cbb14610459578063b3d7f6b91461046c578063b460af941461047f578063ba0876521461049257600080fd5b8063798cd94c146103fe5780638da5cb5b1461042557806394bf804d1461043657806395d89b411461044957600080fd5b806323b872dd116101be578063403f8ba111610182578063403f8ba1146103af5780634cdad506146102705780636e553f65146103b857806370a08231146103cb578063715018a6146103f457600080fd5b806323b872dd1461032b5780632bdb4e731461033e578063313ce5671461034657806338d52e0f14610360578063402d267d1461039a57600080fd5b8063095ea7b311610205578063095ea7b3146102835780630a28a477146102a6578063169fffe2146102b957806316c19739146102cc57806318160ddd1461032357600080fd5b806301e1d114146102375780630258d92a1461025257806306fdde031461025b57806307a2d13a14610270575b600080fd5b61023f610557565b6040519081526020015b60405180910390f35b61023f600e5481565b6102636105c4565b6040516102499190611839565b61023f61027e36600461186c565b610656565b6102966102913660046118a1565b610669565b6040519015158152602001610249565b61023f6102b436600461186c565b610681565b61023f6102c73660046118cb565b61068e565b6102df6102da3660046118ed565b6106a5565b6040516102499190600060a0820190508251825260208301516020830152604083015160408301526060830151151560608301526080830151608083015292915050565b60025461023f565b610296610339366004611908565b6107ae565b61023f600f81565b61034e6107d4565b60405160ff9091168152602001610249565b7f00000000000000000000000000000000000000000000000000000000000000005b6040516001600160a01b039091168152602001610249565b61023f6103a83660046118ed565b5060001990565b6201e24061023f565b61023f6103c6366004611944565b610805565b61023f6103d93660046118ed565b6001600160a01b031660009081526020819052604090205490565b6103fc61083d565b005b6103827f000000000000000000000000000000000000000000000000000000000000000081565b6005546001600160a01b0316610382565b61023f610444366004611944565b610851565b610263610888565b61023f610897565b6102966104673660046118a1565b61091d565b61023f61047a36600461186c565b61092b565b61023f61048d366004611970565b610938565b61023f6104a0366004611970565b610971565b61023f6104b336600461186c565b6109a9565b61023f6104c63660046118ed565b6109b6565b6103fc6104d93660046119ba565b6109da565b61023f6104ec3660046118ed565b610b9e565b61023f600c5481565b61023f6105083660046119fb565b6001600160a01b03918216600090815260016020908152604080832093909416825291909152205490565b61023f61054136600461186c565b90565b6103fc6105523660046118ed565b610bbc565b600080610562610897565b9050600081131561059b57600c5461057982610bff565b610581610c29565b61058b9190611a3b565b6105959190611a3b565b91505090565b6105a481611a4e565b9050600c546105b282610bff565b6105ba610c29565b61058b9190611a6a565b6060600380546105d390611a7d565b80601f01602080910402602001604051908101604052809291908181526020018280546105ff90611a7d565b801561064c5780601f106106215761010080835404028352916020019161064c565b820191906000526020600020905b81548152906001019060200180831161062f57829003601f168201915b5050505050905090565b6000610663826000610cb4565b92915050565b600033610677818585610cee565b5060019392505050565b6000610663826001610d00565b6000818161069c8583611ab7565b95945050505050565b6106d96040518060a00160405280600081526020016000815260200160008152602001600015158152602001600081525090565b6001600160a01b0382166000908152600b60209081526040808320815160a0810183528154808252600183015494820194909452600282015492810192909252600381015460ff1615156060830152600401546080820152910361075057604051632f4cb18560e21b815260040160405180910390fd5b50506001600160a01b03166000908152600b6020908152604091829020825160a08101845281548152600182015492810192909252600281015492820192909252600382015460ff1615156060820152600490910154608082015290565b6000336107bc858285610d30565b6107c7858585610d9b565b60019150505b9392505050565b6000610800817f0000000000000000000000000000000000000000000000000000000000000000611ace565b905090565b600061080f610dfa565b600083600e5461081f9190611a6a565b905061082b8484610e24565b600e9190915590506106636001600655565b610845610e4a565b61084f6000610e77565b565b600061085b610dfa565b6108658383610ec9565b905080600e60008282546108799190611a6a565b90915550506001600655610663565b6060600480546105d390611a7d565b6000806108a8600760000154610ee7565b6108c06108bb600760010154600161068e565b610ee7565b6108ca9190611ae7565b905060006108e16108bb600960010154600161068e565b6009546108ed90610ee7565b6108f79190611ae7565b9050670de0b6b3a764000061090c8383611b0e565b6109169190611b44565b9250505090565b600033610677818585610d9b565b6000610663826001610cb4565b6000610942610dfa565b600084600e546109529190611a3b565b905061095f858585610f14565b600e9190915590506107cd6001600655565b600061097b610dfa565b610986848484610f63565b905080600e600082825461099a9190611a3b565b909155505060016006556107cd565b6000610663826000610d00565b6001600160a01b038116600090815260208190526040812054610663906000610cb4565b600083116109fb57604051637b92cb4360e01b815260040160405180910390fd5b60008411610a1c5760405163062a73c560e41b815260040160405180910390fd5b336000908152600b602052604090205415610a4a57604051630c7b567d60e31b815260040160405180910390fd5b60006040518060a001604052808581526020018481526020018487610a6f9190611b72565b81526020018315158152602001428152509050610a8c8184610fb2565b610ac16001600160a01b037f000000000000000000000000000000000000000000000000000000000000000016333087611067565b8051600c8054600090610ad5908490611a6a565b9091555050336000908152600b6020908152604091829020835181559083015160018201559082015160028201819055606083015160038301805460ff19169115159190911790556080830151600490920191909155610b37908690846110ce565b606081810151604080840151602080860151835194151585529084018a9052838301899052938301526080820192909252905133917f0e8f4b81343afa64bc4ddcfbf2d80e883e0ddfc6663c400ca09da13d1d28d588919081900360a00190a25050505050565b6001600160a01b038116600090815260208190526040812054610663565b610bc4610e4a565b6001600160a01b038116610bf357604051631e4fbdf760e01b8152600060048201526024015b60405180910390fd5b610bfc81610e77565b50565b600080821215610c2557604051635467221960e11b815260048101839052602401610bea565b5090565b6040516370a0823160e01b81523060048201526000907f00000000000000000000000000000000000000000000000000000000000000006001600160a01b0316906370a0823190602401602060405180830381865afa158015610c90573d6000803e3d6000fd5b505050506040513d601f19601f820116820180604052508101906108009190611b86565b60006107cd610cc1610557565b610ccc906001611a6a565b610cd86000600a611c83565b600254610ce59190611a6a565b85919085611147565b610cfb8383836001611196565b505050565b60006107cd610d1082600a611c83565b600254610d1d9190611a6a565b610d25610557565b610ce5906001611a6a565b6001600160a01b038381166000908152600160209081526040808320938616835292905220546000198114610d955781811015610d8657828183604051637dc7a0d960e11b8152600401610bea93929190611c92565b610d9584848484036000611196565b50505050565b6001600160a01b038316610dc557604051634b637e8f60e11b815260006004820152602401610bea565b6001600160a01b038216610def5760405163ec442f0560e01b815260006004820152602401610bea565b610cfb83838361126b565b600260065403610e1d57604051633ee5aeb560e01b815260040160405180910390fd5b6002600655565b60006000196000610e34856109a9565b9050610e4233858784611382565b949350505050565b6005546001600160a01b0316331461084f5760405163118cdaa760e01b8152336004820152602401610bea565b600580546001600160a01b038381166001600160a01b0319831681179093556040519116919082907f8be0079c531659141344cd1fd0a4f28419497f9722a3daafe3b4186f6b6457e090600090a35050565b60006000196000610ed98561092b565b9050610e4233858388611382565b60006001600160ff1b03821115610c255760405163123baf0360e11b815260048101839052602401610bea565b600080610f20836109b6565b905080851115610f4957828582604051633fa733bb60e21b8152600401610bea93929190611c92565b6000610f5486610681565b905061069c3386868985611406565b600080610f6f83610b9e565b905080851115610f9857828582604051632e52afbb60e21b8152600401610bea93929190611c92565b6000610fa386610656565b905061069c338686848a611406565b6000610fbe83836114c6565b9050600081610fd08560000151610ee7565b610fda9190611b0e565b13610ff8576040516327ad135d60e11b815260040160405180910390fd5b600061101a8261100b8660000151610ee7565b6110159190611b0e565b610bff565b9050600081856020015186604001516110339190611ab7565b61103d9190611b72565b9050600f811061106057604051633e5ff32760e21b815260040160405180910390fd5b5050505050565b6040516001600160a01b038481166024830152838116604483015260648201839052610d959186918216906323b872dd906084015b604051602081830303815290604052915060e01b6020820180516001600160e01b038381831617835250505050611528565b801561110e5782600760000160008282546110e99190611a6a565b909155505060088054839190600090611103908490611a6a565b90915550610cfb9050565b82600960000160008282546111239190611a6a565b9091555050600a805483919060009061113d908490611a6a565b9091555050505050565b60008061115586868661158b565b90506111608361164f565b801561117c57506000848061117757611177611b2e565b868809115b1561069c5761118c600182611a6a565b9695505050505050565b6001600160a01b0384166111c05760405163e602df0560e01b815260006004820152602401610bea565b6001600160a01b0383166111ea57604051634a1406b160e11b815260006004820152602401610bea565b6001600160a01b0380851660009081526001602090815260408083209387168352929052208290558015610d9557826001600160a01b0316846001600160a01b03167f8c5be1e5ebec7d5bd14f71427d1e84f3dd0314c0f7b2291e5b200ac8c7c3b9258460405161125d91815260200190565b60405180910390a350505050565b6001600160a01b03831661129657806002600082825461128b9190611a6a565b909155506112f59050565b6001600160a01b038316600090815260208190526040902054818110156112d65783818360405163391434e360e21b8152600401610bea93929190611c92565b6001600160a01b03841660009081526020819052604090209082900390555b6001600160a01b03821661131157600280548290039055611330565b6001600160a01b03821660009081526020819052604090208054820190555b816001600160a01b0316836001600160a01b03167fddf252ad1be2c89b69c2b068fc378daa952ba7f163c4a11628f55a4df523b3ef8360405161137591815260200190565b60405180910390a3505050565b6113ae7f0000000000000000000000000000000000000000000000000000000000000000853085611067565b6113b8838261167c565b826001600160a01b0316846001600160a01b03167fdcbc1c05240f31ff3ad067ef1ee35ce4997762752e3a095284754544f4c709d7848460405161125d929190918252602082015260400190565b826001600160a01b0316856001600160a01b03161461142a5761142a838683610d30565b61143483826116b6565b61145f7f000000000000000000000000000000000000000000000000000000000000000085846116ec565b826001600160a01b0316846001600160a01b0316866001600160a01b03167ffbde797d201c681b91056529119e0b02407c7bb96a4a2c75c01fc9667232c8db85856040516114b7929190918252602082015260400190565b60405180910390a45050505050565b6000806114dc8385604001516108bb9190611ab7565b905060006114f7856020015186604001516108bb9190611ab7565b90508460600151156115165761150d8183611ae7565b92505050610663565b61150d8282611ae7565b505092915050565b600061153d6001600160a01b0384168361171d565b905080516000141580156115625750808060200190518101906115609190611cb3565b155b15610cfb57604051635274afe760e01b81526001600160a01b0384166004820152602401610bea565b60008383028160001985870982811083820303915050806000036115c2578382816115b8576115b8611b2e565b04925050506107cd565b8084116115e25760405163227bc15360e01b815260040160405180910390fd5b6000848688096000868103871696879004966002600389028118808a02820302808a02820302808a02820302808a02820302808a02820302808a02909103029181900381900460010186841190950394909402919094039290920491909117919091029150509392505050565b6000600282600381111561166557611665611cd0565b61166f9190611ce6565b60ff166001149050919050565b6001600160a01b0382166116a65760405163ec442f0560e01b815260006004820152602401610bea565b6116b26000838361126b565b5050565b6001600160a01b0382166116e057604051634b637e8f60e11b815260006004820152602401610bea565b6116b28260008361126b565b6040516001600160a01b03838116602483015260448201839052610cfb91859182169063a9059cbb9060640161109c565b60606107cd8383600084600080856001600160a01b031684866040516117439190611d08565b60006040518083038185875af1925050503d8060008114611780576040519150601f19603f3d011682016040523d82523d6000602084013e611785565b606091505b509150915061118c8683836060826117a5576117a0826117ec565b6107cd565b81511580156117bc57506001600160a01b0384163b155b156117e557604051639996b31560e01b81526001600160a01b0385166004820152602401610bea565b50806107cd565b8051156117fc5780518082602001fd5b604051630a12f52160e11b815260040160405180910390fd5b60005b83811015611830578181015183820152602001611818565b50506000910152565b6020815260008251806020840152611858816040850160208701611815565b601f01601f19169190910160400192915050565b60006020828403121561187e57600080fd5b5035919050565b80356001600160a01b038116811461189c57600080fd5b919050565b600080604083850312156118b457600080fd5b6118bd83611885565b946020939093013593505050565b600080604083850312156118de57600080fd5b50508035926020909101359150565b6000602082840312156118ff57600080fd5b6107cd82611885565b60008060006060848603121561191d57600080fd5b61192684611885565b925061193460208501611885565b9150604084013590509250925092565b6000806040838503121561195757600080fd5b8235915061196760208401611885565b90509250929050565b60008060006060848603121561198557600080fd5b8335925061199560208501611885565b91506119a360408501611885565b90509250925092565b8015158114610bfc57600080fd5b600080600080608085870312156119d057600080fd5b84359350602085013592506040850135915060608501356119f0816119ac565b939692955090935050565b60008060408385031215611a0e57600080fd5b611a1783611885565b915061196760208401611885565b634e487b7160e01b600052601160045260246000fd5b8181038181111561066357610663611a25565b6000600160ff1b8201611a6357611a63611a25565b5060000390565b8082018082111561066357610663611a25565b600181811c90821680611a9157607f821691505b602082108103611ab157634e487b7160e01b600052602260045260246000fd5b50919050565b808202811582820484141761066357610663611a25565b60ff818116838216019081111561066357610663611a25565b8181036000831280158383131683831282161715611b0757611b07611a25565b5092915050565b808201828112600083128015821682158216171561152057611520611a25565b634e487b7160e01b600052601260045260246000fd5b600082611b5357611b53611b2e565b600160ff1b821460001984141615611b6d57611b6d611a25565b500590565b600082611b8157611b81611b2e565b500490565b600060208284031215611b9857600080fd5b5051919050565b600181815b80851115611bda578160001904821115611bc057611bc0611a25565b80851615611bcd57918102915b93841c9390800290611ba4565b509250929050565b600082611bf157506001610663565b81611bfe57506000610663565b8160018114611c145760028114611c1e57611c3a565b6001915050610663565b60ff841115611c2f57611c2f611a25565b50506001821b610663565b5060208310610133831016604e8410600b8410161715611c5d575081810a610663565b611c678383611b9f565b8060001904821115611c7b57611c7b611a25565b029392505050565b60006107cd60ff841683611be2565b6001600160a01b039390931683526020830191909152604082015260600190565b600060208284031215611cc557600080fd5b81516107cd816119ac565b634e487b7160e01b600052602160045260246000fd5b600060ff831680611cf957611cf9611b2e565b8060ff84160691505092915050565b60008251611d1a818460208701611815565b919091019291505056fea2646970667358221220f0533e52a22ccc5c96dfd9de79d0b388278b1ed766a7412607d51e17142d846964736f6c63430008140033","opcodes":"PUSH1 0xE0 PUSH1 0x40 MSTORE CALLVALUE DUP1 ISZERO PUSH3 0x11 JUMPI PUSH1 0x0 DUP1 REVERT JUMPDEST POP PUSH1 0x40 MLOAD PUSH3 0x21E5 CODESIZE SUB DUP1 PUSH3 0x21E5 DUP4 CODECOPY DUP2 ADD PUSH1 0x40 DUP2 SWAP1 MSTORE PUSH3 0x34 SWAP2 PUSH3 0x251 JUMP JUMPDEST CALLER DUP2 PUSH1 0x40 MLOAD DUP1 PUSH1 0x40 ADD PUSH1 0x40 MSTORE DUP1 PUSH1 0x4 DUP2 MSTORE PUSH1 0x20 ADD PUSH4 0xAA88CAF PUSH1 0xE3 SHL DUP2 MSTORE POP PUSH1 0x40 MLOAD DUP1 PUSH1 0x40 ADD PUSH1 0x40 MSTORE DUP1 PUSH1 0x3 DUP2 MSTORE PUSH1 0x20 ADD PUSH3 0xAA88B PUSH1 0xEB SHL DUP2 MSTORE POP DUP2 PUSH1 0x3 SWAP1 DUP2 PUSH3 0x80 SWAP2 SWAP1 PUSH3 0x328 JUMP JUMPDEST POP PUSH1 0x4 PUSH3 0x8F DUP3 DUP3 PUSH3 0x328 JUMP JUMPDEST POP POP POP PUSH1 0x0 DUP1 PUSH3 0xA6 DUP4 PUSH3 0x11A PUSH1 0x20 SHL PUSH1 0x20 SHR JUMP JUMPDEST SWAP2 POP SWAP2 POP DUP2 PUSH3 0xB8 JUMPI PUSH1 0x12 PUSH3 0xBA JUMP JUMPDEST DUP1 JUMPDEST PUSH1 0xFF AND PUSH1 0xA0 MSTORE POP POP PUSH1 0x1 PUSH1 0x1 PUSH1 0xA0 SHL SUB SWAP1 DUP2 AND PUSH1 0x80 MSTORE DUP2 AND PUSH3 0xF7 JUMPI PUSH1 0x40 MLOAD PUSH4 0x1E4FBDF7 PUSH1 0xE0 SHL DUP2 MSTORE PUSH1 0x0 PUSH1 0x4 DUP3 ADD MSTORE PUSH1 0x24 ADD PUSH1 0x40 MLOAD DUP1 SWAP2 SUB SWAP1 REVERT JUMPDEST PUSH3 0x102 DUP2 PUSH3 0x1FF JUMP JUMPDEST POP PUSH1 0x1 PUSH1 0x6 SSTORE PUSH1 0x1 PUSH1 0x1 PUSH1 0xA0 SHL SUB AND PUSH1 0xC0 MSTORE PUSH3 0x43F JUMP JUMPDEST PUSH1 0x40 DUP1 MLOAD PUSH1 0x4 DUP2 MSTORE PUSH1 0x24 DUP2 ADD DUP3 MSTORE PUSH1 0x20 DUP2 ADD DUP1 MLOAD PUSH1 0x1 PUSH1 0x1 PUSH1 0xE0 SHL SUB AND PUSH4 0x313CE567 PUSH1 0xE0 SHL OR SWAP1 MSTORE SWAP1 MLOAD PUSH1 0x0 SWAP2 DUP3 SWAP2 DUP3 SWAP2 DUP3 SWAP2 PUSH1 0x1 PUSH1 0x1 PUSH1 0xA0 SHL SUB DUP8 AND SWAP2 PUSH3 0x163 SWAP2 PUSH3 0x3F4 JUMP JUMPDEST PUSH1 0x0 PUSH1 0x40 MLOAD DUP1 DUP4 SUB DUP2 DUP6 GAS STATICCALL SWAP2 POP POP RETURNDATASIZE DUP1 PUSH1 0x0 DUP2 EQ PUSH3 0x1A0 JUMPI PUSH1 0x40 MLOAD SWAP2 POP PUSH1 0x1F NOT PUSH1 0x3F RETURNDATASIZE ADD AND DUP3 ADD PUSH1 0x40 MSTORE RETURNDATASIZE DUP3 MSTORE RETURNDATASIZE PUSH1 0x0 PUSH1 0x20 DUP5 ADD RETURNDATACOPY PUSH3 0x1A5 JUMP JUMPDEST PUSH1 0x60 SWAP2 POP JUMPDEST POP SWAP2 POP SWAP2 POP DUP2 DUP1 ISZERO PUSH3 0x1BA JUMPI POP PUSH1 0x20 DUP2 MLOAD LT ISZERO JUMPDEST ISZERO PUSH3 0x1F2 JUMPI PUSH1 0x0 DUP2 DUP1 PUSH1 0x20 ADD SWAP1 MLOAD DUP2 ADD SWAP1 PUSH3 0x1D8 SWAP2 SWAP1 PUSH3 0x425 JUMP JUMPDEST SWAP1 POP PUSH1 0xFF DUP2 GT PUSH3 0x1F0 JUMPI PUSH1 0x1 SWAP7 SWAP1 SWAP6 POP SWAP4 POP POP POP POP JUMP JUMPDEST POP JUMPDEST POP PUSH1 0x0 SWAP5 DUP6 SWAP5 POP SWAP3 POP POP POP JUMP JUMPDEST PUSH1 0x5 DUP1 SLOAD PUSH1 0x1 PUSH1 0x1 PUSH1 0xA0 SHL SUB DUP4 DUP2 AND PUSH1 0x1 PUSH1 0x1 PUSH1 0xA0 SHL SUB NOT DUP4 AND DUP2 OR SWAP1 SWAP4 SSTORE PUSH1 0x40 MLOAD SWAP2 AND SWAP2 SWAP1 DUP3 SWAP1 PUSH32 0x8BE0079C531659141344CD1FD0A4F28419497F9722A3DAAFE3B4186F6B6457E0 SWAP1 PUSH1 0x0 SWAP1 LOG3 POP POP JUMP JUMPDEST PUSH1 0x0 PUSH1 0x20 DUP3 DUP5 SUB SLT ISZERO PUSH3 0x264 JUMPI PUSH1 0x0 DUP1 REVERT JUMPDEST DUP2 MLOAD PUSH1 0x1 PUSH1 0x1 PUSH1 0xA0 SHL SUB DUP2 AND DUP2 EQ PUSH3 0x27C JUMPI PUSH1 0x0 DUP1 REVERT JUMPDEST SWAP4 SWAP3 POP POP POP JUMP JUMPDEST PUSH4 0x4E487B71 PUSH1 0xE0 SHL PUSH1 0x0 MSTORE PUSH1 0x41 PUSH1 0x4 MSTORE PUSH1 0x24 PUSH1 0x0 REVERT JUMPDEST PUSH1 0x1 DUP2 DUP2 SHR SWAP1 DUP3 AND DUP1 PUSH3 0x2AE JUMPI PUSH1 0x7F DUP3 AND SWAP2 POP JUMPDEST PUSH1 0x20 DUP3 LT DUP2 SUB PUSH3 0x2CF JUMPI PUSH4 0x4E487B71 PUSH1 0xE0 SHL PUSH1 0x0 MSTORE PUSH1 0x22 PUSH1 0x4 MSTORE PUSH1 0x24 PUSH1 0x0 REVERT JUMPDEST POP SWAP2 SWAP1 POP JUMP JUMPDEST PUSH1 0x1F DUP3 GT ISZERO PUSH3 0x323 JUMPI PUSH1 0x0 DUP2 DUP2 MSTORE PUSH1 0x20 DUP2 KECCAK256 PUSH1 0x1F DUP6 ADD PUSH1 0x5 SHR DUP2 ADD PUSH1 0x20 DUP7 LT ISZERO PUSH3 0x2FE JUMPI POP DUP1 JUMPDEST PUSH1 0x1F DUP6 ADD PUSH1 0x5 SHR DUP3 ADD SWAP2 POP JUMPDEST DUP2 DUP2 LT ISZERO PUSH3 0x31F JUMPI DUP3 DUP2 SSTORE PUSH1 0x1 ADD PUSH3 0x30A JUMP JUMPDEST POP POP POP JUMPDEST POP POP POP JUMP JUMPDEST DUP2 MLOAD PUSH1 0x1 PUSH1 0x1 PUSH1 0x40 SHL SUB DUP2 GT ISZERO PUSH3 0x344 JUMPI PUSH3 0x344 PUSH3 0x283 JUMP JUMPDEST PUSH3 0x35C DUP2 PUSH3 0x355 DUP5 SLOAD PUSH3 0x299 JUMP JUMPDEST DUP5 PUSH3 0x2D5 JUMP JUMPDEST PUSH1 0x20 DUP1 PUSH1 0x1F DUP4 GT PUSH1 0x1 DUP2 EQ PUSH3 0x394 JUMPI PUSH1 0x0 DUP5 ISZERO PUSH3 0x37B JUMPI POP DUP6 DUP4 ADD MLOAD JUMPDEST PUSH1 0x0 NOT PUSH1 0x3 DUP7 SWAP1 SHL SHR NOT AND PUSH1 0x1 DUP6 SWAP1 SHL OR DUP6 SSTORE PUSH3 0x31F JUMP JUMPDEST PUSH1 0x0 DUP6 DUP2 MSTORE PUSH1 0x20 DUP2 KECCAK256 PUSH1 0x1F NOT DUP7 AND SWAP2 JUMPDEST DUP3 DUP2 LT ISZERO PUSH3 0x3C5 JUMPI DUP9 DUP7 ADD MLOAD DUP3 SSTORE SWAP5 DUP5 ADD SWAP5 PUSH1 0x1 SWAP1 SWAP2 ADD SWAP1 DUP5 ADD PUSH3 0x3A4 JUMP JUMPDEST POP DUP6 DUP3 LT ISZERO PUSH3 0x3E4 JUMPI DUP8 DUP6 ADD MLOAD PUSH1 0x0 NOT PUSH1 0x3 DUP9 SWAP1 SHL PUSH1 0xF8 AND SHR NOT AND DUP2 SSTORE JUMPDEST POP POP POP POP POP PUSH1 0x1 SWAP1 DUP2 SHL ADD SWAP1 SSTORE POP JUMP JUMPDEST PUSH1 0x0 DUP3 MLOAD PUSH1 0x0 JUMPDEST DUP2 DUP2 LT ISZERO PUSH3 0x417 JUMPI PUSH1 0x20 DUP2 DUP7 ADD DUP2 ADD MLOAD DUP6 DUP4 ADD MSTORE ADD PUSH3 0x3FB JUMP JUMPDEST POP PUSH1 0x0 SWAP3 ADD SWAP2 DUP3 MSTORE POP SWAP2 SWAP1 POP JUMP JUMPDEST PUSH1 0x0 PUSH1 0x20 DUP3 DUP5 SUB SLT ISZERO PUSH3 0x438 JUMPI PUSH1 0x0 DUP1 REVERT JUMPDEST POP MLOAD SWAP2 SWAP1 POP JUMP JUMPDEST PUSH1 0x80 MLOAD PUSH1 0xA0 MLOAD PUSH1 0xC0 MLOAD PUSH2 0x1D5A PUSH3 0x48B PUSH1 0x0 CODECOPY PUSH1 0x0 DUP2 DUP2 PUSH2 0x403 ADD MSTORE PUSH2 0xA99 ADD MSTORE PUSH1 0x0 PUSH2 0x7DC ADD MSTORE PUSH1 0x0 DUP2 DUP2 PUSH2 0x362 ADD MSTORE DUP2 DUP2 PUSH2 0xC41 ADD MSTORE DUP2 DUP2 PUSH2 0x1387 ADD MSTORE PUSH2 0x1439 ADD MSTORE PUSH2 0x1D5A PUSH1 0x0 RETURN INVALID PUSH1 0x80 PUSH1 0x40 MSTORE CALLVALUE DUP1 ISZERO PUSH2 0x10 JUMPI PUSH1 0x0 DUP1 REVERT JUMPDEST POP PUSH1 0x4 CALLDATASIZE LT PUSH2 0x232 JUMPI PUSH1 0x0 CALLDATALOAD PUSH1 0xE0 SHR DUP1 PUSH4 0x798CD94C GT PUSH2 0x130 JUMPI DUP1 PUSH4 0xC63D75B6 GT PUSH2 0xB8 JUMPI DUP1 PUSH4 0xDD5B2F52 GT PUSH2 0x7C JUMPI DUP1 PUSH4 0xDD5B2F52 EQ PUSH2 0x4F1 JUMPI DUP1 PUSH4 0xDD62ED3E EQ PUSH2 0x4FA JUMPI DUP1 PUSH4 0xE7572230 EQ PUSH2 0x533 JUMPI DUP1 PUSH4 0xEF8B30F7 EQ PUSH2 0x4A5 JUMPI DUP1 PUSH4 0xF2FDE38B EQ PUSH2 0x544 JUMPI PUSH1 0x0 DUP1 REVERT JUMPDEST DUP1 PUSH4 0xC63D75B6 EQ PUSH2 0x39A JUMPI DUP1 PUSH4 0xC6E6F592 EQ PUSH2 0x4A5 JUMPI DUP1 PUSH4 0xCE96CB77 EQ PUSH2 0x4B8 JUMPI DUP1 PUSH4 0xD4D5C230 EQ PUSH2 0x4CB JUMPI DUP1 PUSH4 0xD905777E EQ PUSH2 0x4DE JUMPI PUSH1 0x0 DUP1 REVERT JUMPDEST DUP1 PUSH4 0x9F006651 GT PUSH2 0xFF JUMPI DUP1 PUSH4 0x9F006651 EQ PUSH2 0x451 JUMPI DUP1 PUSH4 0xA9059CBB EQ PUSH2 0x459 JUMPI DUP1 PUSH4 0xB3D7F6B9 EQ PUSH2 0x46C JUMPI DUP1 PUSH4 0xB460AF94 EQ PUSH2 0x47F JUMPI DUP1 PUSH4 0xBA087652 EQ PUSH2 0x492 JUMPI PUSH1 0x0 DUP1 REVERT JUMPDEST DUP1 PUSH4 0x798CD94C EQ PUSH2 0x3FE JUMPI DUP1 PUSH4 0x8DA5CB5B EQ PUSH2 0x425 JUMPI DUP1 PUSH4 0x94BF804D EQ PUSH2 0x436 JUMPI DUP1 PUSH4 0x95D89B41 EQ PUSH2 0x449 JUMPI PUSH1 0x0 DUP1 REVERT JUMPDEST DUP1 PUSH4 0x23B872DD GT PUSH2 0x1BE JUMPI DUP1 PUSH4 0x403F8BA1 GT PUSH2 0x182 JUMPI DUP1 PUSH4 0x403F8BA1 EQ PUSH2 0x3AF JUMPI DUP1 PUSH4 0x4CDAD506 EQ PUSH2 0x270 JUMPI DUP1 PUSH4 0x6E553F65 EQ PUSH2 0x3B8 JUMPI DUP1 PUSH4 0x70A08231 EQ PUSH2 0x3CB JUMPI DUP1 PUSH4 0x715018A6 EQ PUSH2 0x3F4 JUMPI PUSH1 0x0 DUP1 REVERT JUMPDEST DUP1 PUSH4 0x23B872DD EQ PUSH2 0x32B JUMPI DUP1 PUSH4 0x2BDB4E73 EQ PUSH2 0x33E JUMPI DUP1 PUSH4 0x313CE567 EQ PUSH2 0x346 JUMPI DUP1 PUSH4 0x38D52E0F EQ PUSH2 0x360 JUMPI DUP1 PUSH4 0x402D267D EQ PUSH2 0x39A JUMPI PUSH1 0x0 DUP1 REVERT JUMPDEST DUP1 PUSH4 0x95EA7B3 GT PUSH2 0x205 JUMPI DUP1 PUSH4 0x95EA7B3 EQ PUSH2 0x283 JUMPI DUP1 PUSH4 0xA28A477 EQ PUSH2 0x2A6 JUMPI DUP1 PUSH4 0x169FFFE2 EQ PUSH2 0x2B9 JUMPI DUP1 PUSH4 0x16C19739 EQ PUSH2 0x2CC JUMPI DUP1 PUSH4 0x18160DDD EQ PUSH2 0x323 JUMPI PUSH1 0x0 DUP1 REVERT JUMPDEST DUP1 PUSH4 0x1E1D114 EQ PUSH2 0x237 JUMPI DUP1 PUSH4 0x258D92A EQ PUSH2 0x252 JUMPI DUP1 PUSH4 0x6FDDE03 EQ PUSH2 0x25B JUMPI DUP1 PUSH4 0x7A2D13A EQ PUSH2 0x270 JUMPI JUMPDEST PUSH1 0x0 DUP1 REVERT JUMPDEST PUSH2 0x23F PUSH2 0x557 JUMP JUMPDEST PUSH1 0x40 MLOAD SWAP1 DUP2 MSTORE PUSH1 0x20 ADD JUMPDEST PUSH1 0x40 MLOAD DUP1 SWAP2 SUB SWAP1 RETURN JUMPDEST PUSH2 0x23F PUSH1 0xE SLOAD DUP2 JUMP JUMPDEST PUSH2 0x263 PUSH2 0x5C4 JUMP JUMPDEST PUSH1 0x40 MLOAD PUSH2 0x249 SWAP2 SWAP1 PUSH2 0x1839 JUMP JUMPDEST PUSH2 0x23F PUSH2 0x27E CALLDATASIZE PUSH1 0x4 PUSH2 0x186C JUMP JUMPDEST PUSH2 0x656 JUMP JUMPDEST PUSH2 0x296 PUSH2 0x291 CALLDATASIZE PUSH1 0x4 PUSH2 0x18A1 JUMP JUMPDEST PUSH2 0x669 JUMP JUMPDEST PUSH1 0x40 MLOAD SWAP1 ISZERO ISZERO DUP2 MSTORE PUSH1 0x20 ADD PUSH2 0x249 JUMP JUMPDEST PUSH2 0x23F PUSH2 0x2B4 CALLDATASIZE PUSH1 0x4 PUSH2 0x186C JUMP JUMPDEST PUSH2 0x681 JUMP JUMPDEST PUSH2 0x23F PUSH2 0x2C7 CALLDATASIZE PUSH1 0x4 PUSH2 0x18CB JUMP JUMPDEST PUSH2 0x68E JUMP JUMPDEST PUSH2 0x2DF PUSH2 0x2DA CALLDATASIZE PUSH1 0x4 PUSH2 0x18ED JUMP JUMPDEST PUSH2 0x6A5 JUMP JUMPDEST PUSH1 0x40 MLOAD PUSH2 0x249 SWAP2 SWAP1 PUSH1 0x0 PUSH1 0xA0 DUP3 ADD SWAP1 POP DUP3 MLOAD DUP3 MSTORE PUSH1 0x20 DUP4 ADD MLOAD PUSH1 0x20 DUP4 ADD MSTORE PUSH1 0x40 DUP4 ADD MLOAD PUSH1 0x40 DUP4 ADD MSTORE PUSH1 0x60 DUP4 ADD MLOAD ISZERO ISZERO PUSH1 0x60 DUP4 ADD MSTORE PUSH1 0x80 DUP4 ADD MLOAD PUSH1 0x80 DUP4 ADD MSTORE SWAP3 SWAP2 POP POP JUMP JUMPDEST PUSH1 0x2 SLOAD PUSH2 0x23F JUMP JUMPDEST PUSH2 0x296 PUSH2 0x339 CALLDATASIZE PUSH1 0x4 PUSH2 0x1908 JUMP JUMPDEST PUSH2 0x7AE JUMP JUMPDEST PUSH2 0x23F PUSH1 0xF DUP2 JUMP JUMPDEST PUSH2 0x34E PUSH2 0x7D4 JUMP JUMPDEST PUSH1 0x40 MLOAD PUSH1 0xFF SWAP1 SWAP2 AND DUP2 MSTORE PUSH1 0x20 ADD PUSH2 0x249 JUMP JUMPDEST PUSH32 0x0 JUMPDEST PUSH1 0x40 MLOAD PUSH1 0x1 PUSH1 0x1 PUSH1 0xA0 SHL SUB SWAP1 SWAP2 AND DUP2 MSTORE PUSH1 0x20 ADD PUSH2 0x249 JUMP JUMPDEST PUSH2 0x23F PUSH2 0x3A8 CALLDATASIZE PUSH1 0x4 PUSH2 0x18ED JUMP JUMPDEST POP PUSH1 0x0 NOT SWAP1 JUMP JUMPDEST PUSH3 0x1E240 PUSH2 0x23F JUMP JUMPDEST PUSH2 0x23F PUSH2 0x3C6 CALLDATASIZE PUSH1 0x4 PUSH2 0x1944 JUMP JUMPDEST PUSH2 0x805 JUMP JUMPDEST PUSH2 0x23F PUSH2 0x3D9 CALLDATASIZE PUSH1 0x4 PUSH2 0x18ED JUMP JUMPDEST PUSH1 0x1 PUSH1 0x1 PUSH1 0xA0 SHL SUB AND PUSH1 0x0 SWAP1 DUP2 MSTORE PUSH1 0x20 DUP2 SWAP1 MSTORE PUSH1 0x40 SWAP1 KECCAK256 SLOAD SWAP1 JUMP JUMPDEST PUSH2 0x3FC PUSH2 0x83D JUMP JUMPDEST STOP JUMPDEST PUSH2 0x382 PUSH32 0x0 DUP2 JUMP JUMPDEST PUSH1 0x5 SLOAD PUSH1 0x1 PUSH1 0x1 PUSH1 0xA0 SHL SUB AND PUSH2 0x382 JUMP JUMPDEST PUSH2 0x23F PUSH2 0x444 CALLDATASIZE PUSH1 0x4 PUSH2 0x1944 JUMP JUMPDEST PUSH2 0x851 JUMP JUMPDEST PUSH2 0x263 PUSH2 0x888 JUMP JUMPDEST PUSH2 0x23F PUSH2 0x897 JUMP JUMPDEST PUSH2 0x296 PUSH2 0x467 CALLDATASIZE PUSH1 0x4 PUSH2 0x18A1 JUMP JUMPDEST PUSH2 0x91D JUMP JUMPDEST PUSH2 0x23F PUSH2 0x47A CALLDATASIZE PUSH1 0x4 PUSH2 0x186C JUMP JUMPDEST PUSH2 0x92B JUMP JUMPDEST PUSH2 0x23F PUSH2 0x48D CALLDATASIZE PUSH1 0x4 PUSH2 0x1970 JUMP JUMPDEST PUSH2 0x938 JUMP JUMPDEST PUSH2 0x23F PUSH2 0x4A0 CALLDATASIZE PUSH1 0x4 PUSH2 0x1970 JUMP JUMPDEST PUSH2 0x971 JUMP JUMPDEST PUSH2 0x23F PUSH2 0x4B3 CALLDATASIZE PUSH1 0x4 PUSH2 0x186C JUMP JUMPDEST PUSH2 0x9A9 JUMP JUMPDEST PUSH2 0x23F PUSH2 0x4C6 CALLDATASIZE PUSH1 0x4 PUSH2 0x18ED JUMP JUMPDEST PUSH2 0x9B6 JUMP JUMPDEST PUSH2 0x3FC PUSH2 0x4D9 CALLDATASIZE PUSH1 0x4 PUSH2 0x19BA JUMP JUMPDEST PUSH2 0x9DA JUMP JUMPDEST PUSH2 0x23F PUSH2 0x4EC CALLDATASIZE PUSH1 0x4 PUSH2 0x18ED JUMP JUMPDEST PUSH2 0xB9E JUMP JUMPDEST PUSH2 0x23F PUSH1 0xC SLOAD DUP2 JUMP JUMPDEST PUSH2 0x23F PUSH2 0x508 CALLDATASIZE PUSH1 0x4 PUSH2 0x19FB JUMP JUMPDEST PUSH1 0x1 PUSH1 0x1 PUSH1 0xA0 SHL SUB SWAP2 DUP3 AND PUSH1 0x0 SWAP1 DUP2 MSTORE PUSH1 0x1 PUSH1 0x20 SWAP1 DUP2 MSTORE PUSH1 0x40 DUP1 DUP4 KECCAK256 SWAP4 SWAP1 SWAP5 AND DUP3 MSTORE SWAP2 SWAP1 SWAP2 MSTORE KECCAK256 SLOAD SWAP1 JUMP JUMPDEST PUSH2 0x23F PUSH2 0x541 CALLDATASIZE PUSH1 0x4 PUSH2 0x186C JUMP JUMPDEST SWAP1 JUMP JUMPDEST PUSH2 0x3FC PUSH2 0x552 CALLDATASIZE PUSH1 0x4 PUSH2 0x18ED JUMP JUMPDEST PUSH2 0xBBC JUMP JUMPDEST PUSH1 0x0 DUP1 PUSH2 0x562 PUSH2 0x897 JUMP JUMPDEST SWAP1 POP PUSH1 0x0 DUP2 SGT ISZERO PUSH2 0x59B JUMPI PUSH1 0xC SLOAD PUSH2 0x579 DUP3 PUSH2 0xBFF JUMP JUMPDEST PUSH2 0x581 PUSH2 0xC29 JUMP JUMPDEST PUSH2 0x58B SWAP2 SWAP1 PUSH2 0x1A3B JUMP JUMPDEST PUSH2 0x595 SWAP2 SWAP1 PUSH2 0x1A3B JUMP JUMPDEST SWAP2 POP POP SWAP1 JUMP JUMPDEST PUSH2 0x5A4 DUP2 PUSH2 0x1A4E JUMP JUMPDEST SWAP1 POP PUSH1 0xC SLOAD PUSH2 0x5B2 DUP3 PUSH2 0xBFF JUMP JUMPDEST PUSH2 0x5BA PUSH2 0xC29 JUMP JUMPDEST PUSH2 0x58B SWAP2 SWAP1 PUSH2 0x1A6A JUMP JUMPDEST PUSH1 0x60 PUSH1 0x3 DUP1 SLOAD PUSH2 0x5D3 SWAP1 PUSH2 0x1A7D JUMP JUMPDEST DUP1 PUSH1 0x1F ADD PUSH1 0x20 DUP1 SWAP2 DIV MUL PUSH1 0x20 ADD PUSH1 0x40 MLOAD SWAP1 DUP2 ADD PUSH1 0x40 MSTORE DUP1 SWAP3 SWAP2 SWAP1 DUP2 DUP2 MSTORE PUSH1 0x20 ADD DUP3 DUP1 SLOAD PUSH2 0x5FF SWAP1 PUSH2 0x1A7D JUMP JUMPDEST DUP1 ISZERO PUSH2 0x64C JUMPI DUP1 PUSH1 0x1F LT PUSH2 0x621 JUMPI PUSH2 0x100 DUP1 DUP4 SLOAD DIV MUL DUP4 MSTORE SWAP2 PUSH1 0x20 ADD SWAP2 PUSH2 0x64C JUMP JUMPDEST DUP3 ADD SWAP2 SWAP1 PUSH1 0x0 MSTORE PUSH1 0x20 PUSH1 0x0 KECCAK256 SWAP1 JUMPDEST DUP2 SLOAD DUP2 MSTORE SWAP1 PUSH1 0x1 ADD SWAP1 PUSH1 0x20 ADD DUP1 DUP4 GT PUSH2 0x62F JUMPI DUP3 SWAP1 SUB PUSH1 0x1F AND DUP3 ADD SWAP2 JUMPDEST POP POP POP POP POP SWAP1 POP SWAP1 JUMP JUMPDEST PUSH1 0x0 PUSH2 0x663 DUP3 PUSH1 0x0 PUSH2 0xCB4 JUMP JUMPDEST SWAP3 SWAP2 POP POP JUMP JUMPDEST PUSH1 0x0 CALLER PUSH2 0x677 DUP2 DUP6 DUP6 PUSH2 0xCEE JUMP JUMPDEST POP PUSH1 0x1 SWAP4 SWAP3 POP POP POP JUMP JUMPDEST PUSH1 0x0 PUSH2 0x663 DUP3 PUSH1 0x1 PUSH2 0xD00 JUMP JUMPDEST PUSH1 0x0 DUP2 DUP2 PUSH2 0x69C DUP6 DUP4 PUSH2 0x1AB7 JUMP JUMPDEST SWAP6 SWAP5 POP POP POP POP POP JUMP JUMPDEST PUSH2 0x6D9 PUSH1 0x40 MLOAD DUP1 PUSH1 0xA0 ADD PUSH1 0x40 MSTORE DUP1 PUSH1 0x0 DUP2 MSTORE PUSH1 0x20 ADD PUSH1 0x0 DUP2 MSTORE PUSH1 0x20 ADD PUSH1 0x0 DUP2 MSTORE PUSH1 0x20 ADD PUSH1 0x0 ISZERO ISZERO DUP2 MSTORE PUSH1 0x20 ADD PUSH1 0x0 DUP2 MSTORE POP SWAP1 JUMP JUMPDEST PUSH1 0x1 PUSH1 0x1 PUSH1 0xA0 SHL SUB DUP3 AND PUSH1 0x0 SWAP1 DUP2 MSTORE PUSH1 0xB PUSH1 0x20 SWAP1 DUP2 MSTORE PUSH1 0x40 DUP1 DUP4 KECCAK256 DUP2 MLOAD PUSH1 0xA0 DUP2 ADD DUP4 MSTORE DUP2 SLOAD DUP1 DUP3 MSTORE PUSH1 0x1 DUP4 ADD SLOAD SWAP5 DUP3 ADD SWAP5 SWAP1 SWAP5 MSTORE PUSH1 0x2 DUP3 ADD SLOAD SWAP3 DUP2 ADD SWAP3 SWAP1 SWAP3 MSTORE PUSH1 0x3 DUP2 ADD SLOAD PUSH1 0xFF AND ISZERO ISZERO PUSH1 0x60 DUP4 ADD MSTORE PUSH1 0x4 ADD SLOAD PUSH1 0x80 DUP3 ADD MSTORE SWAP2 SUB PUSH2 0x750 JUMPI PUSH1 0x40 MLOAD PUSH4 0x2F4CB185 PUSH1 0xE2 SHL DUP2 MSTORE PUSH1 0x4 ADD PUSH1 0x40 MLOAD DUP1 SWAP2 SUB SWAP1 REVERT JUMPDEST POP POP PUSH1 0x1 PUSH1 0x1 PUSH1 0xA0 SHL SUB AND PUSH1 0x0 SWAP1 DUP2 MSTORE PUSH1 0xB PUSH1 0x20 SWAP1 DUP2 MSTORE PUSH1 0x40 SWAP2 DUP3 SWAP1 KECCAK256 DUP3 MLOAD PUSH1 0xA0 DUP2 ADD DUP5 MSTORE DUP2 SLOAD DUP2 MSTORE PUSH1 0x1 DUP3 ADD SLOAD SWAP3 DUP2 ADD SWAP3 SWAP1 SWAP3 MSTORE PUSH1 0x2 DUP2 ADD SLOAD SWAP3 DUP3 ADD SWAP3 SWAP1 SWAP3 MSTORE PUSH1 0x3 DUP3 ADD SLOAD PUSH1 0xFF AND ISZERO ISZERO PUSH1 0x60 DUP3 ADD MSTORE PUSH1 0x4 SWAP1 SWAP2 ADD SLOAD PUSH1 0x80 DUP3 ADD MSTORE SWAP1 JUMP JUMPDEST PUSH1 0x0 CALLER PUSH2 0x7BC DUP6 DUP3 DUP6 PUSH2 0xD30 JUMP JUMPDEST PUSH2 0x7C7 DUP6 DUP6 DUP6 PUSH2 0xD9B JUMP JUMPDEST PUSH1 0x1 SWAP2 POP POP JUMPDEST SWAP4 SWAP3 POP POP POP JUMP JUMPDEST PUSH1 0x0 PUSH2 0x800 DUP2 PUSH32 0x0 PUSH2 0x1ACE JUMP JUMPDEST SWAP1 POP SWAP1 JUMP JUMPDEST PUSH1 0x0 PUSH2 0x80F PUSH2 0xDFA JUMP JUMPDEST PUSH1 0x0 DUP4 PUSH1 0xE SLOAD PUSH2 0x81F SWAP2 SWAP1 PUSH2 0x1A6A JUMP JUMPDEST SWAP1 POP PUSH2 0x82B DUP5 DUP5 PUSH2 0xE24 JUMP JUMPDEST PUSH1 0xE SWAP2 SWAP1 SWAP2 SSTORE SWAP1 POP PUSH2 0x663 PUSH1 0x1 PUSH1 0x6 SSTORE JUMP JUMPDEST PUSH2 0x845 PUSH2 0xE4A JUMP JUMPDEST PUSH2 0x84F PUSH1 0x0 PUSH2 0xE77 JUMP JUMPDEST JUMP JUMPDEST PUSH1 0x0 PUSH2 0x85B PUSH2 0xDFA JUMP JUMPDEST PUSH2 0x865 DUP4 DUP4 PUSH2 0xEC9 JUMP JUMPDEST SWAP1 POP DUP1 PUSH1 0xE PUSH1 0x0 DUP3 DUP3 SLOAD PUSH2 0x879 SWAP2 SWAP1 PUSH2 0x1A6A JUMP JUMPDEST SWAP1 SWAP2 SSTORE POP POP PUSH1 0x1 PUSH1 0x6 SSTORE PUSH2 0x663 JUMP JUMPDEST PUSH1 0x60 PUSH1 0x4 DUP1 SLOAD PUSH2 0x5D3 SWAP1 PUSH2 0x1A7D JUMP JUMPDEST PUSH1 0x0 DUP1 PUSH2 0x8A8 PUSH1 0x7 PUSH1 0x0 ADD SLOAD PUSH2 0xEE7 JUMP JUMPDEST PUSH2 0x8C0 PUSH2 0x8BB PUSH1 0x7 PUSH1 0x1 ADD SLOAD PUSH1 0x1 PUSH2 0x68E JUMP JUMPDEST PUSH2 0xEE7 JUMP JUMPDEST PUSH2 0x8CA SWAP2 SWAP1 PUSH2 0x1AE7 JUMP JUMPDEST SWAP1 POP PUSH1 0x0 PUSH2 0x8E1 PUSH2 0x8BB PUSH1 0x9 PUSH1 0x1 ADD SLOAD PUSH1 0x1 PUSH2 0x68E JUMP JUMPDEST PUSH1 0x9 SLOAD PUSH2 0x8ED SWAP1 PUSH2 0xEE7 JUMP JUMPDEST PUSH2 0x8F7 SWAP2 SWAP1 PUSH2 0x1AE7 JUMP JUMPDEST SWAP1 POP PUSH8 0xDE0B6B3A7640000 PUSH2 0x90C DUP4 DUP4 PUSH2 0x1B0E JUMP JUMPDEST PUSH2 0x916 SWAP2 SWAP1 PUSH2 0x1B44 JUMP JUMPDEST SWAP3 POP POP POP SWAP1 JUMP JUMPDEST PUSH1 0x0 CALLER PUSH2 0x677 DUP2 DUP6 DUP6 PUSH2 0xD9B JUMP JUMPDEST PUSH1 0x0 PUSH2 0x663 DUP3 PUSH1 0x1 PUSH2 0xCB4 JUMP JUMPDEST PUSH1 0x0 PUSH2 0x942 PUSH2 0xDFA JUMP JUMPDEST PUSH1 0x0 DUP5 PUSH1 0xE SLOAD PUSH2 0x952 SWAP2 SWAP1 PUSH2 0x1A3B JUMP JUMPDEST SWAP1 POP PUSH2 0x95F DUP6 DUP6 DUP6 PUSH2 0xF14 JUMP JUMPDEST PUSH1 0xE SWAP2 SWAP1 SWAP2 SSTORE SWAP1 POP PUSH2 0x7CD PUSH1 0x1 PUSH1 0x6 SSTORE JUMP JUMPDEST PUSH1 0x0 PUSH2 0x97B PUSH2 0xDFA JUMP JUMPDEST PUSH2 0x986 DUP5 DUP5 DUP5 PUSH2 0xF63 JUMP JUMPDEST SWAP1 POP DUP1 PUSH1 0xE PUSH1 0x0 DUP3 DUP3 SLOAD PUSH2 0x99A SWAP2 SWAP1 PUSH2 0x1A3B JUMP JUMPDEST SWAP1 SWAP2 SSTORE POP POP PUSH1 0x1 PUSH1 0x6 SSTORE PUSH2 0x7CD JUMP JUMPDEST PUSH1 0x0 PUSH2 0x663 DUP3 PUSH1 0x0 PUSH2 0xD00 JUMP JUMPDEST PUSH1 0x1 PUSH1 0x1 PUSH1 0xA0 SHL SUB DUP2 AND PUSH1 0x0 SWAP1 DUP2 MSTORE PUSH1 0x20 DUP2 SWAP1 MSTORE PUSH1 0x40 DUP2 KECCAK256 SLOAD PUSH2 0x663 SWAP1 PUSH1 0x0 PUSH2 0xCB4 JUMP JUMPDEST PUSH1 0x0 DUP4 GT PUSH2 0x9FB JUMPI PUSH1 0x40 MLOAD PUSH4 0x7B92CB43 PUSH1 0xE0 SHL DUP2 MSTORE PUSH1 0x4 ADD PUSH1 0x40 MLOAD DUP1 SWAP2 SUB SWAP1 REVERT JUMPDEST PUSH1 0x0 DUP5 GT PUSH2 0xA1C JUMPI PUSH1 0x40 MLOAD PUSH4 0x62A73C5 PUSH1 0xE4 SHL DUP2 MSTORE PUSH1 0x4 ADD PUSH1 0x40 MLOAD DUP1 SWAP2 SUB SWAP1 REVERT JUMPDEST CALLER PUSH1 0x0 SWAP1 DUP2 MSTORE PUSH1 0xB PUSH1 0x20 MSTORE PUSH1 0x40 SWAP1 KECCAK256 SLOAD ISZERO PUSH2 0xA4A JUMPI PUSH1 0x40 MLOAD PUSH4 0xC7B567D PUSH1 0xE3 SHL DUP2 MSTORE PUSH1 0x4 ADD PUSH1 0x40 MLOAD DUP1 SWAP2 SUB SWAP1 REVERT JUMPDEST PUSH1 0x0 PUSH1 0x40 MLOAD DUP1 PUSH1 0xA0 ADD PUSH1 0x40 MSTORE DUP1 DUP6 DUP2 MSTORE PUSH1 0x20 ADD DUP5 DUP2 MSTORE PUSH1 0x20 ADD DUP5 DUP8 PUSH2 0xA6F SWAP2 SWAP1 PUSH2 0x1B72 JUMP JUMPDEST DUP2 MSTORE PUSH1 0x20 ADD DUP4 ISZERO ISZERO DUP2 MSTORE PUSH1 0x20 ADD TIMESTAMP DUP2 MSTORE POP SWAP1 POP PUSH2 0xA8C DUP2 DUP5 PUSH2 0xFB2 JUMP JUMPDEST PUSH2 0xAC1 PUSH1 0x1 PUSH1 0x1 PUSH1 0xA0 SHL SUB PUSH32 0x0 AND CALLER ADDRESS DUP8 PUSH2 0x1067 JUMP JUMPDEST DUP1 MLOAD PUSH1 0xC DUP1 SLOAD PUSH1 0x0 SWAP1 PUSH2 0xAD5 SWAP1 DUP5 SWAP1 PUSH2 0x1A6A JUMP JUMPDEST SWAP1 SWAP2 SSTORE POP POP CALLER PUSH1 0x0 SWAP1 DUP2 MSTORE PUSH1 0xB PUSH1 0x20 SWAP1 DUP2 MSTORE PUSH1 0x40 SWAP2 DUP3 SWAP1 KECCAK256 DUP4 MLOAD DUP2 SSTORE SWAP1 DUP4 ADD MLOAD PUSH1 0x1 DUP3 ADD SSTORE SWAP1 DUP3 ADD MLOAD PUSH1 0x2 DUP3 ADD DUP2 SWAP1 SSTORE PUSH1 0x60 DUP4 ADD MLOAD PUSH1 0x3 DUP4 ADD DUP1 SLOAD PUSH1 0xFF NOT AND SWAP2 ISZERO ISZERO SWAP2 SWAP1 SWAP2 OR SWAP1 SSTORE PUSH1 0x80 DUP4 ADD MLOAD PUSH1 0x4 SWAP1 SWAP3 ADD SWAP2 SWAP1 SWAP2 SSTORE PUSH2 0xB37 SWAP1 DUP7 SWAP1 DUP5 PUSH2 0x10CE JUMP JUMPDEST PUSH1 0x60 DUP2 DUP2 ADD MLOAD PUSH1 0x40 DUP1 DUP5 ADD MLOAD PUSH1 0x20 DUP1 DUP7 ADD MLOAD DUP4 MLOAD SWAP5 ISZERO ISZERO DUP6 MSTORE SWAP1 DUP5 ADD DUP11 SWAP1 MSTORE DUP4 DUP4 ADD DUP10 SWAP1 MSTORE SWAP4 DUP4 ADD MSTORE PUSH1 0x80 DUP3 ADD SWAP3 SWAP1 SWAP3 MSTORE SWAP1 MLOAD CALLER SWAP2 PUSH32 0xE8F4B81343AFA64BC4DDCFBF2D80E883E0DDFC6663C400CA09DA13D1D28D588 SWAP2 SWAP1 DUP2 SWAP1 SUB PUSH1 0xA0 ADD SWAP1 LOG2 POP POP POP POP POP JUMP JUMPDEST PUSH1 0x1 PUSH1 0x1 PUSH1 0xA0 SHL SUB DUP2 AND PUSH1 0x0 SWAP1 DUP2 MSTORE PUSH1 0x20 DUP2 SWAP1 MSTORE PUSH1 0x40 DUP2 KECCAK256 SLOAD PUSH2 0x663 JUMP JUMPDEST PUSH2 0xBC4 PUSH2 0xE4A JUMP JUMPDEST PUSH1 0x1 PUSH1 0x1 PUSH1 0xA0 SHL SUB DUP2 AND PUSH2 0xBF3 JUMPI PUSH1 0x40 MLOAD PUSH4 0x1E4FBDF7 PUSH1 0xE0 SHL DUP2 MSTORE PUSH1 0x0 PUSH1 0x4 DUP3 ADD MSTORE PUSH1 0x24 ADD JUMPDEST PUSH1 0x40 MLOAD DUP1 SWAP2 SUB SWAP1 REVERT JUMPDEST PUSH2 0xBFC DUP2 PUSH2 0xE77 JUMP JUMPDEST POP JUMP JUMPDEST PUSH1 0x0 DUP1 DUP3 SLT ISZERO PUSH2 0xC25 JUMPI PUSH1 0x40 MLOAD PUSH4 0x54672219 PUSH1 0xE1 SHL DUP2 MSTORE PUSH1 0x4 DUP2 ADD DUP4 SWAP1 MSTORE PUSH1 0x24 ADD PUSH2 0xBEA JUMP JUMPDEST POP SWAP1 JUMP JUMPDEST PUSH1 0x40 MLOAD PUSH4 0x70A08231 PUSH1 0xE0 SHL DUP2 MSTORE ADDRESS PUSH1 0x4 DUP3 ADD MSTORE PUSH1 0x0 SWAP1 PUSH32 0x0 PUSH1 0x1 PUSH1 0x1 PUSH1 0xA0 SHL SUB AND SWAP1 PUSH4 0x70A08231 SWAP1 PUSH1 0x24 ADD PUSH1 0x20 PUSH1 0x40 MLOAD DUP1 DUP4 SUB DUP2 DUP7 GAS STATICCALL ISZERO DUP1 ISZERO PUSH2 0xC90 JUMPI RETURNDATASIZE PUSH1 0x0 DUP1 RETURNDATACOPY RETURNDATASIZE PUSH1 0x0 REVERT JUMPDEST POP POP POP POP PUSH1 0x40 MLOAD RETURNDATASIZE PUSH1 0x1F NOT PUSH1 0x1F DUP3 ADD AND DUP3 ADD DUP1 PUSH1 0x40 MSTORE POP DUP2 ADD SWAP1 PUSH2 0x800 SWAP2 SWAP1 PUSH2 0x1B86 JUMP JUMPDEST PUSH1 0x0 PUSH2 0x7CD PUSH2 0xCC1 PUSH2 0x557 JUMP JUMPDEST PUSH2 0xCCC SWAP1 PUSH1 0x1 PUSH2 0x1A6A JUMP JUMPDEST PUSH2 0xCD8 PUSH1 0x0 PUSH1 0xA PUSH2 0x1C83 JUMP JUMPDEST PUSH1 0x2 SLOAD PUSH2 0xCE5 SWAP2 SWAP1 PUSH2 0x1A6A JUMP JUMPDEST DUP6 SWAP2 SWAP1 DUP6 PUSH2 0x1147 JUMP JUMPDEST PUSH2 0xCFB DUP4 DUP4 DUP4 PUSH1 0x1 PUSH2 0x1196 JUMP JUMPDEST POP POP POP JUMP JUMPDEST PUSH1 0x0 PUSH2 0x7CD PUSH2 0xD10 DUP3 PUSH1 0xA PUSH2 0x1C83 JUMP JUMPDEST PUSH1 0x2 SLOAD PUSH2 0xD1D SWAP2 SWAP1 PUSH2 0x1A6A JUMP JUMPDEST PUSH2 0xD25 PUSH2 0x557 JUMP JUMPDEST PUSH2 0xCE5 SWAP1 PUSH1 0x1 PUSH2 0x1A6A JUMP JUMPDEST PUSH1 0x1 PUSH1 0x1 PUSH1 0xA0 SHL SUB DUP4 DUP2 AND PUSH1 0x0 SWAP1 DUP2 MSTORE PUSH1 0x1 PUSH1 0x20 SWAP1 DUP2 MSTORE PUSH1 0x40 DUP1 DUP4 KECCAK256 SWAP4 DUP7 AND DUP4 MSTORE SWAP3 SWAP1 MSTORE KECCAK256 SLOAD PUSH1 0x0 NOT DUP2 EQ PUSH2 0xD95 JUMPI DUP2 DUP2 LT ISZERO PUSH2 0xD86 JUMPI DUP3 DUP2 DUP4 PUSH1 0x40 MLOAD PUSH4 0x7DC7A0D9 PUSH1 0xE1 SHL DUP2 MSTORE PUSH1 0x4 ADD PUSH2 0xBEA SWAP4 SWAP3 SWAP2 SWAP1 PUSH2 0x1C92 JUMP JUMPDEST PUSH2 0xD95 DUP5 DUP5 DUP5 DUP5 SUB PUSH1 0x0 PUSH2 0x1196 JUMP JUMPDEST POP POP POP POP JUMP JUMPDEST PUSH1 0x1 PUSH1 0x1 PUSH1 0xA0 SHL SUB DUP4 AND PUSH2 0xDC5 JUMPI PUSH1 0x40 MLOAD PUSH4 0x4B637E8F PUSH1 0xE1 SHL DUP2 MSTORE PUSH1 0x0 PUSH1 0x4 DUP3 ADD MSTORE PUSH1 0x24 ADD PUSH2 0xBEA JUMP JUMPDEST PUSH1 0x1 PUSH1 0x1 PUSH1 0xA0 SHL SUB DUP3 AND PUSH2 0xDEF JUMPI PUSH1 0x40 MLOAD PUSH4 0xEC442F05 PUSH1 0xE0 SHL DUP2 MSTORE PUSH1 0x0 PUSH1 0x4 DUP3 ADD MSTORE PUSH1 0x24 ADD PUSH2 0xBEA JUMP JUMPDEST PUSH2 0xCFB DUP4 DUP4 DUP4 PUSH2 0x126B JUMP JUMPDEST PUSH1 0x2 PUSH1 0x6 SLOAD SUB PUSH2 0xE1D JUMPI PUSH1 0x40 MLOAD PUSH4 0x3EE5AEB5 PUSH1 0xE0 SHL DUP2 MSTORE PUSH1 0x4 ADD PUSH1 0x40 MLOAD DUP1 SWAP2 SUB SWAP1 REVERT JUMPDEST PUSH1 0x2 PUSH1 0x6 SSTORE JUMP JUMPDEST PUSH1 0x0 PUSH1 0x0 NOT PUSH1 0x0 PUSH2 0xE34 DUP6 PUSH2 0x9A9 JUMP JUMPDEST SWAP1 POP PUSH2 0xE42 CALLER DUP6 DUP8 DUP5 PUSH2 0x1382 JUMP JUMPDEST SWAP5 SWAP4 POP POP POP POP JUMP JUMPDEST PUSH1 0x5 SLOAD PUSH1 0x1 PUSH1 0x1 PUSH1 0xA0 SHL SUB AND CALLER EQ PUSH2 0x84F JUMPI PUSH1 0x40 MLOAD PUSH4 0x118CDAA7 PUSH1 0xE0 SHL DUP2 MSTORE CALLER PUSH1 0x4 DUP3 ADD MSTORE PUSH1 0x24 ADD PUSH2 0xBEA JUMP JUMPDEST PUSH1 0x5 DUP1 SLOAD PUSH1 0x1 PUSH1 0x1 PUSH1 0xA0 SHL SUB DUP4 DUP2 AND PUSH1 0x1 PUSH1 0x1 PUSH1 0xA0 SHL SUB NOT DUP4 AND DUP2 OR SWAP1 SWAP4 SSTORE PUSH1 0x40 MLOAD SWAP2 AND SWAP2 SWAP1 DUP3 SWAP1 PUSH32 0x8BE0079C531659141344CD1FD0A4F28419497F9722A3DAAFE3B4186F6B6457E0 SWAP1 PUSH1 0x0 SWAP1 LOG3 POP POP JUMP JUMPDEST PUSH1 0x0 PUSH1 0x0 NOT PUSH1 0x0 PUSH2 0xED9 DUP6 PUSH2 0x92B JUMP JUMPDEST SWAP1 POP PUSH2 0xE42 CALLER DUP6 DUP4 DUP9 PUSH2 0x1382 JUMP JUMPDEST PUSH1 0x0 PUSH1 0x1 PUSH1 0x1 PUSH1 0xFF SHL SUB DUP3 GT ISZERO PUSH2 0xC25 JUMPI PUSH1 0x40 MLOAD PUSH4 0x123BAF03 PUSH1 0xE1 SHL DUP2 MSTORE PUSH1 0x4 DUP2 ADD DUP4 SWAP1 MSTORE PUSH1 0x24 ADD PUSH2 0xBEA JUMP JUMPDEST PUSH1 0x0 DUP1 PUSH2 0xF20 DUP4 PUSH2 0x9B6 JUMP JUMPDEST SWAP1 POP DUP1 DUP6 GT ISZERO PUSH2 0xF49 JUMPI DUP3 DUP6 DUP3 PUSH1 0x40 MLOAD PUSH4 0x3FA733BB PUSH1 0xE2 SHL DUP2 MSTORE PUSH1 0x4 ADD PUSH2 0xBEA SWAP4 SWAP3 SWAP2 SWAP1 PUSH2 0x1C92 JUMP JUMPDEST PUSH1 0x0 PUSH2 0xF54 DUP7 PUSH2 0x681 JUMP JUMPDEST SWAP1 POP PUSH2 0x69C CALLER DUP7 DUP7 DUP10 DUP6 PUSH2 0x1406 JUMP JUMPDEST PUSH1 0x0 DUP1 PUSH2 0xF6F DUP4 PUSH2 0xB9E JUMP JUMPDEST SWAP1 POP DUP1 DUP6 GT ISZERO PUSH2 0xF98 JUMPI DUP3 DUP6 DUP3 PUSH1 0x40 MLOAD PUSH4 0x2E52AFBB PUSH1 0xE2 SHL DUP2 MSTORE PUSH1 0x4 ADD PUSH2 0xBEA SWAP4 SWAP3 SWAP2 SWAP1 PUSH2 0x1C92 JUMP JUMPDEST PUSH1 0x0 PUSH2 0xFA3 DUP7 PUSH2 0x656 JUMP JUMPDEST SWAP1 POP PUSH2 0x69C CALLER DUP7 DUP7 DUP5 DUP11 PUSH2 0x1406 JUMP JUMPDEST PUSH1 0x0 PUSH2 0xFBE DUP4 DUP4 PUSH2 0x14C6 JUMP JUMPDEST SWAP1 POP PUSH1 0x0 DUP2 PUSH2 0xFD0 DUP6 PUSH1 0x0 ADD MLOAD PUSH2 0xEE7 JUMP JUMPDEST PUSH2 0xFDA SWAP2 SWAP1 PUSH2 0x1B0E JUMP JUMPDEST SGT PUSH2 0xFF8 JUMPI PUSH1 0x40 MLOAD PUSH4 0x27AD135D PUSH1 0xE1 SHL DUP2 MSTORE PUSH1 0x4 ADD PUSH1 0x40 MLOAD DUP1 SWAP2 SUB SWAP1 REVERT JUMPDEST PUSH1 0x0 PUSH2 0x101A DUP3 PUSH2 0x100B DUP7 PUSH1 0x0 ADD MLOAD PUSH2 0xEE7 JUMP JUMPDEST PUSH2 0x1015 SWAP2 SWAP1 PUSH2 0x1B0E JUMP JUMPDEST PUSH2 0xBFF JUMP JUMPDEST SWAP1 POP PUSH1 0x0 DUP2 DUP6 PUSH1 0x20 ADD MLOAD DUP7 PUSH1 0x40 ADD MLOAD PUSH2 0x1033 SWAP2 SWAP1 PUSH2 0x1AB7 JUMP JUMPDEST PUSH2 0x103D SWAP2 SWAP1 PUSH2 0x1B72 JUMP JUMPDEST SWAP1 POP PUSH1 0xF DUP2 LT PUSH2 0x1060 JUMPI PUSH1 0x40 MLOAD PUSH4 0x3E5FF327 PUSH1 0xE2 SHL DUP2 MSTORE PUSH1 0x4 ADD PUSH1 0x40 MLOAD DUP1 SWAP2 SUB SWAP1 REVERT JUMPDEST POP POP POP POP POP JUMP JUMPDEST PUSH1 0x40 MLOAD PUSH1 0x1 PUSH1 0x1 PUSH1 0xA0 SHL SUB DUP5 DUP2 AND PUSH1 0x24 DUP4 ADD MSTORE DUP4 DUP2 AND PUSH1 0x44 DUP4 ADD MSTORE PUSH1 0x64 DUP3 ADD DUP4 SWAP1 MSTORE PUSH2 0xD95 SWAP2 DUP7 SWAP2 DUP3 AND SWAP1 PUSH4 0x23B872DD SWAP1 PUSH1 0x84 ADD JUMPDEST PUSH1 0x40 MLOAD PUSH1 0x20 DUP2 DUP4 SUB SUB DUP2 MSTORE SWAP1 PUSH1 0x40 MSTORE SWAP2 POP PUSH1 0xE0 SHL PUSH1 0x20 DUP3 ADD DUP1 MLOAD PUSH1 0x1 PUSH1 0x1 PUSH1 0xE0 SHL SUB DUP4 DUP2 DUP4 AND OR DUP4 MSTORE POP POP POP POP PUSH2 0x1528 JUMP JUMPDEST DUP1 ISZERO PUSH2 0x110E JUMPI DUP3 PUSH1 0x7 PUSH1 0x0 ADD PUSH1 0x0 DUP3 DUP3 SLOAD PUSH2 0x10E9 SWAP2 SWAP1 PUSH2 0x1A6A JUMP JUMPDEST SWAP1 SWAP2 SSTORE POP POP PUSH1 0x8 DUP1 SLOAD DUP4 SWAP2 SWAP1 PUSH1 0x0 SWAP1 PUSH2 0x1103 SWAP1 DUP5 SWAP1 PUSH2 0x1A6A JUMP JUMPDEST SWAP1 SWAP2 SSTORE POP PUSH2 0xCFB SWAP1 POP JUMP JUMPDEST DUP3 PUSH1 0x9 PUSH1 0x0 ADD PUSH1 0x0 DUP3 DUP3 SLOAD PUSH2 0x1123 SWAP2 SWAP1 PUSH2 0x1A6A JUMP JUMPDEST SWAP1 SWAP2 SSTORE POP POP PUSH1 0xA DUP1 SLOAD DUP4 SWAP2 SWAP1 PUSH1 0x0 SWAP1 PUSH2 0x113D SWAP1 DUP5 SWAP1 PUSH2 0x1A6A JUMP JUMPDEST SWAP1 SWAP2 SSTORE POP POP POP POP POP JUMP JUMPDEST PUSH1 0x0 DUP1 PUSH2 0x1155 DUP7 DUP7 DUP7 PUSH2 0x158B JUMP JUMPDEST SWAP1 POP PUSH2 0x1160 DUP4 PUSH2 0x164F JUMP JUMPDEST DUP1 ISZERO PUSH2 0x117C JUMPI POP PUSH1 0x0 DUP5 DUP1 PUSH2 0x1177 JUMPI PUSH2 0x1177 PUSH2 0x1B2E JUMP JUMPDEST DUP7 DUP9 MULMOD GT JUMPDEST ISZERO PUSH2 0x69C JUMPI PUSH2 0x118C PUSH1 0x1 DUP3 PUSH2 0x1A6A JUMP JUMPDEST SWAP7 SWAP6 POP POP POP POP POP POP JUMP JUMPDEST PUSH1 0x1 PUSH1 0x1 PUSH1 0xA0 SHL SUB DUP5 AND PUSH2 0x11C0 JUMPI PUSH1 0x40 MLOAD PUSH4 0xE602DF05 PUSH1 0xE0 SHL DUP2 MSTORE PUSH1 0x0 PUSH1 0x4 DUP3 ADD MSTORE PUSH1 0x24 ADD PUSH2 0xBEA JUMP JUMPDEST PUSH1 0x1 PUSH1 0x1 PUSH1 0xA0 SHL SUB DUP4 AND PUSH2 0x11EA JUMPI PUSH1 0x40 MLOAD PUSH4 0x4A1406B1 PUSH1 0xE1 SHL DUP2 MSTORE PUSH1 0x0 PUSH1 0x4 DUP3 ADD MSTORE PUSH1 0x24 ADD PUSH2 0xBEA JUMP JUMPDEST PUSH1 0x1 PUSH1 0x1 PUSH1 0xA0 SHL SUB DUP1 DUP6 AND PUSH1 0x0 SWAP1 DUP2 MSTORE PUSH1 0x1 PUSH1 0x20 SWAP1 DUP2 MSTORE PUSH1 0x40 DUP1 DUP4 KECCAK256 SWAP4 DUP8 AND DUP4 MSTORE SWAP3 SWAP1 MSTORE KECCAK256 DUP3 SWAP1 SSTORE DUP1 ISZERO PUSH2 0xD95 JUMPI DUP3 PUSH1 0x1 PUSH1 0x1 PUSH1 0xA0 SHL SUB AND DUP5 PUSH1 0x1 PUSH1 0x1 PUSH1 0xA0 SHL SUB AND PUSH32 0x8C5BE1E5EBEC7D5BD14F71427D1E84F3DD0314C0F7B2291E5B200AC8C7C3B925 DUP5 PUSH1 0x40 MLOAD PUSH2 0x125D SWAP2 DUP2 MSTORE PUSH1 0x20 ADD SWAP1 JUMP JUMPDEST PUSH1 0x40 MLOAD DUP1 SWAP2 SUB SWAP1 LOG3 POP POP POP POP JUMP JUMPDEST PUSH1 0x1 PUSH1 0x1 PUSH1 0xA0 SHL SUB DUP4 AND PUSH2 0x1296 JUMPI DUP1 PUSH1 0x2 PUSH1 0x0 DUP3 DUP3 SLOAD PUSH2 0x128B SWAP2 SWAP1 PUSH2 0x1A6A JUMP JUMPDEST SWAP1 SWAP2 SSTORE POP PUSH2 0x12F5 SWAP1 POP JUMP JUMPDEST PUSH1 0x1 PUSH1 0x1 PUSH1 0xA0 SHL SUB DUP4 AND PUSH1 0x0 SWAP1 DUP2 MSTORE PUSH1 0x20 DUP2 SWAP1 MSTORE PUSH1 0x40 SWAP1 KECCAK256 SLOAD DUP2 DUP2 LT ISZERO PUSH2 0x12D6 JUMPI DUP4 DUP2 DUP4 PUSH1 0x40 MLOAD PUSH4 0x391434E3 PUSH1 0xE2 SHL DUP2 MSTORE PUSH1 0x4 ADD PUSH2 0xBEA SWAP4 SWAP3 SWAP2 SWAP1 PUSH2 0x1C92 JUMP JUMPDEST PUSH1 0x1 PUSH1 0x1 PUSH1 0xA0 SHL SUB DUP5 AND PUSH1 0x0 SWAP1 DUP2 MSTORE PUSH1 0x20 DUP2 SWAP1 MSTORE PUSH1 0x40 SWAP1 KECCAK256 SWAP1 DUP3 SWAP1 SUB SWAP1 SSTORE JUMPDEST PUSH1 0x1 PUSH1 0x1 PUSH1 0xA0 SHL SUB DUP3 AND PUSH2 0x1311 JUMPI PUSH1 0x2 DUP1 SLOAD DUP3 SWAP1 SUB SWAP1 SSTORE PUSH2 0x1330 JUMP JUMPDEST PUSH1 0x1 PUSH1 0x1 PUSH1 0xA0 SHL SUB DUP3 AND PUSH1 0x0 SWAP1 DUP2 MSTORE PUSH1 0x20 DUP2 SWAP1 MSTORE PUSH1 0x40 SWAP1 KECCAK256 DUP1 SLOAD DUP3 ADD SWAP1 SSTORE JUMPDEST DUP2 PUSH1 0x1 PUSH1 0x1 PUSH1 0xA0 SHL SUB AND DUP4 PUSH1 0x1 PUSH1 0x1 PUSH1 0xA0 SHL SUB AND PUSH32 0xDDF252AD1BE2C89B69C2B068FC378DAA952BA7F163C4A11628F55A4DF523B3EF DUP4 PUSH1 0x40 MLOAD PUSH2 0x1375 SWAP2 DUP2 MSTORE PUSH1 0x20 ADD SWAP1 JUMP JUMPDEST PUSH1 0x40 MLOAD DUP1 SWAP2 SUB SWAP1 LOG3 POP POP POP JUMP JUMPDEST PUSH2 0x13AE PUSH32 0x0 DUP6 ADDRESS DUP6 PUSH2 0x1067 JUMP JUMPDEST PUSH2 0x13B8 DUP4 DUP3 PUSH2 0x167C JUMP JUMPDEST DUP3 PUSH1 0x1 PUSH1 0x1 PUSH1 0xA0 SHL SUB AND DUP5 PUSH1 0x1 PUSH1 0x1 PUSH1 0xA0 SHL SUB AND PUSH32 0xDCBC1C05240F31FF3AD067EF1EE35CE4997762752E3A095284754544F4C709D7 DUP5 DUP5 PUSH1 0x40 MLOAD PUSH2 0x125D SWAP3 SWAP2 SWAP1 SWAP2 DUP3 MSTORE PUSH1 0x20 DUP3 ADD MSTORE PUSH1 0x40 ADD SWAP1 JUMP JUMPDEST DUP3 PUSH1 0x1 PUSH1 0x1 PUSH1 0xA0 SHL SUB AND DUP6 PUSH1 0x1 PUSH1 0x1 PUSH1 0xA0 SHL SUB AND EQ PUSH2 0x142A JUMPI PUSH2 0x142A DUP4 DUP7 DUP4 PUSH2 0xD30 JUMP JUMPDEST PUSH2 0x1434 DUP4 DUP3 PUSH2 0x16B6 JUMP JUMPDEST PUSH2 0x145F PUSH32 0x0 DUP6 DUP5 PUSH2 0x16EC JUMP JUMPDEST DUP3 PUSH1 0x1 PUSH1 0x1 PUSH1 0xA0 SHL SUB AND DUP5 PUSH1 0x1 PUSH1 0x1 PUSH1 0xA0 SHL SUB AND DUP7 PUSH1 0x1 PUSH1 0x1 PUSH1 0xA0 SHL SUB AND PUSH32 0xFBDE797D201C681B91056529119E0B02407C7BB96A4A2C75C01FC9667232C8DB DUP6 DUP6 PUSH1 0x40 MLOAD PUSH2 0x14B7 SWAP3 SWAP2 SWAP1 SWAP2 DUP3 MSTORE PUSH1 0x20 DUP3 ADD MSTORE PUSH1 0x40 ADD SWAP1 JUMP JUMPDEST PUSH1 0x40 MLOAD DUP1 SWAP2 SUB SWAP1 LOG4 POP POP POP POP POP JUMP JUMPDEST PUSH1 0x0 DUP1 PUSH2 0x14DC DUP4 DUP6 PUSH1 0x40 ADD MLOAD PUSH2 0x8BB SWAP2 SWAP1 PUSH2 0x1AB7 JUMP JUMPDEST SWAP1 POP PUSH1 0x0 PUSH2 0x14F7 DUP6 PUSH1 0x20 ADD MLOAD DUP7 PUSH1 0x40 ADD MLOAD PUSH2 0x8BB SWAP2 SWAP1 PUSH2 0x1AB7 JUMP JUMPDEST SWAP1 POP DUP5 PUSH1 0x60 ADD MLOAD ISZERO PUSH2 0x1516 JUMPI PUSH2 0x150D DUP2 DUP4 PUSH2 0x1AE7 JUMP JUMPDEST SWAP3 POP POP POP PUSH2 0x663 JUMP JUMPDEST PUSH2 0x150D DUP3 DUP3 PUSH2 0x1AE7 JUMP JUMPDEST POP POP SWAP3 SWAP2 POP POP JUMP JUMPDEST PUSH1 0x0 PUSH2 0x153D PUSH1 0x1 PUSH1 0x1 PUSH1 0xA0 SHL SUB DUP5 AND DUP4 PUSH2 0x171D JUMP JUMPDEST SWAP1 POP DUP1 MLOAD PUSH1 0x0 EQ ISZERO DUP1 ISZERO PUSH2 0x1562 JUMPI POP DUP1 DUP1 PUSH1 0x20 ADD SWAP1 MLOAD DUP2 ADD SWAP1 PUSH2 0x1560 SWAP2 SWAP1 PUSH2 0x1CB3 JUMP JUMPDEST ISZERO JUMPDEST ISZERO PUSH2 0xCFB JUMPI PUSH1 0x40 MLOAD PUSH4 0x5274AFE7 PUSH1 0xE0 SHL DUP2 MSTORE PUSH1 0x1 PUSH1 0x1 PUSH1 0xA0 SHL SUB DUP5 AND PUSH1 0x4 DUP3 ADD MSTORE PUSH1 0x24 ADD PUSH2 0xBEA JUMP JUMPDEST PUSH1 0x0 DUP4 DUP4 MUL DUP2 PUSH1 0x0 NOT DUP6 DUP8 MULMOD DUP3 DUP2 LT DUP4 DUP3 SUB SUB SWAP2 POP POP DUP1 PUSH1 0x0 SUB PUSH2 0x15C2 JUMPI DUP4 DUP3 DUP2 PUSH2 0x15B8 JUMPI PUSH2 0x15B8 PUSH2 0x1B2E JUMP JUMPDEST DIV SWAP3 POP POP POP PUSH2 0x7CD JUMP JUMPDEST DUP1 DUP5 GT PUSH2 0x15E2 JUMPI PUSH1 0x40 MLOAD PUSH4 0x227BC153 PUSH1 0xE0 SHL DUP2 MSTORE PUSH1 0x4 ADD PUSH1 0x40 MLOAD DUP1 SWAP2 SUB SWAP1 REVERT JUMPDEST PUSH1 0x0 DUP5 DUP7 DUP9 MULMOD PUSH1 0x0 DUP7 DUP2 SUB DUP8 AND SWAP7 DUP8 SWAP1 DIV SWAP7 PUSH1 0x2 PUSH1 0x3 DUP10 MUL DUP2 XOR DUP1 DUP11 MUL DUP3 SUB MUL DUP1 DUP11 MUL DUP3 SUB MUL DUP1 DUP11 MUL DUP3 SUB MUL DUP1 DUP11 MUL DUP3 SUB MUL DUP1 DUP11 MUL DUP3 SUB MUL DUP1 DUP11 MUL SWAP1 SWAP2 SUB MUL SWAP2 DUP2 SWAP1 SUB DUP2 SWAP1 DIV PUSH1 0x1 ADD DUP7 DUP5 GT SWAP1 SWAP6 SUB SWAP5 SWAP1 SWAP5 MUL SWAP2 SWAP1 SWAP5 SUB SWAP3 SWAP1 SWAP3 DIV SWAP2 SWAP1 SWAP2 OR SWAP2 SWAP1 SWAP2 MUL SWAP2 POP POP SWAP4 SWAP3 POP POP POP JUMP JUMPDEST PUSH1 0x0 PUSH1 0x2 DUP3 PUSH1 0x3 DUP2 GT ISZERO PUSH2 0x1665 JUMPI PUSH2 0x1665 PUSH2 0x1CD0 JUMP JUMPDEST PUSH2 0x166F SWAP2 SWAP1 PUSH2 0x1CE6 JUMP JUMPDEST PUSH1 0xFF AND PUSH1 0x1 EQ SWAP1 POP SWAP2 SWAP1 POP JUMP JUMPDEST PUSH1 0x1 PUSH1 0x1 PUSH1 0xA0 SHL SUB DUP3 AND PUSH2 0x16A6 JUMPI PUSH1 0x40 MLOAD PUSH4 0xEC442F05 PUSH1 0xE0 SHL DUP2 MSTORE PUSH1 0x0 PUSH1 0x4 DUP3 ADD MSTORE PUSH1 0x24 ADD PUSH2 0xBEA JUMP JUMPDEST PUSH2 0x16B2 PUSH1 0x0 DUP4 DUP4 PUSH2 0x126B JUMP JUMPDEST POP POP JUMP JUMPDEST PUSH1 0x1 PUSH1 0x1 PUSH1 0xA0 SHL SUB DUP3 AND PUSH2 0x16E0 JUMPI PUSH1 0x40 MLOAD PUSH4 0x4B637E8F PUSH1 0xE1 SHL DUP2 MSTORE PUSH1 0x0 PUSH1 0x4 DUP3 ADD MSTORE PUSH1 0x24 ADD PUSH2 0xBEA JUMP JUMPDEST PUSH2 0x16B2 DUP3 PUSH1 0x0 DUP4 PUSH2 0x126B JUMP JUMPDEST PUSH1 0x40 MLOAD PUSH1 0x1 PUSH1 0x1 PUSH1 0xA0 SHL SUB DUP4 DUP2 AND PUSH1 0x24 DUP4 ADD MSTORE PUSH1 0x44 DUP3 ADD DUP4 SWAP1 MSTORE PUSH2 0xCFB SWAP2 DUP6 SWAP2 DUP3 AND SWAP1 PUSH4 0xA9059CBB SWAP1 PUSH1 0x64 ADD PUSH2 0x109C JUMP JUMPDEST PUSH1 0x60 PUSH2 0x7CD DUP4 DUP4 PUSH1 0x0 DUP5 PUSH1 0x0 DUP1 DUP6 PUSH1 0x1 PUSH1 0x1 PUSH1 0xA0 SHL SUB AND DUP5 DUP7 PUSH1 0x40 MLOAD PUSH2 0x1743 SWAP2 SWAP1 PUSH2 0x1D08 JUMP JUMPDEST PUSH1 0x0 PUSH1 0x40 MLOAD DUP1 DUP4 SUB DUP2 DUP6 DUP8 GAS CALL SWAP3 POP POP POP RETURNDATASIZE DUP1 PUSH1 0x0 DUP2 EQ PUSH2 0x1780 JUMPI PUSH1 0x40 MLOAD SWAP2 POP PUSH1 0x1F NOT PUSH1 0x3F RETURNDATASIZE ADD AND DUP3 ADD PUSH1 0x40 MSTORE RETURNDATASIZE DUP3 MSTORE RETURNDATASIZE PUSH1 0x0 PUSH1 0x20 DUP5 ADD RETURNDATACOPY PUSH2 0x1785 JUMP JUMPDEST PUSH1 0x60 SWAP2 POP JUMPDEST POP SWAP2 POP SWAP2 POP PUSH2 0x118C DUP7 DUP4 DUP4 PUSH1 0x60 DUP3 PUSH2 0x17A5 JUMPI PUSH2 0x17A0 DUP3 PUSH2 0x17EC JUMP JUMPDEST PUSH2 0x7CD JUMP JUMPDEST DUP2 MLOAD ISZERO DUP1 ISZERO PUSH2 0x17BC JUMPI POP PUSH1 0x1 PUSH1 0x1 PUSH1 0xA0 SHL SUB DUP5 AND EXTCODESIZE ISZERO JUMPDEST ISZERO PUSH2 0x17E5 JUMPI PUSH1 0x40 MLOAD PUSH4 0x9996B315 PUSH1 0xE0 SHL DUP2 MSTORE PUSH1 0x1 PUSH1 0x1 PUSH1 0xA0 SHL SUB DUP6 AND PUSH1 0x4 DUP3 ADD MSTORE PUSH1 0x24 ADD PUSH2 0xBEA JUMP JUMPDEST POP DUP1 PUSH2 0x7CD JUMP JUMPDEST DUP1 MLOAD ISZERO PUSH2 0x17FC JUMPI DUP1 MLOAD DUP1 DUP3 PUSH1 0x20 ADD REVERT JUMPDEST PUSH1 0x40 MLOAD PUSH4 0xA12F521 PUSH1 0xE1 SHL DUP2 MSTORE PUSH1 0x4 ADD PUSH1 0x40 MLOAD DUP1 SWAP2 SUB SWAP1 REVERT JUMPDEST PUSH1 0x0 JUMPDEST DUP4 DUP2 LT ISZERO PUSH2 0x1830 JUMPI DUP2 DUP2 ADD MLOAD DUP4 DUP3 ADD MSTORE PUSH1 0x20 ADD PUSH2 0x1818 JUMP JUMPDEST POP POP PUSH1 0x0 SWAP2 ADD MSTORE JUMP JUMPDEST PUSH1 0x20 DUP2 MSTORE PUSH1 0x0 DUP3 MLOAD DUP1 PUSH1 0x20 DUP5 ADD MSTORE PUSH2 0x1858 DUP2 PUSH1 0x40 DUP6 ADD PUSH1 0x20 DUP8 ADD PUSH2 0x1815 JUMP JUMPDEST PUSH1 0x1F ADD PUSH1 0x1F NOT AND SWAP2 SWAP1 SWAP2 ADD PUSH1 0x40 ADD SWAP3 SWAP2 POP POP JUMP JUMPDEST PUSH1 0x0 PUSH1 0x20 DUP3 DUP5 SUB SLT ISZERO PUSH2 0x187E JUMPI PUSH1 0x0 DUP1 REVERT JUMPDEST POP CALLDATALOAD SWAP2 SWAP1 POP JUMP JUMPDEST DUP1 CALLDATALOAD PUSH1 0x1 PUSH1 0x1 PUSH1 0xA0 SHL SUB DUP2 AND DUP2 EQ PUSH2 0x189C JUMPI PUSH1 0x0 DUP1 REVERT JUMPDEST SWAP2 SWAP1 POP JUMP JUMPDEST PUSH1 0x0 DUP1 PUSH1 0x40 DUP4 DUP6 SUB SLT ISZERO PUSH2 0x18B4 JUMPI PUSH1 0x0 DUP1 REVERT JUMPDEST PUSH2 0x18BD DUP4 PUSH2 0x1885 JUMP JUMPDEST SWAP5 PUSH1 0x20 SWAP4 SWAP1 SWAP4 ADD CALLDATALOAD SWAP4 POP POP POP JUMP JUMPDEST PUSH1 0x0 DUP1 PUSH1 0x40 DUP4 DUP6 SUB SLT ISZERO PUSH2 0x18DE JUMPI PUSH1 0x0 DUP1 REVERT JUMPDEST POP POP DUP1 CALLDATALOAD SWAP3 PUSH1 0x20 SWAP1 SWAP2 ADD CALLDATALOAD SWAP2 POP JUMP JUMPDEST PUSH1 0x0 PUSH1 0x20 DUP3 DUP5 SUB SLT ISZERO PUSH2 0x18FF JUMPI PUSH1 0x0 DUP1 REVERT JUMPDEST PUSH2 0x7CD DUP3 PUSH2 0x1885 JUMP JUMPDEST PUSH1 0x0 DUP1 PUSH1 0x0 PUSH1 0x60 DUP5 DUP7 SUB SLT ISZERO PUSH2 0x191D JUMPI PUSH1 0x0 DUP1 REVERT JUMPDEST PUSH2 0x1926 DUP5 PUSH2 0x1885 JUMP JUMPDEST SWAP3 POP PUSH2 0x1934 PUSH1 0x20 DUP6 ADD PUSH2 0x1885 JUMP JUMPDEST SWAP2 POP PUSH1 0x40 DUP5 ADD CALLDATALOAD SWAP1 POP SWAP3 POP SWAP3 POP SWAP3 JUMP JUMPDEST PUSH1 0x0 DUP1 PUSH1 0x40 DUP4 DUP6 SUB SLT ISZERO PUSH2 0x1957 JUMPI PUSH1 0x0 DUP1 REVERT JUMPDEST DUP3 CALLDATALOAD SWAP2 POP PUSH2 0x1967 PUSH1 0x20 DUP5 ADD PUSH2 0x1885 JUMP JUMPDEST SWAP1 POP SWAP3 POP SWAP3 SWAP1 POP JUMP JUMPDEST PUSH1 0x0 DUP1 PUSH1 0x0 PUSH1 0x60 DUP5 DUP7 SUB SLT ISZERO PUSH2 0x1985 JUMPI PUSH1 0x0 DUP1 REVERT JUMPDEST DUP4 CALLDATALOAD SWAP3 POP PUSH2 0x1995 PUSH1 0x20 DUP6 ADD PUSH2 0x1885 JUMP JUMPDEST SWAP2 POP PUSH2 0x19A3 PUSH1 0x40 DUP6 ADD PUSH2 0x1885 JUMP JUMPDEST SWAP1 POP SWAP3 POP SWAP3 POP SWAP3 JUMP JUMPDEST DUP1 ISZERO ISZERO DUP2 EQ PUSH2 0xBFC JUMPI PUSH1 0x0 DUP1 REVERT JUMPDEST PUSH1 0x0 DUP1 PUSH1 0x0 DUP1 PUSH1 0x80 DUP6 DUP8 SUB SLT ISZERO PUSH2 0x19D0 JUMPI PUSH1 0x0 DUP1 REVERT JUMPDEST DUP5 CALLDATALOAD SWAP4 POP PUSH1 0x20 DUP6 ADD CALLDATALOAD SWAP3 POP PUSH1 0x40 DUP6 ADD CALLDATALOAD SWAP2 POP PUSH1 0x60 DUP6 ADD CALLDATALOAD PUSH2 0x19F0 DUP2 PUSH2 0x19AC JUMP JUMPDEST SWAP4 SWAP7 SWAP3 SWAP6 POP SWAP1 SWAP4 POP POP JUMP JUMPDEST PUSH1 0x0 DUP1 PUSH1 0x40 DUP4 DUP6 SUB SLT ISZERO PUSH2 0x1A0E JUMPI PUSH1 0x0 DUP1 REVERT JUMPDEST PUSH2 0x1A17 DUP4 PUSH2 0x1885 JUMP JUMPDEST SWAP2 POP PUSH2 0x1967 PUSH1 0x20 DUP5 ADD PUSH2 0x1885 JUMP JUMPDEST PUSH4 0x4E487B71 PUSH1 0xE0 SHL PUSH1 0x0 MSTORE PUSH1 0x11 PUSH1 0x4 MSTORE PUSH1 0x24 PUSH1 0x0 REVERT JUMPDEST DUP2 DUP2 SUB DUP2 DUP2 GT ISZERO PUSH2 0x663 JUMPI PUSH2 0x663 PUSH2 0x1A25 JUMP JUMPDEST PUSH1 0x0 PUSH1 0x1 PUSH1 0xFF SHL DUP3 ADD PUSH2 0x1A63 JUMPI PUSH2 0x1A63 PUSH2 0x1A25 JUMP JUMPDEST POP PUSH1 0x0 SUB SWAP1 JUMP JUMPDEST DUP1 DUP3 ADD DUP1 DUP3 GT ISZERO PUSH2 0x663 JUMPI PUSH2 0x663 PUSH2 0x1A25 JUMP JUMPDEST PUSH1 0x1 DUP2 DUP2 SHR SWAP1 DUP3 AND DUP1 PUSH2 0x1A91 JUMPI PUSH1 0x7F DUP3 AND SWAP2 POP JUMPDEST PUSH1 0x20 DUP3 LT DUP2 SUB PUSH2 0x1AB1 JUMPI PUSH4 0x4E487B71 PUSH1 0xE0 SHL PUSH1 0x0 MSTORE PUSH1 0x22 PUSH1 0x4 MSTORE PUSH1 0x24 PUSH1 0x0 REVERT JUMPDEST POP SWAP2 SWAP1 POP JUMP JUMPDEST DUP1 DUP3 MUL DUP2 ISZERO DUP3 DUP3 DIV DUP5 EQ OR PUSH2 0x663 JUMPI PUSH2 0x663 PUSH2 0x1A25 JUMP JUMPDEST PUSH1 0xFF DUP2 DUP2 AND DUP4 DUP3 AND ADD SWAP1 DUP2 GT ISZERO PUSH2 0x663 JUMPI PUSH2 0x663 PUSH2 0x1A25 JUMP JUMPDEST DUP2 DUP2 SUB PUSH1 0x0 DUP4 SLT DUP1 ISZERO DUP4 DUP4 SGT AND DUP4 DUP4 SLT DUP3 AND OR ISZERO PUSH2 0x1B07 JUMPI PUSH2 0x1B07 PUSH2 0x1A25 JUMP JUMPDEST POP SWAP3 SWAP2 POP POP JUMP JUMPDEST DUP1 DUP3 ADD DUP3 DUP2 SLT PUSH1 0x0 DUP4 SLT DUP1 ISZERO DUP3 AND DUP3 ISZERO DUP3 AND OR ISZERO PUSH2 0x1520 JUMPI PUSH2 0x1520 PUSH2 0x1A25 JUMP JUMPDEST PUSH4 0x4E487B71 PUSH1 0xE0 SHL PUSH1 0x0 MSTORE PUSH1 0x12 PUSH1 0x4 MSTORE PUSH1 0x24 PUSH1 0x0 REVERT JUMPDEST PUSH1 0x0 DUP3 PUSH2 0x1B53 JUMPI PUSH2 0x1B53 PUSH2 0x1B2E JUMP JUMPDEST PUSH1 0x1 PUSH1 0xFF SHL DUP3 EQ PUSH1 0x0 NOT DUP5 EQ AND ISZERO PUSH2 0x1B6D JUMPI PUSH2 0x1B6D PUSH2 0x1A25 JUMP JUMPDEST POP SDIV SWAP1 JUMP JUMPDEST PUSH1 0x0 DUP3 PUSH2 0x1B81 JUMPI PUSH2 0x1B81 PUSH2 0x1B2E JUMP JUMPDEST POP DIV SWAP1 JUMP JUMPDEST PUSH1 0x0 PUSH1 0x20 DUP3 DUP5 SUB SLT ISZERO PUSH2 0x1B98 JUMPI PUSH1 0x0 DUP1 REVERT JUMPDEST POP MLOAD SWAP2 SWAP1 POP JUMP JUMPDEST PUSH1 0x1 DUP2 DUP2 JUMPDEST DUP1 DUP6 GT ISZERO PUSH2 0x1BDA JUMPI DUP2 PUSH1 0x0 NOT DIV DUP3 GT ISZERO PUSH2 0x1BC0 JUMPI PUSH2 0x1BC0 PUSH2 0x1A25 JUMP JUMPDEST DUP1 DUP6 AND ISZERO PUSH2 0x1BCD JUMPI SWAP2 DUP2 MUL SWAP2 JUMPDEST SWAP4 DUP5 SHR SWAP4 SWAP1 DUP1 MUL SWAP1 PUSH2 0x1BA4 JUMP JUMPDEST POP SWAP3 POP SWAP3 SWAP1 POP JUMP JUMPDEST PUSH1 0x0 DUP3 PUSH2 0x1BF1 JUMPI POP PUSH1 0x1 PUSH2 0x663 JUMP JUMPDEST DUP2 PUSH2 0x1BFE JUMPI POP PUSH1 0x0 PUSH2 0x663 JUMP JUMPDEST DUP2 PUSH1 0x1 DUP2 EQ PUSH2 0x1C14 JUMPI PUSH1 0x2 DUP2 EQ PUSH2 0x1C1E JUMPI PUSH2 0x1C3A JUMP JUMPDEST PUSH1 0x1 SWAP2 POP POP PUSH2 0x663 JUMP JUMPDEST PUSH1 0xFF DUP5 GT ISZERO PUSH2 0x1C2F JUMPI PUSH2 0x1C2F PUSH2 0x1A25 JUMP JUMPDEST POP POP PUSH1 0x1 DUP3 SHL PUSH2 0x663 JUMP JUMPDEST POP PUSH1 0x20 DUP4 LT PUSH2 0x133 DUP4 LT AND PUSH1 0x4E DUP5 LT PUSH1 0xB DUP5 LT AND OR ISZERO PUSH2 0x1C5D JUMPI POP DUP2 DUP2 EXP PUSH2 0x663 JUMP JUMPDEST PUSH2 0x1C67 DUP4 DUP4 PUSH2 0x1B9F JUMP JUMPDEST DUP1 PUSH1 0x0 NOT DIV DUP3 GT ISZERO PUSH2 0x1C7B JUMPI PUSH2 0x1C7B PUSH2 0x1A25 JUMP JUMPDEST MUL SWAP4 SWAP3 POP POP POP JUMP JUMPDEST PUSH1 0x0 PUSH2 0x7CD PUSH1 0xFF DUP5 AND DUP4 PUSH2 0x1BE2 JUMP JUMPDEST PUSH1 0x1 PUSH1 0x1 PUSH1 0xA0 SHL SUB SWAP4 SWAP1 SWAP4 AND DUP4 MSTORE PUSH1 0x20 DUP4 ADD SWAP2 SWAP1 SWAP2 MSTORE PUSH1 0x40 DUP3 ADD MSTORE PUSH1 0x60 ADD SWAP1 JUMP JUMPDEST PUSH1 0x0 PUSH1 0x20 DUP3 DUP5 SUB SLT ISZERO PUSH2 0x1CC5 JUMPI PUSH1 0x0 DUP1 REVERT JUMPDEST DUP2 MLOAD PUSH2 0x7CD DUP2 PUSH2 0x19AC JUMP JUMPDEST PUSH4 0x4E487B71 PUSH1 0xE0 SHL PUSH1 0x0 MSTORE PUSH1 0x21 PUSH1 0x4 MSTORE PUSH1 0x24 PUSH1 0x0 REVERT JUMPDEST PUSH1 0x0 PUSH1 0xFF DUP4 AND DUP1 PUSH2 0x1CF9 JUMPI PUSH2 0x1CF9 PUSH2 0x1B2E JUMP JUMPDEST DUP1 PUSH1 0xFF DUP5 AND MOD SWAP2 POP POP SWAP3 SWAP2 POP POP JUMP JUMPDEST PUSH1 0x0 DUP3 MLOAD PUSH2 0x1D1A DUP2 DUP5 PUSH1 0x20 DUP8 ADD PUSH2 0x1815 JUMP JUMPDEST SWAP2 SWAP1 SWAP2 ADD SWAP3 SWAP2 POP POP JUMP INVALID LOG2 PUSH5 0x6970667358 0x22 SLT KECCAK256 CREATE MSTORE8 RETURNDATACOPY MSTORE LOG2 0x2C 0xCC 0x5C SWAP7 0xDF 0xD9 0xDE PUSH26 0xD0B388278B1ED766A7412607D51E17142D846964736F6C634300 ADDMOD EQ STOP CALLER "},"methodIdentifiers":{"MAX_LEVARAGE()":"2bdb4e73","allowance(address,address)":"dd62ed3e","approve(address,uint256)":"095ea7b3","asset()":"38d52e0f","balanceOf(address)":"70a08231","convertToAssets(uint256)":"07a2d13a","convertToShares(uint256)":"c6e6f592","decimals()":"313ce567","deposit(uint256,address)":"6e553f65","getPosition(address)":"16c19739","getPrice(uint256)":"e7572230","getTradersPnL()":"9f006651","getUsdtValue(uint256,uint256)":"169fffe2","i_xdc()":"798cd94c","maxDeposit(address)":"402d267d","maxMint(address)":"c63d75b6","maxRedeem(address)":"d905777e","maxWithdraw(address)":"ce96cb77","mint(uint256,address)":"94bf804d","name()":"06fdde03","openPosition(uint256,uint256,uint256,bool)":"d4d5c230","owner()":"8da5cb5b","previewDeposit(uint256)":"ef8b30f7","previewMint(uint256)":"b3d7f6b9","previewRedeem(uint256)":"4cdad506","previewWithdraw(uint256)":"0a28a477","redeem(uint256,address,address)":"ba087652","renounceOwnership()":"715018a6","s_totalLiquidityDeposited()":"0258d92a","symbol()":"95d89b41","totalAssets()":"01e1d114","totalSupply()":"18160ddd","tradersCollateral()":"dd5b2f52","transfer(address,uint256)":"a9059cbb","transferFrom(address,address,uint256)":"23b872dd","transferOwnership(address)":"f2fde38b","tryfunction()":"403f8ba1","withdraw(uint256,address,address)":"b460af94"}}}}}