{"contracts/UDex.sol":{"UDex":{"abi":[{"inputs":[{"internalType":"address","name":"priceFeed","type":"address"},{"internalType":"contract IERC20","name":"_xdc","type":"address"}],"stateMutability":"nonpayable","type":"constructor"},{"inputs":[{"internalType":"address","name":"target","type":"address"}],"name":"AddressEmptyCode","type":"error"},{"inputs":[{"internalType":"address","name":"account","type":"address"}],"name":"AddressInsufficientBalance","type":"error"},{"inputs":[{"internalType":"address","name":"spender","type":"address"},{"internalType":"uint256","name":"allowance","type":"uint256"},{"internalType":"uint256","name":"needed","type":"uint256"}],"name":"ERC20InsufficientAllowance","type":"error"},{"inputs":[{"internalType":"address","name":"sender","type":"address"},{"internalType":"uint256","name":"balance","type":"uint256"},{"internalType":"uint256","name":"needed","type":"uint256"}],"name":"ERC20InsufficientBalance","type":"error"},{"inputs":[{"internalType":"address","name":"approver","type":"address"}],"name":"ERC20InvalidApprover","type":"error"},{"inputs":[{"internalType":"address","name":"receiver","type":"address"}],"name":"ERC20InvalidReceiver","type":"error"},{"inputs":[{"internalType":"address","name":"sender","type":"address"}],"name":"ERC20InvalidSender","type":"error"},{"inputs":[{"internalType":"address","name":"spender","type":"address"}],"name":"ERC20InvalidSpender","type":"error"},{"inputs":[{"internalType":"address","name":"receiver","type":"address"},{"internalType":"uint256","name":"assets","type":"uint256"},{"internalType":"uint256","name":"max","type":"uint256"}],"name":"ERC4626ExceededMaxDeposit","type":"error"},{"inputs":[{"internalType":"address","name":"receiver","type":"address"},{"internalType":"uint256","name":"shares","type":"uint256"},{"internalType":"uint256","name":"max","type":"uint256"}],"name":"ERC4626ExceededMaxMint","type":"error"},{"inputs":[{"internalType":"address","name":"owner","type":"address"},{"internalType":"uint256","name":"shares","type":"uint256"},{"internalType":"uint256","name":"max","type":"uint256"}],"name":"ERC4626ExceededMaxRedeem","type":"error"},{"inputs":[{"internalType":"address","name":"owner","type":"address"},{"internalType":"uint256","name":"assets","type":"uint256"},{"internalType":"uint256","name":"max","type":"uint256"}],"name":"ERC4626ExceededMaxWithdraw","type":"error"},{"inputs":[],"name":"FailedInnerCall","type":"error"},{"inputs":[],"name":"MathOverflowedMulDiv","type":"error"},{"inputs":[{"internalType":"address","name":"owner","type":"address"}],"name":"OwnableInvalidOwner","type":"error"},{"inputs":[{"internalType":"address","name":"account","type":"address"}],"name":"OwnableUnauthorizedAccount","type":"error"},{"inputs":[],"name":"ReentrancyGuardReentrantCall","type":"error"},{"inputs":[{"internalType":"int256","name":"value","type":"int256"}],"name":"SafeCastOverflowedIntToUint","type":"error"},{"inputs":[{"internalType":"uint256","name":"value","type":"uint256"}],"name":"SafeCastOverflowedUintToInt","type":"error"},{"inputs":[{"internalType":"address","name":"token","type":"address"}],"name":"SafeERC20FailedOperation","type":"error"},{"inputs":[],"name":"UDex__BreaksHealthFactor","type":"error"},{"inputs":[],"name":"UDex__ErrorInsufficientCollateral","type":"error"},{"inputs":[],"name":"UDex__ErrorSize","type":"error"},{"inputs":[],"name":"UDex__InsufficientPositionCollateral","type":"error"},{"inputs":[],"name":"UDex__PositionAlreadyExist","type":"error"},{"inputs":[],"name":"UDex__PositionDoesNotExist","type":"error"},{"anonymous":false,"inputs":[{"indexed":true,"internalType":"address","name":"owner","type":"address"},{"indexed":true,"internalType":"address","name":"spender","type":"address"},{"indexed":false,"internalType":"uint256","name":"value","type":"uint256"}],"name":"Approval","type":"event"},{"anonymous":false,"inputs":[{"indexed":true,"internalType":"address","name":"sender","type":"address"},{"indexed":true,"internalType":"address","name":"owner","type":"address"},{"indexed":false,"internalType":"uint256","name":"assets","type":"uint256"},{"indexed":false,"internalType":"uint256","name":"shares","type":"uint256"}],"name":"Deposit","type":"event"},{"anonymous":false,"inputs":[{"indexed":true,"internalType":"address","name":"previousOwner","type":"address"},{"indexed":true,"internalType":"address","name":"newOwner","type":"address"}],"name":"OwnershipTransferred","type":"event"},{"anonymous":false,"inputs":[{"indexed":true,"internalType":"address","name":"user","type":"address"},{"indexed":false,"internalType":"uint256","name":"collateralDecreased","type":"uint256"},{"indexed":false,"internalType":"uint256","name":"sizeDecreased","type":"uint256"}],"name":"PositionDecreased","type":"event"},{"anonymous":false,"inputs":[{"indexed":true,"internalType":"address","name":"user","type":"address"},{"indexed":false,"internalType":"bool","name":"isLong","type":"bool"},{"indexed":false,"internalType":"uint256","name":"collateral","type":"uint256"},{"indexed":false,"internalType":"uint256","name":"size","type":"uint256"},{"indexed":false,"internalType":"uint256","name":"xdcAmount","type":"uint256"},{"indexed":false,"internalType":"uint256","name":"avgXdcPrice","type":"uint256"}],"name":"PositionOpened","type":"event"},{"anonymous":false,"inputs":[{"indexed":true,"internalType":"address","name":"from","type":"address"},{"indexed":true,"internalType":"address","name":"to","type":"address"},{"indexed":false,"internalType":"uint256","name":"value","type":"uint256"}],"name":"Transfer","type":"event"},{"anonymous":false,"inputs":[{"indexed":true,"internalType":"address","name":"sender","type":"address"},{"indexed":true,"internalType":"address","name":"receiver","type":"address"},{"indexed":true,"internalType":"address","name":"owner","type":"address"},{"indexed":false,"internalType":"uint256","name":"assets","type":"uint256"},{"indexed":false,"internalType":"uint256","name":"shares","type":"uint256"}],"name":"Withdraw","type":"event"},{"inputs":[],"name":"MAX_LEVARAGE","outputs":[{"internalType":"uint256","name":"","type":"uint256"}],"stateMutability":"view","type":"function"},{"inputs":[{"internalType":"address","name":"owner","type":"address"},{"internalType":"address","name":"spender","type":"address"}],"name":"allowance","outputs":[{"internalType":"uint256","name":"","type":"uint256"}],"stateMutability":"view","type":"function"},{"inputs":[{"internalType":"address","name":"spender","type":"address"},{"internalType":"uint256","name":"value","type":"uint256"}],"name":"approve","outputs":[{"internalType":"bool","name":"","type":"bool"}],"stateMutability":"nonpayable","type":"function"},{"inputs":[],"name":"asset","outputs":[{"internalType":"address","name":"","type":"address"}],"stateMutability":"view","type":"function"},{"inputs":[{"internalType":"address","name":"account","type":"address"}],"name":"balanceOf","outputs":[{"internalType":"uint256","name":"","type":"uint256"}],"stateMutability":"view","type":"function"},{"inputs":[{"internalType":"uint256","name":"shares","type":"uint256"}],"name":"convertToAssets","outputs":[{"internalType":"uint256","name":"","type":"uint256"}],"stateMutability":"view","type":"function"},{"inputs":[{"internalType":"uint256","name":"assets","type":"uint256"}],"name":"convertToShares","outputs":[{"internalType":"uint256","name":"","type":"uint256"}],"stateMutability":"view","type":"function"},{"inputs":[],"name":"decimals","outputs":[{"internalType":"uint8","name":"","type":"uint8"}],"stateMutability":"view","type":"function"},{"inputs":[{"internalType":"uint256","name":"assets","type":"uint256"},{"internalType":"address","name":"receiver","type":"address"}],"name":"deposit","outputs":[{"internalType":"uint256","name":"shares","type":"uint256"}],"stateMutability":"nonpayable","type":"function"},{"inputs":[{"internalType":"address","name":"owner","type":"address"}],"name":"getPosition","outputs":[{"components":[{"internalType":"uint256","name":"collateral","type":"uint256"},{"internalType":"uint256","name":"avgXdcPrice","type":"uint256"},{"internalType":"uint256","name":"xdcAmount","type":"uint256"},{"internalType":"bool","name":"isLong","type":"bool"},{"internalType":"uint256","name":"lastChangeTimestamp","type":"uint256"}],"internalType":"struct UDex.Position","name":"position","type":"tuple"}],"stateMutability":"view","type":"function"},{"inputs":[{"internalType":"uint256","name":"currentXDCPrice","type":"uint256"}],"name":"getPrice","outputs":[{"internalType":"uint256","name":"","type":"uint256"}],"stateMutability":"view","type":"function"},{"inputs":[],"name":"getTradersPnL","outputs":[{"internalType":"int256","name":"","type":"int256"}],"stateMutability":"view","type":"function"},{"inputs":[{"internalType":"uint256","name":"amount","type":"uint256"},{"internalType":"uint256","name":"currentXDCPrice","type":"uint256"}],"name":"getUsdtValue","outputs":[{"internalType":"uint256","name":"","type":"uint256"}],"stateMutability":"view","type":"function"},{"inputs":[],"name":"i_xdc","outputs":[{"internalType":"contract IERC20","name":"","type":"address"}],"stateMutability":"view","type":"function"},{"inputs":[{"internalType":"address","name":"","type":"address"}],"name":"maxDeposit","outputs":[{"internalType":"uint256","name":"","type":"uint256"}],"stateMutability":"view","type":"function"},{"inputs":[{"internalType":"address","name":"","type":"address"}],"name":"maxMint","outputs":[{"internalType":"uint256","name":"","type":"uint256"}],"stateMutability":"view","type":"function"},{"inputs":[{"internalType":"address","name":"owner","type":"address"}],"name":"maxRedeem","outputs":[{"internalType":"uint256","name":"","type":"uint256"}],"stateMutability":"view","type":"function"},{"inputs":[{"internalType":"address","name":"owner","type":"address"}],"name":"maxWithdraw","outputs":[{"internalType":"uint256","name":"","type":"uint256"}],"stateMutability":"view","type":"function"},{"inputs":[{"internalType":"uint256","name":"shares","type":"uint256"},{"internalType":"address","name":"receiver","type":"address"}],"name":"mint","outputs":[{"internalType":"uint256","name":"assets","type":"uint256"}],"stateMutability":"nonpayable","type":"function"},{"inputs":[],"name":"name","outputs":[{"internalType":"string","name":"","type":"string"}],"stateMutability":"view","type":"function"},{"inputs":[{"internalType":"uint256","name":"size","type":"uint256"},{"internalType":"uint256","name":"collateral","type":"uint256"},{"internalType":"uint256","name":"currentXDCPrice","type":"uint256"},{"internalType":"bool","name":"isLong","type":"bool"}],"name":"openPosition","outputs":[],"stateMutability":"nonpayable","type":"function"},{"inputs":[],"name":"owner","outputs":[{"internalType":"address","name":"","type":"address"}],"stateMutability":"view","type":"function"},{"inputs":[{"internalType":"uint256","name":"assets","type":"uint256"}],"name":"previewDeposit","outputs":[{"internalType":"uint256","name":"","type":"uint256"}],"stateMutability":"view","type":"function"},{"inputs":[{"internalType":"uint256","name":"shares","type":"uint256"}],"name":"previewMint","outputs":[{"internalType":"uint256","name":"","type":"uint256"}],"stateMutability":"view","type":"function"},{"inputs":[{"internalType":"uint256","name":"shares","type":"uint256"}],"name":"previewRedeem","outputs":[{"internalType":"uint256","name":"","type":"uint256"}],"stateMutability":"view","type":"function"},{"inputs":[{"internalType":"uint256","name":"assets","type":"uint256"}],"name":"previewWithdraw","outputs":[{"internalType":"uint256","name":"","type":"uint256"}],"stateMutability":"view","type":"function"},{"inputs":[{"internalType":"uint256","name":"shares","type":"uint256"},{"internalType":"address","name":"receiver","type":"address"},{"internalType":"address","name":"owner","type":"address"}],"name":"redeem","outputs":[{"internalType":"uint256","name":"assets","type":"uint256"}],"stateMutability":"nonpayable","type":"function"},{"inputs":[],"name":"renounceOwnership","outputs":[],"stateMutability":"nonpayable","type":"function"},{"inputs":[],"name":"s_totalLiquidityDeposited","outputs":[{"internalType":"uint256","name":"","type":"uint256"}],"stateMutability":"view","type":"function"},{"inputs":[],"name":"symbol","outputs":[{"internalType":"string","name":"","type":"string"}],"stateMutability":"view","type":"function"},{"inputs":[],"name":"totalAssets","outputs":[{"internalType":"uint256","name":"","type":"uint256"}],"stateMutability":"view","type":"function"},{"inputs":[],"name":"totalSupply","outputs":[{"internalType":"uint256","name":"","type":"uint256"}],"stateMutability":"view","type":"function"},{"inputs":[],"name":"tradersCollateral","outputs":[{"internalType":"uint256","name":"","type":"uint256"}],"stateMutability":"view","type":"function"},{"inputs":[{"internalType":"address","name":"to","type":"address"},{"internalType":"uint256","name":"value","type":"uint256"}],"name":"transfer","outputs":[{"internalType":"bool","name":"","type":"bool"}],"stateMutability":"nonpayable","type":"function"},{"inputs":[{"internalType":"address","name":"from","type":"address"},{"internalType":"address","name":"to","type":"address"},{"internalType":"uint256","name":"value","type":"uint256"}],"name":"transferFrom","outputs":[{"internalType":"bool","name":"","type":"bool"}],"stateMutability":"nonpayable","type":"function"},{"inputs":[{"internalType":"address","name":"newOwner","type":"address"}],"name":"transferOwnership","outputs":[],"stateMutability":"nonpayable","type":"function"},{"inputs":[{"internalType":"bool","name":"isTrue","type":"bool"}],"name":"tryfunction","outputs":[{"internalType":"bool","name":"","type":"bool"}],"stateMutability":"nonpayable","type":"function"},{"inputs":[{"internalType":"uint256","name":"assets","type":"uint256"},{"internalType":"address","name":"receiver","type":"address"},{"internalType":"address","name":"owner","type":"address"}],"name":"withdraw","outputs":[{"internalType":"uint256","name":"shares","type":"uint256"}],"stateMutability":"nonpayable","type":"function"}],"evm":{"bytecode":{"linkReferences":{},"object":"60e06040523480156200001157600080fd5b50604051620022343803806200223483398101604081905262000034916200026b565b3381604051806040016040528060048152602001630aa88caf60e31b815250604051806040016040528060038152602001620aa88b60eb1b81525081600390816200008091906200034f565b5060046200008f82826200034f565b505050600080620000a6836200011b60201b60201c565b9150915081620000b8576012620000ba565b805b60ff1660a05250506001600160a01b039081166080528116620000f757604051631e4fbdf760e01b81526000600482015260240160405180910390fd5b620001028162000200565b5060016006556001600160a01b031660c0525062000466565b60408051600481526024810182526020810180516001600160e01b031663313ce56760e01b17905290516000918291829182916001600160a01b0387169162000164916200041b565b600060405180830381855afa9150503d8060008114620001a1576040519150601f19603f3d011682016040523d82523d6000602084013e620001a6565b606091505b5091509150818015620001bb57506020815110155b15620001f357600081806020019051810190620001d991906200044c565b905060ff8111620001f1576001969095509350505050565b505b5060009485945092505050565b600580546001600160a01b038381166001600160a01b0319831681179093556040519116919082907f8be0079c531659141344cd1fd0a4f28419497f9722a3daafe3b4186f6b6457e090600090a35050565b6001600160a01b03811681146200026857600080fd5b50565b600080604083850312156200027f57600080fd5b82516200028c8162000252565b60208401519092506200029f8162000252565b809150509250929050565b634e487b7160e01b600052604160045260246000fd5b600181811c90821680620002d557607f821691505b602082108103620002f657634e487b7160e01b600052602260045260246000fd5b50919050565b601f8211156200034a57600081815260208120601f850160051c81016020861015620003255750805b601f850160051c820191505b81811015620003465782815560010162000331565b5050505b505050565b81516001600160401b038111156200036b576200036b620002aa565b62000383816200037c8454620002c0565b84620002fc565b602080601f831160018114620003bb5760008415620003a25750858301515b600019600386901b1c1916600185901b17855562000346565b600085815260208120601f198616915b82811015620003ec57888601518255948401946001909101908401620003cb565b50858210156200040b5787850151600019600388901b60f8161c191681555b5050505050600190811b01905550565b6000825160005b818110156200043e576020818601810151858301520162000422565b506000920191825250919050565b6000602082840312156200045f57600080fd5b5051919050565b60805160a05160c051611d82620004b2600039600081816103fa0152610aa4015260006107e701526000818161036201528181610c4c0152818161139201526114440152611d826000f3fe608060405234801561001057600080fd5b50600436106102325760003560e01c80638da5cb5b11610130578063c6e6f592116100b8578063dd5b2f521161007c578063dd5b2f52146104fc578063dd62ed3e14610505578063e75722301461053e578063ef8b30f71461049c578063f2fde38b1461054f57600080fd5b8063c6e6f5921461049c578063cc265da9146104af578063ce96cb77146104c3578063d4d5c230146104d6578063d905777e146104e957600080fd5b8063a9059cbb116100ff578063a9059cbb14610450578063b3d7f6b914610463578063b460af9414610476578063ba08765214610489578063c63d75b61461039a57600080fd5b80638da5cb5b1461041c57806394bf804d1461042d57806395d89b41146104405780639f0066511461044857600080fd5b806323b872dd116101be5780634cdad506116101825780634cdad506146102705780636e553f65146103af57806370a08231146103c2578063715018a6146103eb578063798cd94c146103f557600080fd5b806323b872dd1461032b5780632bdb4e731461033e578063313ce5671461034657806338d52e0f14610360578063402d267d1461039a57600080fd5b8063095ea7b311610205578063095ea7b3146102835780630a28a477146102a6578063169fffe2146102b957806316c19739146102cc57806318160ddd1461032357600080fd5b806301e1d114146102375780630258d92a1461025257806306fdde031461025b57806307a2d13a14610270575b600080fd5b61023f610562565b6040519081526020015b60405180910390f35b61023f600e5481565b6102636105cf565b6040516102499190611844565b61023f61027e366004611877565b610661565b6102966102913660046118ac565b610674565b6040519015158152602001610249565b61023f6102b4366004611877565b61068c565b61023f6102c73660046118d6565b610699565b6102df6102da3660046118f8565b6106b0565b6040516102499190600060a0820190508251825260208301516020830152604083015160408301526060830151151560608301526080830151608083015292915050565b60025461023f565b610296610339366004611913565b6107b9565b61023f600f81565b61034e6107df565b60405160ff9091168152602001610249565b7f00000000000000000000000000000000000000000000000000000000000000005b6040516001600160a01b039091168152602001610249565b61023f6103a83660046118f8565b5060001990565b61023f6103bd36600461194f565b610810565b61023f6103d03660046118f8565b6001600160a01b031660009081526020819052604090205490565b6103f3610848565b005b6103827f000000000000000000000000000000000000000000000000000000000000000081565b6005546001600160a01b0316610382565b61023f61043b36600461194f565b61085c565b610263610893565b61023f6108a2565b61029661045e3660046118ac565b610928565b61023f610471366004611877565b610936565b61023f61048436600461197b565b610943565b61023f61049736600461197b565b61097c565b61023f6104aa366004611877565b6109b4565b6102966104bd3660046119c5565b50600190565b61023f6104d13660046118f8565b6109c1565b6103f36104e43660046119e2565b6109e5565b61023f6104f73660046118f8565b610ba9565b61023f600c5481565b61023f610513366004611a23565b6001600160a01b03918216600090815260016020908152604080832093909416825291909152205490565b61023f61054c366004611877565b90565b6103f361055d3660046118f8565b610bc7565b60008061056d6108a2565b905060008113156105a657600c5461058482610c0a565b61058c610c34565b6105969190611a63565b6105a09190611a63565b91505090565b6105af81611a76565b9050600c546105bd82610c0a565b6105c5610c34565b6105969190611a92565b6060600380546105de90611aa5565b80601f016020809104026020016040519081016040528092919081815260200182805461060a90611aa5565b80156106575780601f1061062c57610100808354040283529160200191610657565b820191906000526020600020905b81548152906001019060200180831161063a57829003601f168201915b5050505050905090565b600061066e826000610cbf565b92915050565b600033610682818585610cf9565b5060019392505050565b600061066e826001610d0b565b600081816106a78583611adf565b95945050505050565b6106e46040518060a00160405280600081526020016000815260200160008152602001600015158152602001600081525090565b6001600160a01b0382166000908152600b60209081526040808320815160a0810183528154808252600183015494820194909452600282015492810192909252600381015460ff1615156060830152600401546080820152910361075b57604051632f4cb18560e21b815260040160405180910390fd5b50506001600160a01b03166000908152600b6020908152604091829020825160a08101845281548152600182015492810192909252600281015492820192909252600382015460ff1615156060820152600490910154608082015290565b6000336107c7858285610d3b565b6107d2858585610da6565b60019150505b9392505050565b600061080b817f0000000000000000000000000000000000000000000000000000000000000000611af6565b905090565b600061081a610e05565b600083600e5461082a9190611a92565b90506108368484610e2f565b600e91909155905061066e6001600655565b610850610e55565b61085a6000610e82565b565b6000610866610e05565b6108708383610ed4565b905080600e60008282546108849190611a92565b9091555050600160065561066e565b6060600480546105de90611aa5565b6000806108b3600760000154610ef2565b6108cb6108c66007600101546001610699565b610ef2565b6108d59190611b0f565b905060006108ec6108c66009600101546001610699565b6009546108f890610ef2565b6109029190611b0f565b9050670de0b6b3a76400006109178383611b36565b6109219190611b6c565b9250505090565b600033610682818585610da6565b600061066e826001610cbf565b600061094d610e05565b600084600e5461095d9190611a63565b905061096a858585610f1f565b600e9190915590506107d86001600655565b6000610986610e05565b610991848484610f6e565b905080600e60008282546109a59190611a63565b909155505060016006556107d8565b600061066e826000610d0b565b6001600160a01b03811660009081526020819052604081205461066e906000610cbf565b60008311610a0657604051637b92cb4360e01b815260040160405180910390fd5b60008411610a275760405163062a73c560e41b815260040160405180910390fd5b336000908152600b602052604090205415610a5557604051630c7b567d60e31b815260040160405180910390fd5b60006040518060a001604052808581526020018481526020018487610a7a9190611b9a565b81526020018315158152602001428152509050610a978184610fbd565b610acc6001600160a01b037f000000000000000000000000000000000000000000000000000000000000000016333087611072565b8051600c8054600090610ae0908490611a92565b9091555050336000908152600b6020908152604091829020835181559083015160018201559082015160028201819055606083015160038301805460ff19169115159190911790556080830151600490920191909155610b42908690846110d9565b606081810151604080840151602080860151835194151585529084018a9052838301899052938301526080820192909252905133917f0e8f4b81343afa64bc4ddcfbf2d80e883e0ddfc6663c400ca09da13d1d28d588919081900360a00190a25050505050565b6001600160a01b03811660009081526020819052604081205461066e565b610bcf610e55565b6001600160a01b038116610bfe57604051631e4fbdf760e01b8152600060048201526024015b60405180910390fd5b610c0781610e82565b50565b600080821215610c3057604051635467221960e11b815260048101839052602401610bf5565b5090565b6040516370a0823160e01b81523060048201526000907f00000000000000000000000000000000000000000000000000000000000000006001600160a01b0316906370a0823190602401602060405180830381865afa158015610c9b573d6000803e3d6000fd5b505050506040513d601f19601f8201168201806040525081019061080b9190611bae565b60006107d8610ccc610562565b610cd7906001611a92565b610ce36000600a611cab565b600254610cf09190611a92565b85919085611152565b610d0683838360016111a1565b505050565b60006107d8610d1b82600a611cab565b600254610d289190611a92565b610d30610562565b610cf0906001611a92565b6001600160a01b038381166000908152600160209081526040808320938616835292905220546000198114610da05781811015610d9157828183604051637dc7a0d960e11b8152600401610bf593929190611cba565b610da0848484840360006111a1565b50505050565b6001600160a01b038316610dd057604051634b637e8f60e11b815260006004820152602401610bf5565b6001600160a01b038216610dfa5760405163ec442f0560e01b815260006004820152602401610bf5565b610d06838383611276565b600260065403610e2857604051633ee5aeb560e01b815260040160405180910390fd5b6002600655565b60006000196000610e3f856109b4565b9050610e4d3385878461138d565b949350505050565b6005546001600160a01b0316331461085a5760405163118cdaa760e01b8152336004820152602401610bf5565b600580546001600160a01b038381166001600160a01b0319831681179093556040519116919082907f8be0079c531659141344cd1fd0a4f28419497f9722a3daafe3b4186f6b6457e090600090a35050565b60006000196000610ee485610936565b9050610e4d3385838861138d565b60006001600160ff1b03821115610c305760405163123baf0360e11b815260048101839052602401610bf5565b600080610f2b836109c1565b905080851115610f5457828582604051633fa733bb60e21b8152600401610bf593929190611cba565b6000610f5f8661068c565b90506106a73386868985611411565b600080610f7a83610ba9565b905080851115610fa357828582604051632e52afbb60e21b8152600401610bf593929190611cba565b6000610fae86610661565b90506106a7338686848a611411565b6000610fc983836114d1565b9050600081610fdb8560000151610ef2565b610fe59190611b36565b13611003576040516327ad135d60e11b815260040160405180910390fd5b6000611025826110168660000151610ef2565b6110209190611b36565b610c0a565b90506000818560200151866040015161103e9190611adf565b6110489190611b9a565b9050600f811061106b57604051633e5ff32760e21b815260040160405180910390fd5b5050505050565b6040516001600160a01b038481166024830152838116604483015260648201839052610da09186918216906323b872dd906084015b604051602081830303815290604052915060e01b6020820180516001600160e01b038381831617835250505050611533565b80156111195782600760000160008282546110f49190611a92565b90915550506008805483919060009061110e908490611a92565b90915550610d069050565b826009600001600082825461112e9190611a92565b9091555050600a8054839190600090611148908490611a92565b9091555050505050565b600080611160868686611596565b905061116b8361165a565b801561118757506000848061118257611182611b56565b868809115b156106a757611197600182611a92565b9695505050505050565b6001600160a01b0384166111cb5760405163e602df0560e01b815260006004820152602401610bf5565b6001600160a01b0383166111f557604051634a1406b160e11b815260006004820152602401610bf5565b6001600160a01b0380851660009081526001602090815260408083209387168352929052208290558015610da057826001600160a01b0316846001600160a01b03167f8c5be1e5ebec7d5bd14f71427d1e84f3dd0314c0f7b2291e5b200ac8c7c3b9258460405161126891815260200190565b60405180910390a350505050565b6001600160a01b0383166112a15780600260008282546112969190611a92565b909155506113009050565b6001600160a01b038316600090815260208190526040902054818110156112e15783818360405163391434e360e21b8152600401610bf593929190611cba565b6001600160a01b03841660009081526020819052604090209082900390555b6001600160a01b03821661131c5760028054829003905561133b565b6001600160a01b03821660009081526020819052604090208054820190555b816001600160a01b0316836001600160a01b03167fddf252ad1be2c89b69c2b068fc378daa952ba7f163c4a11628f55a4df523b3ef8360405161138091815260200190565b60405180910390a3505050565b6113b97f0000000000000000000000000000000000000000000000000000000000000000853085611072565b6113c38382611687565b826001600160a01b0316846001600160a01b03167fdcbc1c05240f31ff3ad067ef1ee35ce4997762752e3a095284754544f4c709d78484604051611268929190918252602082015260400190565b826001600160a01b0316856001600160a01b03161461143557611435838683610d3b565b61143f83826116c1565b61146a7f000000000000000000000000000000000000000000000000000000000000000085846116f7565b826001600160a01b0316846001600160a01b0316866001600160a01b03167ffbde797d201c681b91056529119e0b02407c7bb96a4a2c75c01fc9667232c8db85856040516114c2929190918252602082015260400190565b60405180910390a45050505050565b6000806114e78385604001516108c69190611adf565b90506000611502856020015186604001516108c69190611adf565b9050846060015115611521576115188183611b0f565b9250505061066e565b6115188282611b0f565b505092915050565b60006115486001600160a01b03841683611728565b9050805160001415801561156d57508080602001905181019061156b9190611cdb565b155b15610d0657604051635274afe760e01b81526001600160a01b0384166004820152602401610bf5565b60008383028160001985870982811083820303915050806000036115cd578382816115c3576115c3611b56565b04925050506107d8565b8084116115ed5760405163227bc15360e01b815260040160405180910390fd5b6000848688096000868103871696879004966002600389028118808a02820302808a02820302808a02820302808a02820302808a02820302808a02909103029181900381900460010186841190950394909402919094039290920491909117919091029150509392505050565b6000600282600381111561167057611670611cf8565b61167a9190611d0e565b60ff166001149050919050565b6001600160a01b0382166116b15760405163ec442f0560e01b815260006004820152602401610bf5565b6116bd60008383611276565b5050565b6001600160a01b0382166116eb57604051634b637e8f60e11b815260006004820152602401610bf5565b6116bd82600083611276565b6040516001600160a01b03838116602483015260448201839052610d0691859182169063a9059cbb906064016110a7565b60606107d88383600084600080856001600160a01b0316848660405161174e9190611d30565b60006040518083038185875af1925050503d806000811461178b576040519150601f19603f3d011682016040523d82523d6000602084013e611790565b606091505b50915091506111978683836060826117b0576117ab826117f7565b6107d8565b81511580156117c757506001600160a01b0384163b155b156117f057604051639996b31560e01b81526001600160a01b0385166004820152602401610bf5565b50806107d8565b8051156118075780518082602001fd5b604051630a12f52160e11b815260040160405180910390fd5b60005b8381101561183b578181015183820152602001611823565b50506000910152565b6020815260008251806020840152611863816040850160208701611820565b601f01601f19169190910160400192915050565b60006020828403121561188957600080fd5b5035919050565b80356001600160a01b03811681146118a757600080fd5b919050565b600080604083850312156118bf57600080fd5b6118c883611890565b946020939093013593505050565b600080604083850312156118e957600080fd5b50508035926020909101359150565b60006020828403121561190a57600080fd5b6107d882611890565b60008060006060848603121561192857600080fd5b61193184611890565b925061193f60208501611890565b9150604084013590509250925092565b6000806040838503121561196257600080fd5b8235915061197260208401611890565b90509250929050565b60008060006060848603121561199057600080fd5b833592506119a060208501611890565b91506119ae60408501611890565b90509250925092565b8015158114610c0757600080fd5b6000602082840312156119d757600080fd5b81356107d8816119b7565b600080600080608085870312156119f857600080fd5b8435935060208501359250604085013591506060850135611a18816119b7565b939692955090935050565b60008060408385031215611a3657600080fd5b611a3f83611890565b915061197260208401611890565b634e487b7160e01b600052601160045260246000fd5b8181038181111561066e5761066e611a4d565b6000600160ff1b8201611a8b57611a8b611a4d565b5060000390565b8082018082111561066e5761066e611a4d565b600181811c90821680611ab957607f821691505b602082108103611ad957634e487b7160e01b600052602260045260246000fd5b50919050565b808202811582820484141761066e5761066e611a4d565b60ff818116838216019081111561066e5761066e611a4d565b8181036000831280158383131683831282161715611b2f57611b2f611a4d565b5092915050565b808201828112600083128015821682158216171561152b5761152b611a4d565b634e487b7160e01b600052601260045260246000fd5b600082611b7b57611b7b611b56565b600160ff1b821460001984141615611b9557611b95611a4d565b500590565b600082611ba957611ba9611b56565b500490565b600060208284031215611bc057600080fd5b5051919050565b600181815b80851115611c02578160001904821115611be857611be8611a4d565b80851615611bf557918102915b93841c9390800290611bcc565b509250929050565b600082611c195750600161066e565b81611c265750600061066e565b8160018114611c3c5760028114611c4657611c62565b600191505061066e565b60ff841115611c5757611c57611a4d565b50506001821b61066e565b5060208310610133831016604e8410600b8410161715611c85575081810a61066e565b611c8f8383611bc7565b8060001904821115611ca357611ca3611a4d565b029392505050565b60006107d860ff841683611c0a565b6001600160a01b039390931683526020830191909152604082015260600190565b600060208284031215611ced57600080fd5b81516107d8816119b7565b634e487b7160e01b600052602160045260246000fd5b600060ff831680611d2157611d21611b56565b8060ff84160691505092915050565b60008251611d42818460208701611820565b919091019291505056fea2646970667358221220cffa4ce0f91f446a2c8f990a155173c691bff35ced68b07e4353033f7f01856064736f6c63430008140033","opcodes":"PUSH1 0xE0 PUSH1 0x40 MSTORE CALLVALUE DUP1 ISZERO PUSH3 0x11 JUMPI PUSH1 0x0 DUP1 REVERT JUMPDEST POP PUSH1 0x40 MLOAD PUSH3 0x2234 CODESIZE SUB DUP1 PUSH3 0x2234 DUP4 CODECOPY DUP2 ADD PUSH1 0x40 DUP2 SWAP1 MSTORE PUSH3 0x34 SWAP2 PUSH3 0x26B JUMP JUMPDEST CALLER DUP2 PUSH1 0x40 MLOAD DUP1 PUSH1 0x40 ADD PUSH1 0x40 MSTORE DUP1 PUSH1 0x4 DUP2 MSTORE PUSH1 0x20 ADD PUSH4 0xAA88CAF PUSH1 0xE3 SHL DUP2 MSTORE POP PUSH1 0x40 MLOAD DUP1 PUSH1 0x40 ADD PUSH1 0x40 MSTORE DUP1 PUSH1 0x3 DUP2 MSTORE PUSH1 0x20 ADD PUSH3 0xAA88B PUSH1 0xEB SHL DUP2 MSTORE POP DUP2 PUSH1 0x3 SWAP1 DUP2 PUSH3 0x80 SWAP2 SWAP1 PUSH3 0x34F JUMP JUMPDEST POP PUSH1 0x4 PUSH3 0x8F DUP3 DUP3 PUSH3 0x34F JUMP JUMPDEST POP POP POP PUSH1 0x0 DUP1 PUSH3 0xA6 DUP4 PUSH3 0x11B PUSH1 0x20 SHL PUSH1 0x20 SHR JUMP JUMPDEST SWAP2 POP SWAP2 POP DUP2 PUSH3 0xB8 JUMPI PUSH1 0x12 PUSH3 0xBA JUMP JUMPDEST DUP1 JUMPDEST PUSH1 0xFF AND PUSH1 0xA0 MSTORE POP POP PUSH1 0x1 PUSH1 0x1 PUSH1 0xA0 SHL SUB SWAP1 DUP2 AND PUSH1 0x80 MSTORE DUP2 AND PUSH3 0xF7 JUMPI PUSH1 0x40 MLOAD PUSH4 0x1E4FBDF7 PUSH1 0xE0 SHL DUP2 MSTORE PUSH1 0x0 PUSH1 0x4 DUP3 ADD MSTORE PUSH1 0x24 ADD PUSH1 0x40 MLOAD DUP1 SWAP2 SUB SWAP1 REVERT JUMPDEST PUSH3 0x102 DUP2 PUSH3 0x200 JUMP JUMPDEST POP PUSH1 0x1 PUSH1 0x6 SSTORE PUSH1 0x1 PUSH1 0x1 PUSH1 0xA0 SHL SUB AND PUSH1 0xC0 MSTORE POP PUSH3 0x466 JUMP JUMPDEST PUSH1 0x40 DUP1 MLOAD PUSH1 0x4 DUP2 MSTORE PUSH1 0x24 DUP2 ADD DUP3 MSTORE PUSH1 0x20 DUP2 ADD DUP1 MLOAD PUSH1 0x1 PUSH1 0x1 PUSH1 0xE0 SHL SUB AND PUSH4 0x313CE567 PUSH1 0xE0 SHL OR SWAP1 MSTORE SWAP1 MLOAD PUSH1 0x0 SWAP2 DUP3 SWAP2 DUP3 SWAP2 DUP3 SWAP2 PUSH1 0x1 PUSH1 0x1 PUSH1 0xA0 SHL SUB DUP8 AND SWAP2 PUSH3 0x164 SWAP2 PUSH3 0x41B JUMP JUMPDEST PUSH1 0x0 PUSH1 0x40 MLOAD DUP1 DUP4 SUB DUP2 DUP6 GAS STATICCALL SWAP2 POP POP RETURNDATASIZE DUP1 PUSH1 0x0 DUP2 EQ PUSH3 0x1A1 JUMPI PUSH1 0x40 MLOAD SWAP2 POP PUSH1 0x1F NOT PUSH1 0x3F RETURNDATASIZE ADD AND DUP3 ADD PUSH1 0x40 MSTORE RETURNDATASIZE DUP3 MSTORE RETURNDATASIZE PUSH1 0x0 PUSH1 0x20 DUP5 ADD RETURNDATACOPY PUSH3 0x1A6 JUMP JUMPDEST PUSH1 0x60 SWAP2 POP JUMPDEST POP SWAP2 POP SWAP2 POP DUP2 DUP1 ISZERO PUSH3 0x1BB JUMPI POP PUSH1 0x20 DUP2 MLOAD LT ISZERO JUMPDEST ISZERO PUSH3 0x1F3 JUMPI PUSH1 0x0 DUP2 DUP1 PUSH1 0x20 ADD SWAP1 MLOAD DUP2 ADD SWAP1 PUSH3 0x1D9 SWAP2 SWAP1 PUSH3 0x44C JUMP JUMPDEST SWAP1 POP PUSH1 0xFF DUP2 GT PUSH3 0x1F1 JUMPI PUSH1 0x1 SWAP7 SWAP1 SWAP6 POP SWAP4 POP POP POP POP JUMP JUMPDEST POP JUMPDEST POP PUSH1 0x0 SWAP5 DUP6 SWAP5 POP SWAP3 POP POP POP JUMP JUMPDEST PUSH1 0x5 DUP1 SLOAD PUSH1 0x1 PUSH1 0x1 PUSH1 0xA0 SHL SUB DUP4 DUP2 AND PUSH1 0x1 PUSH1 0x1 PUSH1 0xA0 SHL SUB NOT DUP4 AND DUP2 OR SWAP1 SWAP4 SSTORE PUSH1 0x40 MLOAD SWAP2 AND SWAP2 SWAP1 DUP3 SWAP1 PUSH32 0x8BE0079C531659141344CD1FD0A4F28419497F9722A3DAAFE3B4186F6B6457E0 SWAP1 PUSH1 0x0 SWAP1 LOG3 POP POP JUMP JUMPDEST PUSH1 0x1 PUSH1 0x1 PUSH1 0xA0 SHL SUB DUP2 AND DUP2 EQ PUSH3 0x268 JUMPI PUSH1 0x0 DUP1 REVERT JUMPDEST POP JUMP JUMPDEST PUSH1 0x0 DUP1 PUSH1 0x40 DUP4 DUP6 SUB SLT ISZERO PUSH3 0x27F JUMPI PUSH1 0x0 DUP1 REVERT JUMPDEST DUP3 MLOAD PUSH3 0x28C DUP2 PUSH3 0x252 JUMP JUMPDEST PUSH1 0x20 DUP5 ADD MLOAD SWAP1 SWAP3 POP PUSH3 0x29F DUP2 PUSH3 0x252 JUMP JUMPDEST DUP1 SWAP2 POP POP SWAP3 POP SWAP3 SWAP1 POP JUMP JUMPDEST PUSH4 0x4E487B71 PUSH1 0xE0 SHL PUSH1 0x0 MSTORE PUSH1 0x41 PUSH1 0x4 MSTORE PUSH1 0x24 PUSH1 0x0 REVERT JUMPDEST PUSH1 0x1 DUP2 DUP2 SHR SWAP1 DUP3 AND DUP1 PUSH3 0x2D5 JUMPI PUSH1 0x7F DUP3 AND SWAP2 POP JUMPDEST PUSH1 0x20 DUP3 LT DUP2 SUB PUSH3 0x2F6 JUMPI PUSH4 0x4E487B71 PUSH1 0xE0 SHL PUSH1 0x0 MSTORE PUSH1 0x22 PUSH1 0x4 MSTORE PUSH1 0x24 PUSH1 0x0 REVERT JUMPDEST POP SWAP2 SWAP1 POP JUMP JUMPDEST PUSH1 0x1F DUP3 GT ISZERO PUSH3 0x34A JUMPI PUSH1 0x0 DUP2 DUP2 MSTORE PUSH1 0x20 DUP2 KECCAK256 PUSH1 0x1F DUP6 ADD PUSH1 0x5 SHR DUP2 ADD PUSH1 0x20 DUP7 LT ISZERO PUSH3 0x325 JUMPI POP DUP1 JUMPDEST PUSH1 0x1F DUP6 ADD PUSH1 0x5 SHR DUP3 ADD SWAP2 POP JUMPDEST DUP2 DUP2 LT ISZERO PUSH3 0x346 JUMPI DUP3 DUP2 SSTORE PUSH1 0x1 ADD PUSH3 0x331 JUMP JUMPDEST POP POP POP JUMPDEST POP POP POP JUMP JUMPDEST DUP2 MLOAD PUSH1 0x1 PUSH1 0x1 PUSH1 0x40 SHL SUB DUP2 GT ISZERO PUSH3 0x36B JUMPI PUSH3 0x36B PUSH3 0x2AA JUMP JUMPDEST PUSH3 0x383 DUP2 PUSH3 0x37C DUP5 SLOAD PUSH3 0x2C0 JUMP JUMPDEST DUP5 PUSH3 0x2FC JUMP JUMPDEST PUSH1 0x20 DUP1 PUSH1 0x1F DUP4 GT PUSH1 0x1 DUP2 EQ PUSH3 0x3BB JUMPI PUSH1 0x0 DUP5 ISZERO PUSH3 0x3A2 JUMPI POP DUP6 DUP4 ADD MLOAD JUMPDEST PUSH1 0x0 NOT PUSH1 0x3 DUP7 SWAP1 SHL SHR NOT AND PUSH1 0x1 DUP6 SWAP1 SHL OR DUP6 SSTORE PUSH3 0x346 JUMP JUMPDEST PUSH1 0x0 DUP6 DUP2 MSTORE PUSH1 0x20 DUP2 KECCAK256 PUSH1 0x1F NOT DUP7 AND SWAP2 JUMPDEST DUP3 DUP2 LT ISZERO PUSH3 0x3EC JUMPI DUP9 DUP7 ADD MLOAD DUP3 SSTORE SWAP5 DUP5 ADD SWAP5 PUSH1 0x1 SWAP1 SWAP2 ADD SWAP1 DUP5 ADD PUSH3 0x3CB JUMP JUMPDEST POP DUP6 DUP3 LT ISZERO PUSH3 0x40B JUMPI DUP8 DUP6 ADD MLOAD PUSH1 0x0 NOT PUSH1 0x3 DUP9 SWAP1 SHL PUSH1 0xF8 AND SHR NOT AND DUP2 SSTORE JUMPDEST POP POP POP POP POP PUSH1 0x1 SWAP1 DUP2 SHL ADD SWAP1 SSTORE POP JUMP JUMPDEST PUSH1 0x0 DUP3 MLOAD PUSH1 0x0 JUMPDEST DUP2 DUP2 LT ISZERO PUSH3 0x43E JUMPI PUSH1 0x20 DUP2 DUP7 ADD DUP2 ADD MLOAD DUP6 DUP4 ADD MSTORE ADD PUSH3 0x422 JUMP JUMPDEST POP PUSH1 0x0 SWAP3 ADD SWAP2 DUP3 MSTORE POP SWAP2 SWAP1 POP JUMP JUMPDEST PUSH1 0x0 PUSH1 0x20 DUP3 DUP5 SUB SLT ISZERO PUSH3 0x45F JUMPI PUSH1 0x0 DUP1 REVERT JUMPDEST POP MLOAD SWAP2 SWAP1 POP JUMP JUMPDEST PUSH1 0x80 MLOAD PUSH1 0xA0 MLOAD PUSH1 0xC0 MLOAD PUSH2 0x1D82 PUSH3 0x4B2 PUSH1 0x0 CODECOPY PUSH1 0x0 DUP2 DUP2 PUSH2 0x3FA ADD MSTORE PUSH2 0xAA4 ADD MSTORE PUSH1 0x0 PUSH2 0x7E7 ADD MSTORE PUSH1 0x0 DUP2 DUP2 PUSH2 0x362 ADD MSTORE DUP2 DUP2 PUSH2 0xC4C ADD MSTORE DUP2 DUP2 PUSH2 0x1392 ADD MSTORE PUSH2 0x1444 ADD MSTORE PUSH2 0x1D82 PUSH1 0x0 RETURN INVALID PUSH1 0x80 PUSH1 0x40 MSTORE CALLVALUE DUP1 ISZERO PUSH2 0x10 JUMPI PUSH1 0x0 DUP1 REVERT JUMPDEST POP PUSH1 0x4 CALLDATASIZE LT PUSH2 0x232 JUMPI PUSH1 0x0 CALLDATALOAD PUSH1 0xE0 SHR DUP1 PUSH4 0x8DA5CB5B GT PUSH2 0x130 JUMPI DUP1 PUSH4 0xC6E6F592 GT PUSH2 0xB8 JUMPI DUP1 PUSH4 0xDD5B2F52 GT PUSH2 0x7C JUMPI DUP1 PUSH4 0xDD5B2F52 EQ PUSH2 0x4FC JUMPI DUP1 PUSH4 0xDD62ED3E EQ PUSH2 0x505 JUMPI DUP1 PUSH4 0xE7572230 EQ PUSH2 0x53E JUMPI DUP1 PUSH4 0xEF8B30F7 EQ PUSH2 0x49C JUMPI DUP1 PUSH4 0xF2FDE38B EQ PUSH2 0x54F JUMPI PUSH1 0x0 DUP1 REVERT JUMPDEST DUP1 PUSH4 0xC6E6F592 EQ PUSH2 0x49C JUMPI DUP1 PUSH4 0xCC265DA9 EQ PUSH2 0x4AF JUMPI DUP1 PUSH4 0xCE96CB77 EQ PUSH2 0x4C3 JUMPI DUP1 PUSH4 0xD4D5C230 EQ PUSH2 0x4D6 JUMPI DUP1 PUSH4 0xD905777E EQ PUSH2 0x4E9 JUMPI PUSH1 0x0 DUP1 REVERT JUMPDEST DUP1 PUSH4 0xA9059CBB GT PUSH2 0xFF JUMPI DUP1 PUSH4 0xA9059CBB EQ PUSH2 0x450 JUMPI DUP1 PUSH4 0xB3D7F6B9 EQ PUSH2 0x463 JUMPI DUP1 PUSH4 0xB460AF94 EQ PUSH2 0x476 JUMPI DUP1 PUSH4 0xBA087652 EQ PUSH2 0x489 JUMPI DUP1 PUSH4 0xC63D75B6 EQ PUSH2 0x39A JUMPI PUSH1 0x0 DUP1 REVERT JUMPDEST DUP1 PUSH4 0x8DA5CB5B EQ PUSH2 0x41C JUMPI DUP1 PUSH4 0x94BF804D EQ PUSH2 0x42D JUMPI DUP1 PUSH4 0x95D89B41 EQ PUSH2 0x440 JUMPI DUP1 PUSH4 0x9F006651 EQ PUSH2 0x448 JUMPI PUSH1 0x0 DUP1 REVERT JUMPDEST DUP1 PUSH4 0x23B872DD GT PUSH2 0x1BE JUMPI DUP1 PUSH4 0x4CDAD506 GT PUSH2 0x182 JUMPI DUP1 PUSH4 0x4CDAD506 EQ PUSH2 0x270 JUMPI DUP1 PUSH4 0x6E553F65 EQ PUSH2 0x3AF JUMPI DUP1 PUSH4 0x70A08231 EQ PUSH2 0x3C2 JUMPI DUP1 PUSH4 0x715018A6 EQ PUSH2 0x3EB JUMPI DUP1 PUSH4 0x798CD94C EQ PUSH2 0x3F5 JUMPI PUSH1 0x0 DUP1 REVERT JUMPDEST DUP1 PUSH4 0x23B872DD EQ PUSH2 0x32B JUMPI DUP1 PUSH4 0x2BDB4E73 EQ PUSH2 0x33E JUMPI DUP1 PUSH4 0x313CE567 EQ PUSH2 0x346 JUMPI DUP1 PUSH4 0x38D52E0F EQ PUSH2 0x360 JUMPI DUP1 PUSH4 0x402D267D EQ PUSH2 0x39A JUMPI PUSH1 0x0 DUP1 REVERT JUMPDEST DUP1 PUSH4 0x95EA7B3 GT PUSH2 0x205 JUMPI DUP1 PUSH4 0x95EA7B3 EQ PUSH2 0x283 JUMPI DUP1 PUSH4 0xA28A477 EQ PUSH2 0x2A6 JUMPI DUP1 PUSH4 0x169FFFE2 EQ PUSH2 0x2B9 JUMPI DUP1 PUSH4 0x16C19739 EQ PUSH2 0x2CC JUMPI DUP1 PUSH4 0x18160DDD EQ PUSH2 0x323 JUMPI PUSH1 0x0 DUP1 REVERT JUMPDEST DUP1 PUSH4 0x1E1D114 EQ PUSH2 0x237 JUMPI DUP1 PUSH4 0x258D92A EQ PUSH2 0x252 JUMPI DUP1 PUSH4 0x6FDDE03 EQ PUSH2 0x25B JUMPI DUP1 PUSH4 0x7A2D13A EQ PUSH2 0x270 JUMPI JUMPDEST PUSH1 0x0 DUP1 REVERT JUMPDEST PUSH2 0x23F PUSH2 0x562 JUMP JUMPDEST PUSH1 0x40 MLOAD SWAP1 DUP2 MSTORE PUSH1 0x20 ADD JUMPDEST PUSH1 0x40 MLOAD DUP1 SWAP2 SUB SWAP1 RETURN JUMPDEST PUSH2 0x23F PUSH1 0xE SLOAD DUP2 JUMP JUMPDEST PUSH2 0x263 PUSH2 0x5CF JUMP JUMPDEST PUSH1 0x40 MLOAD PUSH2 0x249 SWAP2 SWAP1 PUSH2 0x1844 JUMP JUMPDEST PUSH2 0x23F PUSH2 0x27E CALLDATASIZE PUSH1 0x4 PUSH2 0x1877 JUMP JUMPDEST PUSH2 0x661 JUMP JUMPDEST PUSH2 0x296 PUSH2 0x291 CALLDATASIZE PUSH1 0x4 PUSH2 0x18AC JUMP JUMPDEST PUSH2 0x674 JUMP JUMPDEST PUSH1 0x40 MLOAD SWAP1 ISZERO ISZERO DUP2 MSTORE PUSH1 0x20 ADD PUSH2 0x249 JUMP JUMPDEST PUSH2 0x23F PUSH2 0x2B4 CALLDATASIZE PUSH1 0x4 PUSH2 0x1877 JUMP JUMPDEST PUSH2 0x68C JUMP JUMPDEST PUSH2 0x23F PUSH2 0x2C7 CALLDATASIZE PUSH1 0x4 PUSH2 0x18D6 JUMP JUMPDEST PUSH2 0x699 JUMP JUMPDEST PUSH2 0x2DF PUSH2 0x2DA CALLDATASIZE PUSH1 0x4 PUSH2 0x18F8 JUMP JUMPDEST PUSH2 0x6B0 JUMP JUMPDEST PUSH1 0x40 MLOAD PUSH2 0x249 SWAP2 SWAP1 PUSH1 0x0 PUSH1 0xA0 DUP3 ADD SWAP1 POP DUP3 MLOAD DUP3 MSTORE PUSH1 0x20 DUP4 ADD MLOAD PUSH1 0x20 DUP4 ADD MSTORE PUSH1 0x40 DUP4 ADD MLOAD PUSH1 0x40 DUP4 ADD MSTORE PUSH1 0x60 DUP4 ADD MLOAD ISZERO ISZERO PUSH1 0x60 DUP4 ADD MSTORE PUSH1 0x80 DUP4 ADD MLOAD PUSH1 0x80 DUP4 ADD MSTORE SWAP3 SWAP2 POP POP JUMP JUMPDEST PUSH1 0x2 SLOAD PUSH2 0x23F JUMP JUMPDEST PUSH2 0x296 PUSH2 0x339 CALLDATASIZE PUSH1 0x4 PUSH2 0x1913 JUMP JUMPDEST PUSH2 0x7B9 JUMP JUMPDEST PUSH2 0x23F PUSH1 0xF DUP2 JUMP JUMPDEST PUSH2 0x34E PUSH2 0x7DF JUMP JUMPDEST PUSH1 0x40 MLOAD PUSH1 0xFF SWAP1 SWAP2 AND DUP2 MSTORE PUSH1 0x20 ADD PUSH2 0x249 JUMP JUMPDEST PUSH32 0x0 JUMPDEST PUSH1 0x40 MLOAD PUSH1 0x1 PUSH1 0x1 PUSH1 0xA0 SHL SUB SWAP1 SWAP2 AND DUP2 MSTORE PUSH1 0x20 ADD PUSH2 0x249 JUMP JUMPDEST PUSH2 0x23F PUSH2 0x3A8 CALLDATASIZE PUSH1 0x4 PUSH2 0x18F8 JUMP JUMPDEST POP PUSH1 0x0 NOT SWAP1 JUMP JUMPDEST PUSH2 0x23F PUSH2 0x3BD CALLDATASIZE PUSH1 0x4 PUSH2 0x194F JUMP JUMPDEST PUSH2 0x810 JUMP JUMPDEST PUSH2 0x23F PUSH2 0x3D0 CALLDATASIZE PUSH1 0x4 PUSH2 0x18F8 JUMP JUMPDEST PUSH1 0x1 PUSH1 0x1 PUSH1 0xA0 SHL SUB AND PUSH1 0x0 SWAP1 DUP2 MSTORE PUSH1 0x20 DUP2 SWAP1 MSTORE PUSH1 0x40 SWAP1 KECCAK256 SLOAD SWAP1 JUMP JUMPDEST PUSH2 0x3F3 PUSH2 0x848 JUMP JUMPDEST STOP JUMPDEST PUSH2 0x382 PUSH32 0x0 DUP2 JUMP JUMPDEST PUSH1 0x5 SLOAD PUSH1 0x1 PUSH1 0x1 PUSH1 0xA0 SHL SUB AND PUSH2 0x382 JUMP JUMPDEST PUSH2 0x23F PUSH2 0x43B CALLDATASIZE PUSH1 0x4 PUSH2 0x194F JUMP JUMPDEST PUSH2 0x85C JUMP JUMPDEST PUSH2 0x263 PUSH2 0x893 JUMP JUMPDEST PUSH2 0x23F PUSH2 0x8A2 JUMP JUMPDEST PUSH2 0x296 PUSH2 0x45E CALLDATASIZE PUSH1 0x4 PUSH2 0x18AC JUMP JUMPDEST PUSH2 0x928 JUMP JUMPDEST PUSH2 0x23F PUSH2 0x471 CALLDATASIZE PUSH1 0x4 PUSH2 0x1877 JUMP JUMPDEST PUSH2 0x936 JUMP JUMPDEST PUSH2 0x23F PUSH2 0x484 CALLDATASIZE PUSH1 0x4 PUSH2 0x197B JUMP JUMPDEST PUSH2 0x943 JUMP JUMPDEST PUSH2 0x23F PUSH2 0x497 CALLDATASIZE PUSH1 0x4 PUSH2 0x197B JUMP JUMPDEST PUSH2 0x97C JUMP JUMPDEST PUSH2 0x23F PUSH2 0x4AA CALLDATASIZE PUSH1 0x4 PUSH2 0x1877 JUMP JUMPDEST PUSH2 0x9B4 JUMP JUMPDEST PUSH2 0x296 PUSH2 0x4BD CALLDATASIZE PUSH1 0x4 PUSH2 0x19C5 JUMP JUMPDEST POP PUSH1 0x1 SWAP1 JUMP JUMPDEST PUSH2 0x23F PUSH2 0x4D1 CALLDATASIZE PUSH1 0x4 PUSH2 0x18F8 JUMP JUMPDEST PUSH2 0x9C1 JUMP JUMPDEST PUSH2 0x3F3 PUSH2 0x4E4 CALLDATASIZE PUSH1 0x4 PUSH2 0x19E2 JUMP JUMPDEST PUSH2 0x9E5 JUMP JUMPDEST PUSH2 0x23F PUSH2 0x4F7 CALLDATASIZE PUSH1 0x4 PUSH2 0x18F8 JUMP JUMPDEST PUSH2 0xBA9 JUMP JUMPDEST PUSH2 0x23F PUSH1 0xC SLOAD DUP2 JUMP JUMPDEST PUSH2 0x23F PUSH2 0x513 CALLDATASIZE PUSH1 0x4 PUSH2 0x1A23 JUMP JUMPDEST PUSH1 0x1 PUSH1 0x1 PUSH1 0xA0 SHL SUB SWAP2 DUP3 AND PUSH1 0x0 SWAP1 DUP2 MSTORE PUSH1 0x1 PUSH1 0x20 SWAP1 DUP2 MSTORE PUSH1 0x40 DUP1 DUP4 KECCAK256 SWAP4 SWAP1 SWAP5 AND DUP3 MSTORE SWAP2 SWAP1 SWAP2 MSTORE KECCAK256 SLOAD SWAP1 JUMP JUMPDEST PUSH2 0x23F PUSH2 0x54C CALLDATASIZE PUSH1 0x4 PUSH2 0x1877 JUMP JUMPDEST SWAP1 JUMP JUMPDEST PUSH2 0x3F3 PUSH2 0x55D CALLDATASIZE PUSH1 0x4 PUSH2 0x18F8 JUMP JUMPDEST PUSH2 0xBC7 JUMP JUMPDEST PUSH1 0x0 DUP1 PUSH2 0x56D PUSH2 0x8A2 JUMP JUMPDEST SWAP1 POP PUSH1 0x0 DUP2 SGT ISZERO PUSH2 0x5A6 JUMPI PUSH1 0xC SLOAD PUSH2 0x584 DUP3 PUSH2 0xC0A JUMP JUMPDEST PUSH2 0x58C PUSH2 0xC34 JUMP JUMPDEST PUSH2 0x596 SWAP2 SWAP1 PUSH2 0x1A63 JUMP JUMPDEST PUSH2 0x5A0 SWAP2 SWAP1 PUSH2 0x1A63 JUMP JUMPDEST SWAP2 POP POP SWAP1 JUMP JUMPDEST PUSH2 0x5AF DUP2 PUSH2 0x1A76 JUMP JUMPDEST SWAP1 POP PUSH1 0xC SLOAD PUSH2 0x5BD DUP3 PUSH2 0xC0A JUMP JUMPDEST PUSH2 0x5C5 PUSH2 0xC34 JUMP JUMPDEST PUSH2 0x596 SWAP2 SWAP1 PUSH2 0x1A92 JUMP JUMPDEST PUSH1 0x60 PUSH1 0x3 DUP1 SLOAD PUSH2 0x5DE SWAP1 PUSH2 0x1AA5 JUMP JUMPDEST DUP1 PUSH1 0x1F ADD PUSH1 0x20 DUP1 SWAP2 DIV MUL PUSH1 0x20 ADD PUSH1 0x40 MLOAD SWAP1 DUP2 ADD PUSH1 0x40 MSTORE DUP1 SWAP3 SWAP2 SWAP1 DUP2 DUP2 MSTORE PUSH1 0x20 ADD DUP3 DUP1 SLOAD PUSH2 0x60A SWAP1 PUSH2 0x1AA5 JUMP JUMPDEST DUP1 ISZERO PUSH2 0x657 JUMPI DUP1 PUSH1 0x1F LT PUSH2 0x62C JUMPI PUSH2 0x100 DUP1 DUP4 SLOAD DIV MUL DUP4 MSTORE SWAP2 PUSH1 0x20 ADD SWAP2 PUSH2 0x657 JUMP JUMPDEST DUP3 ADD SWAP2 SWAP1 PUSH1 0x0 MSTORE PUSH1 0x20 PUSH1 0x0 KECCAK256 SWAP1 JUMPDEST DUP2 SLOAD DUP2 MSTORE SWAP1 PUSH1 0x1 ADD SWAP1 PUSH1 0x20 ADD DUP1 DUP4 GT PUSH2 0x63A JUMPI DUP3 SWAP1 SUB PUSH1 0x1F AND DUP3 ADD SWAP2 JUMPDEST POP POP POP POP POP SWAP1 POP SWAP1 JUMP JUMPDEST PUSH1 0x0 PUSH2 0x66E DUP3 PUSH1 0x0 PUSH2 0xCBF JUMP JUMPDEST SWAP3 SWAP2 POP POP JUMP JUMPDEST PUSH1 0x0 CALLER PUSH2 0x682 DUP2 DUP6 DUP6 PUSH2 0xCF9 JUMP JUMPDEST POP PUSH1 0x1 SWAP4 SWAP3 POP POP POP JUMP JUMPDEST PUSH1 0x0 PUSH2 0x66E DUP3 PUSH1 0x1 PUSH2 0xD0B JUMP JUMPDEST PUSH1 0x0 DUP2 DUP2 PUSH2 0x6A7 DUP6 DUP4 PUSH2 0x1ADF JUMP JUMPDEST SWAP6 SWAP5 POP POP POP POP POP JUMP JUMPDEST PUSH2 0x6E4 PUSH1 0x40 MLOAD DUP1 PUSH1 0xA0 ADD PUSH1 0x40 MSTORE DUP1 PUSH1 0x0 DUP2 MSTORE PUSH1 0x20 ADD PUSH1 0x0 DUP2 MSTORE PUSH1 0x20 ADD PUSH1 0x0 DUP2 MSTORE PUSH1 0x20 ADD PUSH1 0x0 ISZERO ISZERO DUP2 MSTORE PUSH1 0x20 ADD PUSH1 0x0 DUP2 MSTORE POP SWAP1 JUMP JUMPDEST PUSH1 0x1 PUSH1 0x1 PUSH1 0xA0 SHL SUB DUP3 AND PUSH1 0x0 SWAP1 DUP2 MSTORE PUSH1 0xB PUSH1 0x20 SWAP1 DUP2 MSTORE PUSH1 0x40 DUP1 DUP4 KECCAK256 DUP2 MLOAD PUSH1 0xA0 DUP2 ADD DUP4 MSTORE DUP2 SLOAD DUP1 DUP3 MSTORE PUSH1 0x1 DUP4 ADD SLOAD SWAP5 DUP3 ADD SWAP5 SWAP1 SWAP5 MSTORE PUSH1 0x2 DUP3 ADD SLOAD SWAP3 DUP2 ADD SWAP3 SWAP1 SWAP3 MSTORE PUSH1 0x3 DUP2 ADD SLOAD PUSH1 0xFF AND ISZERO ISZERO PUSH1 0x60 DUP4 ADD MSTORE PUSH1 0x4 ADD SLOAD PUSH1 0x80 DUP3 ADD MSTORE SWAP2 SUB PUSH2 0x75B JUMPI PUSH1 0x40 MLOAD PUSH4 0x2F4CB185 PUSH1 0xE2 SHL DUP2 MSTORE PUSH1 0x4 ADD PUSH1 0x40 MLOAD DUP1 SWAP2 SUB SWAP1 REVERT JUMPDEST POP POP PUSH1 0x1 PUSH1 0x1 PUSH1 0xA0 SHL SUB AND PUSH1 0x0 SWAP1 DUP2 MSTORE PUSH1 0xB PUSH1 0x20 SWAP1 DUP2 MSTORE PUSH1 0x40 SWAP2 DUP3 SWAP1 KECCAK256 DUP3 MLOAD PUSH1 0xA0 DUP2 ADD DUP5 MSTORE DUP2 SLOAD DUP2 MSTORE PUSH1 0x1 DUP3 ADD SLOAD SWAP3 DUP2 ADD SWAP3 SWAP1 SWAP3 MSTORE PUSH1 0x2 DUP2 ADD SLOAD SWAP3 DUP3 ADD SWAP3 SWAP1 SWAP3 MSTORE PUSH1 0x3 DUP3 ADD SLOAD PUSH1 0xFF AND ISZERO ISZERO PUSH1 0x60 DUP3 ADD MSTORE PUSH1 0x4 SWAP1 SWAP2 ADD SLOAD PUSH1 0x80 DUP3 ADD MSTORE SWAP1 JUMP JUMPDEST PUSH1 0x0 CALLER PUSH2 0x7C7 DUP6 DUP3 DUP6 PUSH2 0xD3B JUMP JUMPDEST PUSH2 0x7D2 DUP6 DUP6 DUP6 PUSH2 0xDA6 JUMP JUMPDEST PUSH1 0x1 SWAP2 POP POP JUMPDEST SWAP4 SWAP3 POP POP POP JUMP JUMPDEST PUSH1 0x0 PUSH2 0x80B DUP2 PUSH32 0x0 PUSH2 0x1AF6 JUMP JUMPDEST SWAP1 POP SWAP1 JUMP JUMPDEST PUSH1 0x0 PUSH2 0x81A PUSH2 0xE05 JUMP JUMPDEST PUSH1 0x0 DUP4 PUSH1 0xE SLOAD PUSH2 0x82A SWAP2 SWAP1 PUSH2 0x1A92 JUMP JUMPDEST SWAP1 POP PUSH2 0x836 DUP5 DUP5 PUSH2 0xE2F JUMP JUMPDEST PUSH1 0xE SWAP2 SWAP1 SWAP2 SSTORE SWAP1 POP PUSH2 0x66E PUSH1 0x1 PUSH1 0x6 SSTORE JUMP JUMPDEST PUSH2 0x850 PUSH2 0xE55 JUMP JUMPDEST PUSH2 0x85A PUSH1 0x0 PUSH2 0xE82 JUMP JUMPDEST JUMP JUMPDEST PUSH1 0x0 PUSH2 0x866 PUSH2 0xE05 JUMP JUMPDEST PUSH2 0x870 DUP4 DUP4 PUSH2 0xED4 JUMP JUMPDEST SWAP1 POP DUP1 PUSH1 0xE PUSH1 0x0 DUP3 DUP3 SLOAD PUSH2 0x884 SWAP2 SWAP1 PUSH2 0x1A92 JUMP JUMPDEST SWAP1 SWAP2 SSTORE POP POP PUSH1 0x1 PUSH1 0x6 SSTORE PUSH2 0x66E JUMP JUMPDEST PUSH1 0x60 PUSH1 0x4 DUP1 SLOAD PUSH2 0x5DE SWAP1 PUSH2 0x1AA5 JUMP JUMPDEST PUSH1 0x0 DUP1 PUSH2 0x8B3 PUSH1 0x7 PUSH1 0x0 ADD SLOAD PUSH2 0xEF2 JUMP JUMPDEST PUSH2 0x8CB PUSH2 0x8C6 PUSH1 0x7 PUSH1 0x1 ADD SLOAD PUSH1 0x1 PUSH2 0x699 JUMP JUMPDEST PUSH2 0xEF2 JUMP JUMPDEST PUSH2 0x8D5 SWAP2 SWAP1 PUSH2 0x1B0F JUMP JUMPDEST SWAP1 POP PUSH1 0x0 PUSH2 0x8EC PUSH2 0x8C6 PUSH1 0x9 PUSH1 0x1 ADD SLOAD PUSH1 0x1 PUSH2 0x699 JUMP JUMPDEST PUSH1 0x9 SLOAD PUSH2 0x8F8 SWAP1 PUSH2 0xEF2 JUMP JUMPDEST PUSH2 0x902 SWAP2 SWAP1 PUSH2 0x1B0F JUMP JUMPDEST SWAP1 POP PUSH8 0xDE0B6B3A7640000 PUSH2 0x917 DUP4 DUP4 PUSH2 0x1B36 JUMP JUMPDEST PUSH2 0x921 SWAP2 SWAP1 PUSH2 0x1B6C JUMP JUMPDEST SWAP3 POP POP POP SWAP1 JUMP JUMPDEST PUSH1 0x0 CALLER PUSH2 0x682 DUP2 DUP6 DUP6 PUSH2 0xDA6 JUMP JUMPDEST PUSH1 0x0 PUSH2 0x66E DUP3 PUSH1 0x1 PUSH2 0xCBF JUMP JUMPDEST PUSH1 0x0 PUSH2 0x94D PUSH2 0xE05 JUMP JUMPDEST PUSH1 0x0 DUP5 PUSH1 0xE SLOAD PUSH2 0x95D SWAP2 SWAP1 PUSH2 0x1A63 JUMP JUMPDEST SWAP1 POP PUSH2 0x96A DUP6 DUP6 DUP6 PUSH2 0xF1F JUMP JUMPDEST PUSH1 0xE SWAP2 SWAP1 SWAP2 SSTORE SWAP1 POP PUSH2 0x7D8 PUSH1 0x1 PUSH1 0x6 SSTORE JUMP JUMPDEST PUSH1 0x0 PUSH2 0x986 PUSH2 0xE05 JUMP JUMPDEST PUSH2 0x991 DUP5 DUP5 DUP5 PUSH2 0xF6E JUMP JUMPDEST SWAP1 POP DUP1 PUSH1 0xE PUSH1 0x0 DUP3 DUP3 SLOAD PUSH2 0x9A5 SWAP2 SWAP1 PUSH2 0x1A63 JUMP JUMPDEST SWAP1 SWAP2 SSTORE POP POP PUSH1 0x1 PUSH1 0x6 SSTORE PUSH2 0x7D8 JUMP JUMPDEST PUSH1 0x0 PUSH2 0x66E DUP3 PUSH1 0x0 PUSH2 0xD0B JUMP JUMPDEST PUSH1 0x1 PUSH1 0x1 PUSH1 0xA0 SHL SUB DUP2 AND PUSH1 0x0 SWAP1 DUP2 MSTORE PUSH1 0x20 DUP2 SWAP1 MSTORE PUSH1 0x40 DUP2 KECCAK256 SLOAD PUSH2 0x66E SWAP1 PUSH1 0x0 PUSH2 0xCBF JUMP JUMPDEST PUSH1 0x0 DUP4 GT PUSH2 0xA06 JUMPI PUSH1 0x40 MLOAD PUSH4 0x7B92CB43 PUSH1 0xE0 SHL DUP2 MSTORE PUSH1 0x4 ADD PUSH1 0x40 MLOAD DUP1 SWAP2 SUB SWAP1 REVERT JUMPDEST PUSH1 0x0 DUP5 GT PUSH2 0xA27 JUMPI PUSH1 0x40 MLOAD PUSH4 0x62A73C5 PUSH1 0xE4 SHL DUP2 MSTORE PUSH1 0x4 ADD PUSH1 0x40 MLOAD DUP1 SWAP2 SUB SWAP1 REVERT JUMPDEST CALLER PUSH1 0x0 SWAP1 DUP2 MSTORE PUSH1 0xB PUSH1 0x20 MSTORE PUSH1 0x40 SWAP1 KECCAK256 SLOAD ISZERO PUSH2 0xA55 JUMPI PUSH1 0x40 MLOAD PUSH4 0xC7B567D PUSH1 0xE3 SHL DUP2 MSTORE PUSH1 0x4 ADD PUSH1 0x40 MLOAD DUP1 SWAP2 SUB SWAP1 REVERT JUMPDEST PUSH1 0x0 PUSH1 0x40 MLOAD DUP1 PUSH1 0xA0 ADD PUSH1 0x40 MSTORE DUP1 DUP6 DUP2 MSTORE PUSH1 0x20 ADD DUP5 DUP2 MSTORE PUSH1 0x20 ADD DUP5 DUP8 PUSH2 0xA7A SWAP2 SWAP1 PUSH2 0x1B9A JUMP JUMPDEST DUP2 MSTORE PUSH1 0x20 ADD DUP4 ISZERO ISZERO DUP2 MSTORE PUSH1 0x20 ADD TIMESTAMP DUP2 MSTORE POP SWAP1 POP PUSH2 0xA97 DUP2 DUP5 PUSH2 0xFBD JUMP JUMPDEST PUSH2 0xACC PUSH1 0x1 PUSH1 0x1 PUSH1 0xA0 SHL SUB PUSH32 0x0 AND CALLER ADDRESS DUP8 PUSH2 0x1072 JUMP JUMPDEST DUP1 MLOAD PUSH1 0xC DUP1 SLOAD PUSH1 0x0 SWAP1 PUSH2 0xAE0 SWAP1 DUP5 SWAP1 PUSH2 0x1A92 JUMP JUMPDEST SWAP1 SWAP2 SSTORE POP POP CALLER PUSH1 0x0 SWAP1 DUP2 MSTORE PUSH1 0xB PUSH1 0x20 SWAP1 DUP2 MSTORE PUSH1 0x40 SWAP2 DUP3 SWAP1 KECCAK256 DUP4 MLOAD DUP2 SSTORE SWAP1 DUP4 ADD MLOAD PUSH1 0x1 DUP3 ADD SSTORE SWAP1 DUP3 ADD MLOAD PUSH1 0x2 DUP3 ADD DUP2 SWAP1 SSTORE PUSH1 0x60 DUP4 ADD MLOAD PUSH1 0x3 DUP4 ADD DUP1 SLOAD PUSH1 0xFF NOT AND SWAP2 ISZERO ISZERO SWAP2 SWAP1 SWAP2 OR SWAP1 SSTORE PUSH1 0x80 DUP4 ADD MLOAD PUSH1 0x4 SWAP1 SWAP3 ADD SWAP2 SWAP1 SWAP2 SSTORE PUSH2 0xB42 SWAP1 DUP7 SWAP1 DUP5 PUSH2 0x10D9 JUMP JUMPDEST PUSH1 0x60 DUP2 DUP2 ADD MLOAD PUSH1 0x40 DUP1 DUP5 ADD MLOAD PUSH1 0x20 DUP1 DUP7 ADD MLOAD DUP4 MLOAD SWAP5 ISZERO ISZERO DUP6 MSTORE SWAP1 DUP5 ADD DUP11 SWAP1 MSTORE DUP4 DUP4 ADD DUP10 SWAP1 MSTORE SWAP4 DUP4 ADD MSTORE PUSH1 0x80 DUP3 ADD SWAP3 SWAP1 SWAP3 MSTORE SWAP1 MLOAD CALLER SWAP2 PUSH32 0xE8F4B81343AFA64BC4DDCFBF2D80E883E0DDFC6663C400CA09DA13D1D28D588 SWAP2 SWAP1 DUP2 SWAP1 SUB PUSH1 0xA0 ADD SWAP1 LOG2 POP POP POP POP POP JUMP JUMPDEST PUSH1 0x1 PUSH1 0x1 PUSH1 0xA0 SHL SUB DUP2 AND PUSH1 0x0 SWAP1 DUP2 MSTORE PUSH1 0x20 DUP2 SWAP1 MSTORE PUSH1 0x40 DUP2 KECCAK256 SLOAD PUSH2 0x66E JUMP JUMPDEST PUSH2 0xBCF PUSH2 0xE55 JUMP JUMPDEST PUSH1 0x1 PUSH1 0x1 PUSH1 0xA0 SHL SUB DUP2 AND PUSH2 0xBFE JUMPI PUSH1 0x40 MLOAD PUSH4 0x1E4FBDF7 PUSH1 0xE0 SHL DUP2 MSTORE PUSH1 0x0 PUSH1 0x4 DUP3 ADD MSTORE PUSH1 0x24 ADD JUMPDEST PUSH1 0x40 MLOAD DUP1 SWAP2 SUB SWAP1 REVERT JUMPDEST PUSH2 0xC07 DUP2 PUSH2 0xE82 JUMP JUMPDEST POP JUMP JUMPDEST PUSH1 0x0 DUP1 DUP3 SLT ISZERO PUSH2 0xC30 JUMPI PUSH1 0x40 MLOAD PUSH4 0x54672219 PUSH1 0xE1 SHL DUP2 MSTORE PUSH1 0x4 DUP2 ADD DUP4 SWAP1 MSTORE PUSH1 0x24 ADD PUSH2 0xBF5 JUMP JUMPDEST POP SWAP1 JUMP JUMPDEST PUSH1 0x40 MLOAD PUSH4 0x70A08231 PUSH1 0xE0 SHL DUP2 MSTORE ADDRESS PUSH1 0x4 DUP3 ADD MSTORE PUSH1 0x0 SWAP1 PUSH32 0x0 PUSH1 0x1 PUSH1 0x1 PUSH1 0xA0 SHL SUB AND SWAP1 PUSH4 0x70A08231 SWAP1 PUSH1 0x24 ADD PUSH1 0x20 PUSH1 0x40 MLOAD DUP1 DUP4 SUB DUP2 DUP7 GAS STATICCALL ISZERO DUP1 ISZERO PUSH2 0xC9B JUMPI RETURNDATASIZE PUSH1 0x0 DUP1 RETURNDATACOPY RETURNDATASIZE PUSH1 0x0 REVERT JUMPDEST POP POP POP POP PUSH1 0x40 MLOAD RETURNDATASIZE PUSH1 0x1F NOT PUSH1 0x1F DUP3 ADD AND DUP3 ADD DUP1 PUSH1 0x40 MSTORE POP DUP2 ADD SWAP1 PUSH2 0x80B SWAP2 SWAP1 PUSH2 0x1BAE JUMP JUMPDEST PUSH1 0x0 PUSH2 0x7D8 PUSH2 0xCCC PUSH2 0x562 JUMP JUMPDEST PUSH2 0xCD7 SWAP1 PUSH1 0x1 PUSH2 0x1A92 JUMP JUMPDEST PUSH2 0xCE3 PUSH1 0x0 PUSH1 0xA PUSH2 0x1CAB JUMP JUMPDEST PUSH1 0x2 SLOAD PUSH2 0xCF0 SWAP2 SWAP1 PUSH2 0x1A92 JUMP JUMPDEST DUP6 SWAP2 SWAP1 DUP6 PUSH2 0x1152 JUMP JUMPDEST PUSH2 0xD06 DUP4 DUP4 DUP4 PUSH1 0x1 PUSH2 0x11A1 JUMP JUMPDEST POP POP POP JUMP JUMPDEST PUSH1 0x0 PUSH2 0x7D8 PUSH2 0xD1B DUP3 PUSH1 0xA PUSH2 0x1CAB JUMP JUMPDEST PUSH1 0x2 SLOAD PUSH2 0xD28 SWAP2 SWAP1 PUSH2 0x1A92 JUMP JUMPDEST PUSH2 0xD30 PUSH2 0x562 JUMP JUMPDEST PUSH2 0xCF0 SWAP1 PUSH1 0x1 PUSH2 0x1A92 JUMP JUMPDEST PUSH1 0x1 PUSH1 0x1 PUSH1 0xA0 SHL SUB DUP4 DUP2 AND PUSH1 0x0 SWAP1 DUP2 MSTORE PUSH1 0x1 PUSH1 0x20 SWAP1 DUP2 MSTORE PUSH1 0x40 DUP1 DUP4 KECCAK256 SWAP4 DUP7 AND DUP4 MSTORE SWAP3 SWAP1 MSTORE KECCAK256 SLOAD PUSH1 0x0 NOT DUP2 EQ PUSH2 0xDA0 JUMPI DUP2 DUP2 LT ISZERO PUSH2 0xD91 JUMPI DUP3 DUP2 DUP4 PUSH1 0x40 MLOAD PUSH4 0x7DC7A0D9 PUSH1 0xE1 SHL DUP2 MSTORE PUSH1 0x4 ADD PUSH2 0xBF5 SWAP4 SWAP3 SWAP2 SWAP1 PUSH2 0x1CBA JUMP JUMPDEST PUSH2 0xDA0 DUP5 DUP5 DUP5 DUP5 SUB PUSH1 0x0 PUSH2 0x11A1 JUMP JUMPDEST POP POP POP POP JUMP JUMPDEST PUSH1 0x1 PUSH1 0x1 PUSH1 0xA0 SHL SUB DUP4 AND PUSH2 0xDD0 JUMPI PUSH1 0x40 MLOAD PUSH4 0x4B637E8F PUSH1 0xE1 SHL DUP2 MSTORE PUSH1 0x0 PUSH1 0x4 DUP3 ADD MSTORE PUSH1 0x24 ADD PUSH2 0xBF5 JUMP JUMPDEST PUSH1 0x1 PUSH1 0x1 PUSH1 0xA0 SHL SUB DUP3 AND PUSH2 0xDFA JUMPI PUSH1 0x40 MLOAD PUSH4 0xEC442F05 PUSH1 0xE0 SHL DUP2 MSTORE PUSH1 0x0 PUSH1 0x4 DUP3 ADD MSTORE PUSH1 0x24 ADD PUSH2 0xBF5 JUMP JUMPDEST PUSH2 0xD06 DUP4 DUP4 DUP4 PUSH2 0x1276 JUMP JUMPDEST PUSH1 0x2 PUSH1 0x6 SLOAD SUB PUSH2 0xE28 JUMPI PUSH1 0x40 MLOAD PUSH4 0x3EE5AEB5 PUSH1 0xE0 SHL DUP2 MSTORE PUSH1 0x4 ADD PUSH1 0x40 MLOAD DUP1 SWAP2 SUB SWAP1 REVERT JUMPDEST PUSH1 0x2 PUSH1 0x6 SSTORE JUMP JUMPDEST PUSH1 0x0 PUSH1 0x0 NOT PUSH1 0x0 PUSH2 0xE3F DUP6 PUSH2 0x9B4 JUMP JUMPDEST SWAP1 POP PUSH2 0xE4D CALLER DUP6 DUP8 DUP5 PUSH2 0x138D JUMP JUMPDEST SWAP5 SWAP4 POP POP POP POP JUMP JUMPDEST PUSH1 0x5 SLOAD PUSH1 0x1 PUSH1 0x1 PUSH1 0xA0 SHL SUB AND CALLER EQ PUSH2 0x85A JUMPI PUSH1 0x40 MLOAD PUSH4 0x118CDAA7 PUSH1 0xE0 SHL DUP2 MSTORE CALLER PUSH1 0x4 DUP3 ADD MSTORE PUSH1 0x24 ADD PUSH2 0xBF5 JUMP JUMPDEST PUSH1 0x5 DUP1 SLOAD PUSH1 0x1 PUSH1 0x1 PUSH1 0xA0 SHL SUB DUP4 DUP2 AND PUSH1 0x1 PUSH1 0x1 PUSH1 0xA0 SHL SUB NOT DUP4 AND DUP2 OR SWAP1 SWAP4 SSTORE PUSH1 0x40 MLOAD SWAP2 AND SWAP2 SWAP1 DUP3 SWAP1 PUSH32 0x8BE0079C531659141344CD1FD0A4F28419497F9722A3DAAFE3B4186F6B6457E0 SWAP1 PUSH1 0x0 SWAP1 LOG3 POP POP JUMP JUMPDEST PUSH1 0x0 PUSH1 0x0 NOT PUSH1 0x0 PUSH2 0xEE4 DUP6 PUSH2 0x936 JUMP JUMPDEST SWAP1 POP PUSH2 0xE4D CALLER DUP6 DUP4 DUP9 PUSH2 0x138D JUMP JUMPDEST PUSH1 0x0 PUSH1 0x1 PUSH1 0x1 PUSH1 0xFF SHL SUB DUP3 GT ISZERO PUSH2 0xC30 JUMPI PUSH1 0x40 MLOAD PUSH4 0x123BAF03 PUSH1 0xE1 SHL DUP2 MSTORE PUSH1 0x4 DUP2 ADD DUP4 SWAP1 MSTORE PUSH1 0x24 ADD PUSH2 0xBF5 JUMP JUMPDEST PUSH1 0x0 DUP1 PUSH2 0xF2B DUP4 PUSH2 0x9C1 JUMP JUMPDEST SWAP1 POP DUP1 DUP6 GT ISZERO PUSH2 0xF54 JUMPI DUP3 DUP6 DUP3 PUSH1 0x40 MLOAD PUSH4 0x3FA733BB PUSH1 0xE2 SHL DUP2 MSTORE PUSH1 0x4 ADD PUSH2 0xBF5 SWAP4 SWAP3 SWAP2 SWAP1 PUSH2 0x1CBA JUMP JUMPDEST PUSH1 0x0 PUSH2 0xF5F DUP7 PUSH2 0x68C JUMP JUMPDEST SWAP1 POP PUSH2 0x6A7 CALLER DUP7 DUP7 DUP10 DUP6 PUSH2 0x1411 JUMP JUMPDEST PUSH1 0x0 DUP1 PUSH2 0xF7A DUP4 PUSH2 0xBA9 JUMP JUMPDEST SWAP1 POP DUP1 DUP6 GT ISZERO PUSH2 0xFA3 JUMPI DUP3 DUP6 DUP3 PUSH1 0x40 MLOAD PUSH4 0x2E52AFBB PUSH1 0xE2 SHL DUP2 MSTORE PUSH1 0x4 ADD PUSH2 0xBF5 SWAP4 SWAP3 SWAP2 SWAP1 PUSH2 0x1CBA JUMP JUMPDEST PUSH1 0x0 PUSH2 0xFAE DUP7 PUSH2 0x661 JUMP JUMPDEST SWAP1 POP PUSH2 0x6A7 CALLER DUP7 DUP7 DUP5 DUP11 PUSH2 0x1411 JUMP JUMPDEST PUSH1 0x0 PUSH2 0xFC9 DUP4 DUP4 PUSH2 0x14D1 JUMP JUMPDEST SWAP1 POP PUSH1 0x0 DUP2 PUSH2 0xFDB DUP6 PUSH1 0x0 ADD MLOAD PUSH2 0xEF2 JUMP JUMPDEST PUSH2 0xFE5 SWAP2 SWAP1 PUSH2 0x1B36 JUMP JUMPDEST SGT PUSH2 0x1003 JUMPI PUSH1 0x40 MLOAD PUSH4 0x27AD135D PUSH1 0xE1 SHL DUP2 MSTORE PUSH1 0x4 ADD PUSH1 0x40 MLOAD DUP1 SWAP2 SUB SWAP1 REVERT JUMPDEST PUSH1 0x0 PUSH2 0x1025 DUP3 PUSH2 0x1016 DUP7 PUSH1 0x0 ADD MLOAD PUSH2 0xEF2 JUMP JUMPDEST PUSH2 0x1020 SWAP2 SWAP1 PUSH2 0x1B36 JUMP JUMPDEST PUSH2 0xC0A JUMP JUMPDEST SWAP1 POP PUSH1 0x0 DUP2 DUP6 PUSH1 0x20 ADD MLOAD DUP7 PUSH1 0x40 ADD MLOAD PUSH2 0x103E SWAP2 SWAP1 PUSH2 0x1ADF JUMP JUMPDEST PUSH2 0x1048 SWAP2 SWAP1 PUSH2 0x1B9A JUMP JUMPDEST SWAP1 POP PUSH1 0xF DUP2 LT PUSH2 0x106B JUMPI PUSH1 0x40 MLOAD PUSH4 0x3E5FF327 PUSH1 0xE2 SHL DUP2 MSTORE PUSH1 0x4 ADD PUSH1 0x40 MLOAD DUP1 SWAP2 SUB SWAP1 REVERT JUMPDEST POP POP POP POP POP JUMP JUMPDEST PUSH1 0x40 MLOAD PUSH1 0x1 PUSH1 0x1 PUSH1 0xA0 SHL SUB DUP5 DUP2 AND PUSH1 0x24 DUP4 ADD MSTORE DUP4 DUP2 AND PUSH1 0x44 DUP4 ADD MSTORE PUSH1 0x64 DUP3 ADD DUP4 SWAP1 MSTORE PUSH2 0xDA0 SWAP2 DUP7 SWAP2 DUP3 AND SWAP1 PUSH4 0x23B872DD SWAP1 PUSH1 0x84 ADD JUMPDEST PUSH1 0x40 MLOAD PUSH1 0x20 DUP2 DUP4 SUB SUB DUP2 MSTORE SWAP1 PUSH1 0x40 MSTORE SWAP2 POP PUSH1 0xE0 SHL PUSH1 0x20 DUP3 ADD DUP1 MLOAD PUSH1 0x1 PUSH1 0x1 PUSH1 0xE0 SHL SUB DUP4 DUP2 DUP4 AND OR DUP4 MSTORE POP POP POP POP PUSH2 0x1533 JUMP JUMPDEST DUP1 ISZERO PUSH2 0x1119 JUMPI DUP3 PUSH1 0x7 PUSH1 0x0 ADD PUSH1 0x0 DUP3 DUP3 SLOAD PUSH2 0x10F4 SWAP2 SWAP1 PUSH2 0x1A92 JUMP JUMPDEST SWAP1 SWAP2 SSTORE POP POP PUSH1 0x8 DUP1 SLOAD DUP4 SWAP2 SWAP1 PUSH1 0x0 SWAP1 PUSH2 0x110E SWAP1 DUP5 SWAP1 PUSH2 0x1A92 JUMP JUMPDEST SWAP1 SWAP2 SSTORE POP PUSH2 0xD06 SWAP1 POP JUMP JUMPDEST DUP3 PUSH1 0x9 PUSH1 0x0 ADD PUSH1 0x0 DUP3 DUP3 SLOAD PUSH2 0x112E SWAP2 SWAP1 PUSH2 0x1A92 JUMP JUMPDEST SWAP1 SWAP2 SSTORE POP POP PUSH1 0xA DUP1 SLOAD DUP4 SWAP2 SWAP1 PUSH1 0x0 SWAP1 PUSH2 0x1148 SWAP1 DUP5 SWAP1 PUSH2 0x1A92 JUMP JUMPDEST SWAP1 SWAP2 SSTORE POP POP POP POP POP JUMP JUMPDEST PUSH1 0x0 DUP1 PUSH2 0x1160 DUP7 DUP7 DUP7 PUSH2 0x1596 JUMP JUMPDEST SWAP1 POP PUSH2 0x116B DUP4 PUSH2 0x165A JUMP JUMPDEST DUP1 ISZERO PUSH2 0x1187 JUMPI POP PUSH1 0x0 DUP5 DUP1 PUSH2 0x1182 JUMPI PUSH2 0x1182 PUSH2 0x1B56 JUMP JUMPDEST DUP7 DUP9 MULMOD GT JUMPDEST ISZERO PUSH2 0x6A7 JUMPI PUSH2 0x1197 PUSH1 0x1 DUP3 PUSH2 0x1A92 JUMP JUMPDEST SWAP7 SWAP6 POP POP POP POP POP POP JUMP JUMPDEST PUSH1 0x1 PUSH1 0x1 PUSH1 0xA0 SHL SUB DUP5 AND PUSH2 0x11CB JUMPI PUSH1 0x40 MLOAD PUSH4 0xE602DF05 PUSH1 0xE0 SHL DUP2 MSTORE PUSH1 0x0 PUSH1 0x4 DUP3 ADD MSTORE PUSH1 0x24 ADD PUSH2 0xBF5 JUMP JUMPDEST PUSH1 0x1 PUSH1 0x1 PUSH1 0xA0 SHL SUB DUP4 AND PUSH2 0x11F5 JUMPI PUSH1 0x40 MLOAD PUSH4 0x4A1406B1 PUSH1 0xE1 SHL DUP2 MSTORE PUSH1 0x0 PUSH1 0x4 DUP3 ADD MSTORE PUSH1 0x24 ADD PUSH2 0xBF5 JUMP JUMPDEST PUSH1 0x1 PUSH1 0x1 PUSH1 0xA0 SHL SUB DUP1 DUP6 AND PUSH1 0x0 SWAP1 DUP2 MSTORE PUSH1 0x1 PUSH1 0x20 SWAP1 DUP2 MSTORE PUSH1 0x40 DUP1 DUP4 KECCAK256 SWAP4 DUP8 AND DUP4 MSTORE SWAP3 SWAP1 MSTORE KECCAK256 DUP3 SWAP1 SSTORE DUP1 ISZERO PUSH2 0xDA0 JUMPI DUP3 PUSH1 0x1 PUSH1 0x1 PUSH1 0xA0 SHL SUB AND DUP5 PUSH1 0x1 PUSH1 0x1 PUSH1 0xA0 SHL SUB AND PUSH32 0x8C5BE1E5EBEC7D5BD14F71427D1E84F3DD0314C0F7B2291E5B200AC8C7C3B925 DUP5 PUSH1 0x40 MLOAD PUSH2 0x1268 SWAP2 DUP2 MSTORE PUSH1 0x20 ADD SWAP1 JUMP JUMPDEST PUSH1 0x40 MLOAD DUP1 SWAP2 SUB SWAP1 LOG3 POP POP POP POP JUMP JUMPDEST PUSH1 0x1 PUSH1 0x1 PUSH1 0xA0 SHL SUB DUP4 AND PUSH2 0x12A1 JUMPI DUP1 PUSH1 0x2 PUSH1 0x0 DUP3 DUP3 SLOAD PUSH2 0x1296 SWAP2 SWAP1 PUSH2 0x1A92 JUMP JUMPDEST SWAP1 SWAP2 SSTORE POP PUSH2 0x1300 SWAP1 POP JUMP JUMPDEST PUSH1 0x1 PUSH1 0x1 PUSH1 0xA0 SHL SUB DUP4 AND PUSH1 0x0 SWAP1 DUP2 MSTORE PUSH1 0x20 DUP2 SWAP1 MSTORE PUSH1 0x40 SWAP1 KECCAK256 SLOAD DUP2 DUP2 LT ISZERO PUSH2 0x12E1 JUMPI DUP4 DUP2 DUP4 PUSH1 0x40 MLOAD PUSH4 0x391434E3 PUSH1 0xE2 SHL DUP2 MSTORE PUSH1 0x4 ADD PUSH2 0xBF5 SWAP4 SWAP3 SWAP2 SWAP1 PUSH2 0x1CBA JUMP JUMPDEST PUSH1 0x1 PUSH1 0x1 PUSH1 0xA0 SHL SUB DUP5 AND PUSH1 0x0 SWAP1 DUP2 MSTORE PUSH1 0x20 DUP2 SWAP1 MSTORE PUSH1 0x40 SWAP1 KECCAK256 SWAP1 DUP3 SWAP1 SUB SWAP1 SSTORE JUMPDEST PUSH1 0x1 PUSH1 0x1 PUSH1 0xA0 SHL SUB DUP3 AND PUSH2 0x131C JUMPI PUSH1 0x2 DUP1 SLOAD DUP3 SWAP1 SUB SWAP1 SSTORE PUSH2 0x133B JUMP JUMPDEST PUSH1 0x1 PUSH1 0x1 PUSH1 0xA0 SHL SUB DUP3 AND PUSH1 0x0 SWAP1 DUP2 MSTORE PUSH1 0x20 DUP2 SWAP1 MSTORE PUSH1 0x40 SWAP1 KECCAK256 DUP1 SLOAD DUP3 ADD SWAP1 SSTORE JUMPDEST DUP2 PUSH1 0x1 PUSH1 0x1 PUSH1 0xA0 SHL SUB AND DUP4 PUSH1 0x1 PUSH1 0x1 PUSH1 0xA0 SHL SUB AND PUSH32 0xDDF252AD1BE2C89B69C2B068FC378DAA952BA7F163C4A11628F55A4DF523B3EF DUP4 PUSH1 0x40 MLOAD PUSH2 0x1380 SWAP2 DUP2 MSTORE PUSH1 0x20 ADD SWAP1 JUMP JUMPDEST PUSH1 0x40 MLOAD DUP1 SWAP2 SUB SWAP1 LOG3 POP POP POP JUMP JUMPDEST PUSH2 0x13B9 PUSH32 0x0 DUP6 ADDRESS DUP6 PUSH2 0x1072 JUMP JUMPDEST PUSH2 0x13C3 DUP4 DUP3 PUSH2 0x1687 JUMP JUMPDEST DUP3 PUSH1 0x1 PUSH1 0x1 PUSH1 0xA0 SHL SUB AND DUP5 PUSH1 0x1 PUSH1 0x1 PUSH1 0xA0 SHL SUB AND PUSH32 0xDCBC1C05240F31FF3AD067EF1EE35CE4997762752E3A095284754544F4C709D7 DUP5 DUP5 PUSH1 0x40 MLOAD PUSH2 0x1268 SWAP3 SWAP2 SWAP1 SWAP2 DUP3 MSTORE PUSH1 0x20 DUP3 ADD MSTORE PUSH1 0x40 ADD SWAP1 JUMP JUMPDEST DUP3 PUSH1 0x1 PUSH1 0x1 PUSH1 0xA0 SHL SUB AND DUP6 PUSH1 0x1 PUSH1 0x1 PUSH1 0xA0 SHL SUB AND EQ PUSH2 0x1435 JUMPI PUSH2 0x1435 DUP4 DUP7 DUP4 PUSH2 0xD3B JUMP JUMPDEST PUSH2 0x143F DUP4 DUP3 PUSH2 0x16C1 JUMP JUMPDEST PUSH2 0x146A PUSH32 0x0 DUP6 DUP5 PUSH2 0x16F7 JUMP JUMPDEST DUP3 PUSH1 0x1 PUSH1 0x1 PUSH1 0xA0 SHL SUB AND DUP5 PUSH1 0x1 PUSH1 0x1 PUSH1 0xA0 SHL SUB AND DUP7 PUSH1 0x1 PUSH1 0x1 PUSH1 0xA0 SHL SUB AND PUSH32 0xFBDE797D201C681B91056529119E0B02407C7BB96A4A2C75C01FC9667232C8DB DUP6 DUP6 PUSH1 0x40 MLOAD PUSH2 0x14C2 SWAP3 SWAP2 SWAP1 SWAP2 DUP3 MSTORE PUSH1 0x20 DUP3 ADD MSTORE PUSH1 0x40 ADD SWAP1 JUMP JUMPDEST PUSH1 0x40 MLOAD DUP1 SWAP2 SUB SWAP1 LOG4 POP POP POP POP POP JUMP JUMPDEST PUSH1 0x0 DUP1 PUSH2 0x14E7 DUP4 DUP6 PUSH1 0x40 ADD MLOAD PUSH2 0x8C6 SWAP2 SWAP1 PUSH2 0x1ADF JUMP JUMPDEST SWAP1 POP PUSH1 0x0 PUSH2 0x1502 DUP6 PUSH1 0x20 ADD MLOAD DUP7 PUSH1 0x40 ADD MLOAD PUSH2 0x8C6 SWAP2 SWAP1 PUSH2 0x1ADF JUMP JUMPDEST SWAP1 POP DUP5 PUSH1 0x60 ADD MLOAD ISZERO PUSH2 0x1521 JUMPI PUSH2 0x1518 DUP2 DUP4 PUSH2 0x1B0F JUMP JUMPDEST SWAP3 POP POP POP PUSH2 0x66E JUMP JUMPDEST PUSH2 0x1518 DUP3 DUP3 PUSH2 0x1B0F JUMP JUMPDEST POP POP SWAP3 SWAP2 POP POP JUMP JUMPDEST PUSH1 0x0 PUSH2 0x1548 PUSH1 0x1 PUSH1 0x1 PUSH1 0xA0 SHL SUB DUP5 AND DUP4 PUSH2 0x1728 JUMP JUMPDEST SWAP1 POP DUP1 MLOAD PUSH1 0x0 EQ ISZERO DUP1 ISZERO PUSH2 0x156D JUMPI POP DUP1 DUP1 PUSH1 0x20 ADD SWAP1 MLOAD DUP2 ADD SWAP1 PUSH2 0x156B SWAP2 SWAP1 PUSH2 0x1CDB JUMP JUMPDEST ISZERO JUMPDEST ISZERO PUSH2 0xD06 JUMPI PUSH1 0x40 MLOAD PUSH4 0x5274AFE7 PUSH1 0xE0 SHL DUP2 MSTORE PUSH1 0x1 PUSH1 0x1 PUSH1 0xA0 SHL SUB DUP5 AND PUSH1 0x4 DUP3 ADD MSTORE PUSH1 0x24 ADD PUSH2 0xBF5 JUMP JUMPDEST PUSH1 0x0 DUP4 DUP4 MUL DUP2 PUSH1 0x0 NOT DUP6 DUP8 MULMOD DUP3 DUP2 LT DUP4 DUP3 SUB SUB SWAP2 POP POP DUP1 PUSH1 0x0 SUB PUSH2 0x15CD JUMPI DUP4 DUP3 DUP2 PUSH2 0x15C3 JUMPI PUSH2 0x15C3 PUSH2 0x1B56 JUMP JUMPDEST DIV SWAP3 POP POP POP PUSH2 0x7D8 JUMP JUMPDEST DUP1 DUP5 GT PUSH2 0x15ED JUMPI PUSH1 0x40 MLOAD PUSH4 0x227BC153 PUSH1 0xE0 SHL DUP2 MSTORE PUSH1 0x4 ADD PUSH1 0x40 MLOAD DUP1 SWAP2 SUB SWAP1 REVERT JUMPDEST PUSH1 0x0 DUP5 DUP7 DUP9 MULMOD PUSH1 0x0 DUP7 DUP2 SUB DUP8 AND SWAP7 DUP8 SWAP1 DIV SWAP7 PUSH1 0x2 PUSH1 0x3 DUP10 MUL DUP2 XOR DUP1 DUP11 MUL DUP3 SUB MUL DUP1 DUP11 MUL DUP3 SUB MUL DUP1 DUP11 MUL DUP3 SUB MUL DUP1 DUP11 MUL DUP3 SUB MUL DUP1 DUP11 MUL DUP3 SUB MUL DUP1 DUP11 MUL SWAP1 SWAP2 SUB MUL SWAP2 DUP2 SWAP1 SUB DUP2 SWAP1 DIV PUSH1 0x1 ADD DUP7 DUP5 GT SWAP1 SWAP6 SUB SWAP5 SWAP1 SWAP5 MUL SWAP2 SWAP1 SWAP5 SUB SWAP3 SWAP1 SWAP3 DIV SWAP2 SWAP1 SWAP2 OR SWAP2 SWAP1 SWAP2 MUL SWAP2 POP POP SWAP4 SWAP3 POP POP POP JUMP JUMPDEST PUSH1 0x0 PUSH1 0x2 DUP3 PUSH1 0x3 DUP2 GT ISZERO PUSH2 0x1670 JUMPI PUSH2 0x1670 PUSH2 0x1CF8 JUMP JUMPDEST PUSH2 0x167A SWAP2 SWAP1 PUSH2 0x1D0E JUMP JUMPDEST PUSH1 0xFF AND PUSH1 0x1 EQ SWAP1 POP SWAP2 SWAP1 POP JUMP JUMPDEST PUSH1 0x1 PUSH1 0x1 PUSH1 0xA0 SHL SUB DUP3 AND PUSH2 0x16B1 JUMPI PUSH1 0x40 MLOAD PUSH4 0xEC442F05 PUSH1 0xE0 SHL DUP2 MSTORE PUSH1 0x0 PUSH1 0x4 DUP3 ADD MSTORE PUSH1 0x24 ADD PUSH2 0xBF5 JUMP JUMPDEST PUSH2 0x16BD PUSH1 0x0 DUP4 DUP4 PUSH2 0x1276 JUMP JUMPDEST POP POP JUMP JUMPDEST PUSH1 0x1 PUSH1 0x1 PUSH1 0xA0 SHL SUB DUP3 AND PUSH2 0x16EB JUMPI PUSH1 0x40 MLOAD PUSH4 0x4B637E8F PUSH1 0xE1 SHL DUP2 MSTORE PUSH1 0x0 PUSH1 0x4 DUP3 ADD MSTORE PUSH1 0x24 ADD PUSH2 0xBF5 JUMP JUMPDEST PUSH2 0x16BD DUP3 PUSH1 0x0 DUP4 PUSH2 0x1276 JUMP JUMPDEST PUSH1 0x40 MLOAD PUSH1 0x1 PUSH1 0x1 PUSH1 0xA0 SHL SUB DUP4 DUP2 AND PUSH1 0x24 DUP4 ADD MSTORE PUSH1 0x44 DUP3 ADD DUP4 SWAP1 MSTORE PUSH2 0xD06 SWAP2 DUP6 SWAP2 DUP3 AND SWAP1 PUSH4 0xA9059CBB SWAP1 PUSH1 0x64 ADD PUSH2 0x10A7 JUMP JUMPDEST PUSH1 0x60 PUSH2 0x7D8 DUP4 DUP4 PUSH1 0x0 DUP5 PUSH1 0x0 DUP1 DUP6 PUSH1 0x1 PUSH1 0x1 PUSH1 0xA0 SHL SUB AND DUP5 DUP7 PUSH1 0x40 MLOAD PUSH2 0x174E SWAP2 SWAP1 PUSH2 0x1D30 JUMP JUMPDEST PUSH1 0x0 PUSH1 0x40 MLOAD DUP1 DUP4 SUB DUP2 DUP6 DUP8 GAS CALL SWAP3 POP POP POP RETURNDATASIZE DUP1 PUSH1 0x0 DUP2 EQ PUSH2 0x178B JUMPI PUSH1 0x40 MLOAD SWAP2 POP PUSH1 0x1F NOT PUSH1 0x3F RETURNDATASIZE ADD AND DUP3 ADD PUSH1 0x40 MSTORE RETURNDATASIZE DUP3 MSTORE RETURNDATASIZE PUSH1 0x0 PUSH1 0x20 DUP5 ADD RETURNDATACOPY PUSH2 0x1790 JUMP JUMPDEST PUSH1 0x60 SWAP2 POP JUMPDEST POP SWAP2 POP SWAP2 POP PUSH2 0x1197 DUP7 DUP4 DUP4 PUSH1 0x60 DUP3 PUSH2 0x17B0 JUMPI PUSH2 0x17AB DUP3 PUSH2 0x17F7 JUMP JUMPDEST PUSH2 0x7D8 JUMP JUMPDEST DUP2 MLOAD ISZERO DUP1 ISZERO PUSH2 0x17C7 JUMPI POP PUSH1 0x1 PUSH1 0x1 PUSH1 0xA0 SHL SUB DUP5 AND EXTCODESIZE ISZERO JUMPDEST ISZERO PUSH2 0x17F0 JUMPI PUSH1 0x40 MLOAD PUSH4 0x9996B315 PUSH1 0xE0 SHL DUP2 MSTORE PUSH1 0x1 PUSH1 0x1 PUSH1 0xA0 SHL SUB DUP6 AND PUSH1 0x4 DUP3 ADD MSTORE PUSH1 0x24 ADD PUSH2 0xBF5 JUMP JUMPDEST POP DUP1 PUSH2 0x7D8 JUMP JUMPDEST DUP1 MLOAD ISZERO PUSH2 0x1807 JUMPI DUP1 MLOAD DUP1 DUP3 PUSH1 0x20 ADD REVERT JUMPDEST PUSH1 0x40 MLOAD PUSH4 0xA12F521 PUSH1 0xE1 SHL DUP2 MSTORE PUSH1 0x4 ADD PUSH1 0x40 MLOAD DUP1 SWAP2 SUB SWAP1 REVERT JUMPDEST PUSH1 0x0 JUMPDEST DUP4 DUP2 LT ISZERO PUSH2 0x183B JUMPI DUP2 DUP2 ADD MLOAD DUP4 DUP3 ADD MSTORE PUSH1 0x20 ADD PUSH2 0x1823 JUMP JUMPDEST POP POP PUSH1 0x0 SWAP2 ADD MSTORE JUMP JUMPDEST PUSH1 0x20 DUP2 MSTORE PUSH1 0x0 DUP3 MLOAD DUP1 PUSH1 0x20 DUP5 ADD MSTORE PUSH2 0x1863 DUP2 PUSH1 0x40 DUP6 ADD PUSH1 0x20 DUP8 ADD PUSH2 0x1820 JUMP JUMPDEST PUSH1 0x1F ADD PUSH1 0x1F NOT AND SWAP2 SWAP1 SWAP2 ADD PUSH1 0x40 ADD SWAP3 SWAP2 POP POP JUMP JUMPDEST PUSH1 0x0 PUSH1 0x20 DUP3 DUP5 SUB SLT ISZERO PUSH2 0x1889 JUMPI PUSH1 0x0 DUP1 REVERT JUMPDEST POP CALLDATALOAD SWAP2 SWAP1 POP JUMP JUMPDEST DUP1 CALLDATALOAD PUSH1 0x1 PUSH1 0x1 PUSH1 0xA0 SHL SUB DUP2 AND DUP2 EQ PUSH2 0x18A7 JUMPI PUSH1 0x0 DUP1 REVERT JUMPDEST SWAP2 SWAP1 POP JUMP JUMPDEST PUSH1 0x0 DUP1 PUSH1 0x40 DUP4 DUP6 SUB SLT ISZERO PUSH2 0x18BF JUMPI PUSH1 0x0 DUP1 REVERT JUMPDEST PUSH2 0x18C8 DUP4 PUSH2 0x1890 JUMP JUMPDEST SWAP5 PUSH1 0x20 SWAP4 SWAP1 SWAP4 ADD CALLDATALOAD SWAP4 POP POP POP JUMP JUMPDEST PUSH1 0x0 DUP1 PUSH1 0x40 DUP4 DUP6 SUB SLT ISZERO PUSH2 0x18E9 JUMPI PUSH1 0x0 DUP1 REVERT JUMPDEST POP POP DUP1 CALLDATALOAD SWAP3 PUSH1 0x20 SWAP1 SWAP2 ADD CALLDATALOAD SWAP2 POP JUMP JUMPDEST PUSH1 0x0 PUSH1 0x20 DUP3 DUP5 SUB SLT ISZERO PUSH2 0x190A JUMPI PUSH1 0x0 DUP1 REVERT JUMPDEST PUSH2 0x7D8 DUP3 PUSH2 0x1890 JUMP JUMPDEST PUSH1 0x0 DUP1 PUSH1 0x0 PUSH1 0x60 DUP5 DUP7 SUB SLT ISZERO PUSH2 0x1928 JUMPI PUSH1 0x0 DUP1 REVERT JUMPDEST PUSH2 0x1931 DUP5 PUSH2 0x1890 JUMP JUMPDEST SWAP3 POP PUSH2 0x193F PUSH1 0x20 DUP6 ADD PUSH2 0x1890 JUMP JUMPDEST SWAP2 POP PUSH1 0x40 DUP5 ADD CALLDATALOAD SWAP1 POP SWAP3 POP SWAP3 POP SWAP3 JUMP JUMPDEST PUSH1 0x0 DUP1 PUSH1 0x40 DUP4 DUP6 SUB SLT ISZERO PUSH2 0x1962 JUMPI PUSH1 0x0 DUP1 REVERT JUMPDEST DUP3 CALLDATALOAD SWAP2 POP PUSH2 0x1972 PUSH1 0x20 DUP5 ADD PUSH2 0x1890 JUMP JUMPDEST SWAP1 POP SWAP3 POP SWAP3 SWAP1 POP JUMP JUMPDEST PUSH1 0x0 DUP1 PUSH1 0x0 PUSH1 0x60 DUP5 DUP7 SUB SLT ISZERO PUSH2 0x1990 JUMPI PUSH1 0x0 DUP1 REVERT JUMPDEST DUP4 CALLDATALOAD SWAP3 POP PUSH2 0x19A0 PUSH1 0x20 DUP6 ADD PUSH2 0x1890 JUMP JUMPDEST SWAP2 POP PUSH2 0x19AE PUSH1 0x40 DUP6 ADD PUSH2 0x1890 JUMP JUMPDEST SWAP1 POP SWAP3 POP SWAP3 POP SWAP3 JUMP JUMPDEST DUP1 ISZERO ISZERO DUP2 EQ PUSH2 0xC07 JUMPI PUSH1 0x0 DUP1 REVERT JUMPDEST PUSH1 0x0 PUSH1 0x20 DUP3 DUP5 SUB SLT ISZERO PUSH2 0x19D7 JUMPI PUSH1 0x0 DUP1 REVERT JUMPDEST DUP2 CALLDATALOAD PUSH2 0x7D8 DUP2 PUSH2 0x19B7 JUMP JUMPDEST PUSH1 0x0 DUP1 PUSH1 0x0 DUP1 PUSH1 0x80 DUP6 DUP8 SUB SLT ISZERO PUSH2 0x19F8 JUMPI PUSH1 0x0 DUP1 REVERT JUMPDEST DUP5 CALLDATALOAD SWAP4 POP PUSH1 0x20 DUP6 ADD CALLDATALOAD SWAP3 POP PUSH1 0x40 DUP6 ADD CALLDATALOAD SWAP2 POP PUSH1 0x60 DUP6 ADD CALLDATALOAD PUSH2 0x1A18 DUP2 PUSH2 0x19B7 JUMP JUMPDEST SWAP4 SWAP7 SWAP3 SWAP6 POP SWAP1 SWAP4 POP POP JUMP JUMPDEST PUSH1 0x0 DUP1 PUSH1 0x40 DUP4 DUP6 SUB SLT ISZERO PUSH2 0x1A36 JUMPI PUSH1 0x0 DUP1 REVERT JUMPDEST PUSH2 0x1A3F DUP4 PUSH2 0x1890 JUMP JUMPDEST SWAP2 POP PUSH2 0x1972 PUSH1 0x20 DUP5 ADD PUSH2 0x1890 JUMP JUMPDEST PUSH4 0x4E487B71 PUSH1 0xE0 SHL PUSH1 0x0 MSTORE PUSH1 0x11 PUSH1 0x4 MSTORE PUSH1 0x24 PUSH1 0x0 REVERT JUMPDEST DUP2 DUP2 SUB DUP2 DUP2 GT ISZERO PUSH2 0x66E JUMPI PUSH2 0x66E PUSH2 0x1A4D JUMP JUMPDEST PUSH1 0x0 PUSH1 0x1 PUSH1 0xFF SHL DUP3 ADD PUSH2 0x1A8B JUMPI PUSH2 0x1A8B PUSH2 0x1A4D JUMP JUMPDEST POP PUSH1 0x0 SUB SWAP1 JUMP JUMPDEST DUP1 DUP3 ADD DUP1 DUP3 GT ISZERO PUSH2 0x66E JUMPI PUSH2 0x66E PUSH2 0x1A4D JUMP JUMPDEST PUSH1 0x1 DUP2 DUP2 SHR SWAP1 DUP3 AND DUP1 PUSH2 0x1AB9 JUMPI PUSH1 0x7F DUP3 AND SWAP2 POP JUMPDEST PUSH1 0x20 DUP3 LT DUP2 SUB PUSH2 0x1AD9 JUMPI PUSH4 0x4E487B71 PUSH1 0xE0 SHL PUSH1 0x0 MSTORE PUSH1 0x22 PUSH1 0x4 MSTORE PUSH1 0x24 PUSH1 0x0 REVERT JUMPDEST POP SWAP2 SWAP1 POP JUMP JUMPDEST DUP1 DUP3 MUL DUP2 ISZERO DUP3 DUP3 DIV DUP5 EQ OR PUSH2 0x66E JUMPI PUSH2 0x66E PUSH2 0x1A4D JUMP JUMPDEST PUSH1 0xFF DUP2 DUP2 AND DUP4 DUP3 AND ADD SWAP1 DUP2 GT ISZERO PUSH2 0x66E JUMPI PUSH2 0x66E PUSH2 0x1A4D JUMP JUMPDEST DUP2 DUP2 SUB PUSH1 0x0 DUP4 SLT DUP1 ISZERO DUP4 DUP4 SGT AND DUP4 DUP4 SLT DUP3 AND OR ISZERO PUSH2 0x1B2F JUMPI PUSH2 0x1B2F PUSH2 0x1A4D JUMP JUMPDEST POP SWAP3 SWAP2 POP POP JUMP JUMPDEST DUP1 DUP3 ADD DUP3 DUP2 SLT PUSH1 0x0 DUP4 SLT DUP1 ISZERO DUP3 AND DUP3 ISZERO DUP3 AND OR ISZERO PUSH2 0x152B JUMPI PUSH2 0x152B PUSH2 0x1A4D JUMP JUMPDEST PUSH4 0x4E487B71 PUSH1 0xE0 SHL PUSH1 0x0 MSTORE PUSH1 0x12 PUSH1 0x4 MSTORE PUSH1 0x24 PUSH1 0x0 REVERT JUMPDEST PUSH1 0x0 DUP3 PUSH2 0x1B7B JUMPI PUSH2 0x1B7B PUSH2 0x1B56 JUMP JUMPDEST PUSH1 0x1 PUSH1 0xFF SHL DUP3 EQ PUSH1 0x0 NOT DUP5 EQ AND ISZERO PUSH2 0x1B95 JUMPI PUSH2 0x1B95 PUSH2 0x1A4D JUMP JUMPDEST POP SDIV SWAP1 JUMP JUMPDEST PUSH1 0x0 DUP3 PUSH2 0x1BA9 JUMPI PUSH2 0x1BA9 PUSH2 0x1B56 JUMP JUMPDEST POP DIV SWAP1 JUMP JUMPDEST PUSH1 0x0 PUSH1 0x20 DUP3 DUP5 SUB SLT ISZERO PUSH2 0x1BC0 JUMPI PUSH1 0x0 DUP1 REVERT JUMPDEST POP MLOAD SWAP2 SWAP1 POP JUMP JUMPDEST PUSH1 0x1 DUP2 DUP2 JUMPDEST DUP1 DUP6 GT ISZERO PUSH2 0x1C02 JUMPI DUP2 PUSH1 0x0 NOT DIV DUP3 GT ISZERO PUSH2 0x1BE8 JUMPI PUSH2 0x1BE8 PUSH2 0x1A4D JUMP JUMPDEST DUP1 DUP6 AND ISZERO PUSH2 0x1BF5 JUMPI SWAP2 DUP2 MUL SWAP2 JUMPDEST SWAP4 DUP5 SHR SWAP4 SWAP1 DUP1 MUL SWAP1 PUSH2 0x1BCC JUMP JUMPDEST POP SWAP3 POP SWAP3 SWAP1 POP JUMP JUMPDEST PUSH1 0x0 DUP3 PUSH2 0x1C19 JUMPI POP PUSH1 0x1 PUSH2 0x66E JUMP JUMPDEST DUP2 PUSH2 0x1C26 JUMPI POP PUSH1 0x0 PUSH2 0x66E JUMP JUMPDEST DUP2 PUSH1 0x1 DUP2 EQ PUSH2 0x1C3C JUMPI PUSH1 0x2 DUP2 EQ PUSH2 0x1C46 JUMPI PUSH2 0x1C62 JUMP JUMPDEST PUSH1 0x1 SWAP2 POP POP PUSH2 0x66E JUMP JUMPDEST PUSH1 0xFF DUP5 GT ISZERO PUSH2 0x1C57 JUMPI PUSH2 0x1C57 PUSH2 0x1A4D JUMP JUMPDEST POP POP PUSH1 0x1 DUP3 SHL PUSH2 0x66E JUMP JUMPDEST POP PUSH1 0x20 DUP4 LT PUSH2 0x133 DUP4 LT AND PUSH1 0x4E DUP5 LT PUSH1 0xB DUP5 LT AND OR ISZERO PUSH2 0x1C85 JUMPI POP DUP2 DUP2 EXP PUSH2 0x66E JUMP JUMPDEST PUSH2 0x1C8F DUP4 DUP4 PUSH2 0x1BC7 JUMP JUMPDEST DUP1 PUSH1 0x0 NOT DIV DUP3 GT ISZERO PUSH2 0x1CA3 JUMPI PUSH2 0x1CA3 PUSH2 0x1A4D JUMP JUMPDEST MUL SWAP4 SWAP3 POP POP POP JUMP JUMPDEST PUSH1 0x0 PUSH2 0x7D8 PUSH1 0xFF DUP5 AND DUP4 PUSH2 0x1C0A JUMP JUMPDEST PUSH1 0x1 PUSH1 0x1 PUSH1 0xA0 SHL SUB SWAP4 SWAP1 SWAP4 AND DUP4 MSTORE PUSH1 0x20 DUP4 ADD SWAP2 SWAP1 SWAP2 MSTORE PUSH1 0x40 DUP3 ADD MSTORE PUSH1 0x60 ADD SWAP1 JUMP JUMPDEST PUSH1 0x0 PUSH1 0x20 DUP3 DUP5 SUB SLT ISZERO PUSH2 0x1CED JUMPI PUSH1 0x0 DUP1 REVERT JUMPDEST DUP2 MLOAD PUSH2 0x7D8 DUP2 PUSH2 0x19B7 JUMP JUMPDEST PUSH4 0x4E487B71 PUSH1 0xE0 SHL PUSH1 0x0 MSTORE PUSH1 0x21 PUSH1 0x4 MSTORE PUSH1 0x24 PUSH1 0x0 REVERT JUMPDEST PUSH1 0x0 PUSH1 0xFF DUP4 AND DUP1 PUSH2 0x1D21 JUMPI PUSH2 0x1D21 PUSH2 0x1B56 JUMP JUMPDEST DUP1 PUSH1 0xFF DUP5 AND MOD SWAP2 POP POP SWAP3 SWAP2 POP POP JUMP JUMPDEST PUSH1 0x0 DUP3 MLOAD PUSH2 0x1D42 DUP2 DUP5 PUSH1 0x20 DUP8 ADD PUSH2 0x1820 JUMP JUMPDEST SWAP2 SWAP1 SWAP2 ADD SWAP3 SWAP2 POP POP JUMP INVALID LOG2 PUSH5 0x6970667358 0x22 SLT KECCAK256 0xCF STATICCALL 0x4C 0xE0 0xF9 0x1F PREVRANDAO PUSH11 0x2C8F990A155173C691BFF3 0x5C 0xED PUSH9 0xB07E4353033F7F0185 PUSH1 0x64 PUSH20 0x6F6C634300081400330000000000000000000000 "},"methodIdentifiers":{"MAX_LEVARAGE()":"2bdb4e73","allowance(address,address)":"dd62ed3e","approve(address,uint256)":"095ea7b3","asset()":"38d52e0f","balanceOf(address)":"70a08231","convertToAssets(uint256)":"07a2d13a","convertToShares(uint256)":"c6e6f592","decimals()":"313ce567","deposit(uint256,address)":"6e553f65","getPosition(address)":"16c19739","getPrice(uint256)":"e7572230","getTradersPnL()":"9f006651","getUsdtValue(uint256,uint256)":"169fffe2","i_xdc()":"798cd94c","maxDeposit(address)":"402d267d","maxMint(address)":"c63d75b6","maxRedeem(address)":"d905777e","maxWithdraw(address)":"ce96cb77","mint(uint256,address)":"94bf804d","name()":"06fdde03","openPosition(uint256,uint256,uint256,bool)":"d4d5c230","owner()":"8da5cb5b","previewDeposit(uint256)":"ef8b30f7","previewMint(uint256)":"b3d7f6b9","previewRedeem(uint256)":"4cdad506","previewWithdraw(uint256)":"0a28a477","redeem(uint256,address,address)":"ba087652","renounceOwnership()":"715018a6","s_totalLiquidityDeposited()":"0258d92a","symbol()":"95d89b41","totalAssets()":"01e1d114","totalSupply()":"18160ddd","tradersCollateral()":"dd5b2f52","transfer(address,uint256)":"a9059cbb","transferFrom(address,address,uint256)":"23b872dd","transferOwnership(address)":"f2fde38b","tryfunction(bool)":"cc265da9","withdraw(uint256,address,address)":"b460af94"}}}}}