{
  "_format": "hh-sol-artifact-1",
  "contractName": "CustomerContract",
  "sourceName": "contracts/CustomerContract.sol",
  "abi": [
    {
      "inputs": [],
      "stateMutability": "nonpayable",
      "type": "constructor"
    },
    {
      "inputs": [],
      "name": "_counter",
      "outputs": [
        {
          "internalType": "uint256",
          "name": "",
          "type": "uint256"
        }
      ],
      "stateMutability": "view",
      "type": "function"
    },
    {
      "inputs": [
        {
          "internalType": "string",
          "name": "_bookName",
          "type": "string"
        }
      ],
      "name": "addBooks",
      "outputs": [],
      "stateMutability": "nonpayable",
      "type": "function"
    },
    {
      "inputs": [
        {
          "internalType": "uint256",
          "name": "",
          "type": "uint256"
        }
      ],
      "name": "books",
      "outputs": [
        {
          "internalType": "uint256",
          "name": "id",
          "type": "uint256"
        },
        {
          "internalType": "string",
          "name": "bookName",
          "type": "string"
        }
      ],
      "stateMutability": "view",
      "type": "function"
    },
    {
      "inputs": [],
      "name": "getPriceInfo",
      "outputs": [
        {
          "internalType": "bytes32",
          "name": "",
          "type": "bytes32"
        }
      ],
      "stateMutability": "nonpayable",
      "type": "function"
    },
    {
      "inputs": [],
      "name": "requestId",
      "outputs": [
        {
          "internalType": "bytes32",
          "name": "",
          "type": "bytes32"
        }
      ],
      "stateMutability": "view",
      "type": "function"
    },
    {
      "inputs": [],
      "name": "show",
      "outputs": [
        {
          "internalType": "uint256",
          "name": "",
          "type": "uint256"
        }
      ],
      "stateMutability": "view",
      "type": "function"
    }
  ],
  "bytecode": "0x6080604052600080546001600160a01b031916734c50a698f8148b2560eadb50a8397b614dcff6a017905534801561003657600080fd5b5060016002556105bc8061004b6000396000f3fe608060405234801561001057600080fd5b50600436106100615760003560e01c80626d6cae14610066578063330227bf146100825780633c9d54de1461008a578063687440461461009f5780637cd49fde146100c0578063cc80f6f3146100c9575b600080fd5b61006f60015481565b6040519081526020015b60405180910390f35b61006f6100d1565b61009d6100983660046102dd565b61014a565b005b6100b26100ad36600461038e565b6101a5565b6040516100799291906103a7565b61006f60025481565b61006f61024a565b60008054604051639dd4cc5d60e01b81523360048201526001600160a01b0390911690639dd4cc5d906024016020604051808303816000875af115801561011c573d6000803e3d6000fd5b505050506040513d601f19601f8201168201806040525081019061014091906103fd565b6001819055919050565b6040805180820182526002548082526020808301858152600092835260039091529290208151815591519091906001820190610186908261049f565b5090505060016002600082825461019d919061055f565b909155505050565b600360205260009081526040902080546001820180549192916101c790610416565b80601f01602080910402602001604051908101604052809291908181526020018280546101f390610416565b80156102405780601f1061021557610100808354040283529160200191610240565b820191906000526020600020905b81548152906001019060200180831161022357829003601f168201915b5050505050905082565b60008060009054906101000a90046001600160a01b03166001600160a01b0316638e0e0abb6040518163ffffffff1660e01b8152600401602060405180830381865afa15801561029e573d6000803e3d6000fd5b505050506040513d601f19601f820116820180604052508101906102c291906103fd565b905090565b634e487b7160e01b600052604160045260246000fd5b6000602082840312156102ef57600080fd5b813567ffffffffffffffff8082111561030757600080fd5b818401915084601f83011261031b57600080fd5b81358181111561032d5761032d6102c7565b604051601f8201601f19908116603f01168101908382118183101715610355576103556102c7565b8160405282815287602084870101111561036e57600080fd5b826020860160208301376000928101602001929092525095945050505050565b6000602082840312156103a057600080fd5b5035919050565b82815260006020604081840152835180604085015260005b818110156103db578581018301518582016060015282016103bf565b506000606082860101526060601f19601f830116850101925050509392505050565b60006020828403121561040f57600080fd5b5051919050565b600181811c9082168061042a57607f821691505b60208210810361044a57634e487b7160e01b600052602260045260246000fd5b50919050565b601f82111561049a57600081815260208120601f850160051c810160208610156104775750805b601f850160051c820191505b8181101561049657828155600101610483565b5050505b505050565b815167ffffffffffffffff8111156104b9576104b96102c7565b6104cd816104c78454610416565b84610450565b602080601f83116001811461050257600084156104ea5750858301515b600019600386901b1c1916600185901b178555610496565b600085815260208120601f198616915b8281101561053157888601518255948401946001909101908401610512565b508582101561054f5787850151600019600388901b60f8161c191681555b5050505050600190811b01905550565b8082018082111561058057634e487b7160e01b600052601160045260246000fd5b9291505056fea26469706673582212203935f729198904828bf0769e4a36fcc82dfff02e5296ca3ba74f4e5b7657a27464736f6c63430008140033",
  "linkReferences": {},
  "deployedLinkReferences": {}
}